:20000000003A012009EF010039FB021039FB021039FB021039FB021039FB021039FB0210E8
:1C00200039FB021039FB021039FB021039FB021039FB021039FB021011FB021002
:200040002DE9F04FB04EAF4C05460121ADF1540DAF78327894F842000E91297843293CDC83
:20006000432900F0018728291EDC282901F01180002901F0D382891E01F0BD82491E01F0E0
:200080002583491E01F01E83C91E01F0A982491E01F05282491E01F04582DFF8E4C2C91F0C
:2000A000122949D901F0CABA2A3900F0E187491E00F0D787DFF8C4C2491E00F070870E390C
:2000C00000F01087491E01F0E882491E01F0E182491F00F0DA8601F0B1BACE2919DCCE2925
:2000E00000F0A283453900F09D86491F00F08086491E00F06786491E00F05A86491E00F02A
:200100004C86533924292CD92D3901F0998201F095BAD73900F0F881491E00F0C68013391B
:2001200000F09880AD4A0E397CD0491E46D0491E3ED0491E01F082BADFE811F0EA09AA0939
:200140008C09800ABF0A74096509800A43092209800AED08BE08800ABB0AB80AB30A91081F
:20016000BC07DFE811F0920A8E0A8A0A1306860A820A7E0A0E06770AF105B4058305580546
:200180004705370527051B0511050805720AFF04E504BD0483045F045204DF03D303C8037C
:2001A0006B0A6B0A6B0A9D037D036B0A6B0A6B036868002801F07C8000F0ECBD68680028F2
:2001C00001F076801146097831F0010140F0E2850488466802208DF820003146ADF8224027
:2001E00009A826F022F908A812F060FC012815D14FF6FE70A0420BD0304624F096FF28B990
:20020000002120460A4622F05FFC08E0002006E0002130460A461EF02FF800E00E980F9566
:20022000139038E1696891B11046007830F0010040F0B085084600218DF8201009900221BB
:2002400008A88DF821101AF0B5FC01F001B90F9501F02EB86868007878B9002024F0C8F9E9
:2002600023F07CFB0E980DA98DF83400522021F003FE24F0DBFD01F02DBA4FF6FF7024F0CF
:20028000B7F930784FF480711EF062FD30784FF480711DF055FB00200DF135018DF835001E
:2002A000522021F0E9FD01F015BA68680F95002800F0FE8700681090807E24F083FA061C4B
:2002C00000F0AF821098C76900252C464FF003093878A04200F300810F2410FB04F0401CAF
:2002E000C0B2401919F06CFB5FEA000800F0978220F010FE002840F0ED800025139588F839
:2003000000504EE078560020D05100201099032315FB03F6BA1991F81AA0B1F80C90528823
:200320000F2015FB00845046494622F049F8BA195288834608AB50461FF0DCFF641CBBF1AD
:20034000FF0F1FD0F0B1A7489DF827300168D80838BF8C2017D39DF826001623207103FBCB
:200360000B10C18800F10E02A4F805100189C4F80B201398A4F8071005E0C0462455002014
:200380001C5D002086202070B8194078BB1960705888608098F800006D1CEDB2401C88F80D
:2003A00000003878A842B1DC1098817E474600F10E064FF00F0985893A78109190F80AA0F3
:2003C0001196139912950C468A4266DC204626F09DFA061C5AD0139D024640E0D9550020FE
:2003E00015FB09F0391838184078491C02F8010B487802F8010B887802F8010B4888001282
:2004000002F8010B0B7843BB4B78F3B9087902F8010B487902F8010BB1F80500001202F8DE
:20042000010BC87902F8010BB1F80700001202F8010B0879834625F008FA70B1D1F80B103B
:20044000584614F02DF9024607E0487A02F8010BB1F80900001202F8010B6D1CEDB238783B
:20046000A842BDDC139900910E98019002900391CDF810A00594129A06961098079111991F
:2004800009230DF0FBF8304626F081F9384620F095FF25F04DF81398C4E111FB09F3F81856
:2004A000FB185E78241DA4B2401C86B9467866B90079834625F0C9F9641DA4B238B15846CD
:2004C00019F068FC001984B201E0A41CA4B2491CC9B279E74046A0E114FB09721099307847
:2004E0005288898908AB1FF005FF50B19DF82600014625F0AAF920B1084619F04BFC2D18DB
:20050000EDB2641CE4B2E3E668680F95002800F0CF8600681090807E24F054F9002800F0FD
:2005200080811098D0F81C8098F80000002800F078818000401C19F043FA0028119000F032
:200540006E8125F0EBFE20F0E5FC002840F0648100261396129698F80000B04200F3E48030
:200560001398012840F08C80CC4DA878EA68162111FB00F081B2562026F062F805F10C068C
:2005800040B9A8783268162111FB00F081B2562026F05CF8607880211EF0DAFB2F78B800A7
:2005A00019F00EFAB8465FEA000B69D02E78B8F1000F0CD005F11800594642784A7042887A
:2005C00010F8144B4A807F1E01F8044BF5D1002E3CD037464FF000094FF0140AA6B305F194
:2005E000180411E098650020002808BF4E4607D041680668216120F0E1FE207B401E207363
:20060000304620F0DBFE2E7820690028ECD1761EF6B216FB0AF2A018418861804178617032
:20062000C188E1808188A18001890C30218109C804F10C0181E80900105D2070A318C3F8C6
:20064000109083F80C902E707F1EC7D10CF0ACFDB8F1000F11D018355C4647466078618895
:2006600022F04CFAFF2804D02678810001EB00116E547F1E04F10404F0D1584620F09EFEA4
:2006800012981199087018B9002048700E9F0F70109890F81AA00C4600F10E098689857A67
:2006A0002078042110FB01F0804626F02FF9071C1ED0014600202278824222DC012A03D1AA
:2006C00064780CB9DDF83880002000900E9901910291039004953246CDF8148007230697AC
:2006E0004946079050460CF0C9FF384626F04FF8119820F063FE24F01BFF22F0ADFE00207A
:2007000090E08200A3185B780B70A3189B784B70A318DB78A2188B70B2F80320401CC0B2F7
:200720001212CA70091DC6E7109B9F890E2016FB00856D1C93F81AA0B5F8019039465046D0
:200740004A4621F03DFE834608AB50461FF0D2FDBBF1FF0F48D0002846D02F78002F58D1BE
:200760009DF82600E97888423CD19DF82700C00836D3BD480168A8884FF6FF72824201D10F
:20078000EF88B7B1162202FB0B17F880E8883881E87825F05AF800B30E37002104223846FE
:2007A0001AF07EFFE87819F0F5FAD5F80A10024610E0162000FB0B156889E880A88904223A
:2007C00005F10E070021288138461AF069FF042205F11201384625F099F80E98139018E0C0
:2007E0008C2002E08D2000E08720129BDDF844C099000CEB0102507028780CEB01075B1C48
:20080000B8700CEB0102DFB21297B5F80110A2F80310761CF6B29EE6119820F0CFFD10209E
:2008200000E002200F9DB6E26868002800F040856868006822F07CF900F00ABEAF68002F08
:2008400000F0368500246C7040B12046014604F0ABFA002808BF201C00F0B8810E98B5E126
:200860006868002800F02485002069686870097861B984F8460094F82100401E84F8210019
:200880000E98014621F0D4FD00F024BF25F0A8FE0E98014606F010FC00F01CBF8C65002030
:2008A0006868002800F00485067847680021082208A81AF0F5FEE7B1CD4800210170AEB104
:2008C000761E0ED0761E0AD0761E03D0761E10D10E990170384608A915F0C0FFC2E20E9906
:2008E0000170384608A920F059FBBBE21FF0E0F9B8E20220B6E26868002800F0D984686806
:2009000000F1120120F04AFB00F0A2BD6868002800F0CE846A6810785188928814F0DEF8CE
:2009200000F096BD6868002800F0C28490F8009046888188B0F806B0B0F808A00A301090CF
:20094000C94807790F91002F00F03D81C5490F68002F00F0AD8480467868007881454FD1B0
:2009600024F0AAFE00284BD0037C002B48D04469002C45D000200C22834240F3998410FB5A
:2009800002F1615A8E4238D10E2019F019F8071C00F01981002407F10A0004235B1E00F81D
:2009A000014BFBD1BC80FF2038704FF6FF737B803C81FC8087F800900F9A7E801099BA8098
:2009C00007F10A00A7F806B00422A7F808A024F09DFF082018F0F4FFD8F8141018B938463D
:2009E00020F0ECFCEFE007604160C8F8140098F81000401C88F8100067E1401CC0B2BBE710
:200A00003F68002FA8D100F053BC6868002800F04F840020687068681BF01AFFA968088048
:200A200000F058BEA868002800F0428400216970AD68267860786F1C002E08BF29700ED046
:200A4000402120F09BFC4FF47A710F2300F2E730B0FBF1F116FB03100F3828702678002FC8
:200A600000F038863046B2E098650020AF68A18F94F83F2094F83E3094F84060D4F838C087
:200A800094F841E094F8438094F8449094F845A094F846B0002F00F00B8400276F70AF683C
:200AA0003981A968CA72A9688B72A9680E73A9688873A868C0F804C0A86880F80DE0606BB7
:200AC000A9680860A86880F80F80A86880F81090A86880F811A0A86880F812B000F0FABD34
:200AE0006F68002F00F0E483002068706868077D17B1C07C84F845006868877D17B1417D2E
:200B000084F84610077C17B1C089A0876868077B17B18068A0636868877C1FB1407C84F868
:200B20004100686807790FB10068606300F0D2BD0021697070B194F83F0080090AD208A8BF
:200B400008221AF0ADFD25F027FB08A817F066FC00F0C0BD25F020FB4FF4FA7024F056F9BA
:200B600000F0B8BDA868002800F0A2830020687025F08AFD2AE0D948A9680078002900F062
:200B800097830021697021E06868002800F09083686800781FF0CAFA00F05ABC686800282C
:200BA00000F08683002068706868007805F0DAFD00F090BDA868002800F07A8300206870D6
:200BC0001FF092FD08B90E98E5E00078AF68387000F080BD6868002800F06A83002068701A
:200BE0006968088889781EF013FD00F073BDC046805500206868002800F05A83B84C6968C0
:200C0000082204F10C0024F081FE686801896180807A2070B3E06868002800F04983018881
:200C2000ADF830104088ADF832000CA9532021F023F950200DF1320121F01EF9E1200DF113
:200C4000360123F04BFB68689DF836100079884200F095808DF836000DF13601E12021F00F
:200C60000BF98CE0445C00208C6500206868002800F01E83007821F057FE686896F83C1022
:200C80004078884213D086F83C000DF13701E12023F024FB68689DF837104078884206D0C8
:200CA0008DF837000DF13701E12021F0E5F868680E9F407807FA00F0F06424F0D7FB0024CF
:200CC000A6F8944038461EF077F9204663E06F68002F00F0ED82387886F84A007C88748721
:200CE000387A86F83C007B89F3877A68F264B989A6F84810B87B86F85C00F87B86F8290073
:200D0000387C86F827007C697465B86996F89610B065387F884201D021F006FE696806F123
:200D20005D001D3125F07AFD96F84A0006F12404082824D121207421224625F087FC00206A
:200D4000022121F035FD1AE06968002900F0B0820888498821F0D6FF70B9696808880E9A9E
:200D6000498820F0C5F969680888498821F0CAFF002808BFC8200ED06968097941700020EF
:200D800009E06868002800F0938203E06868002800F08E8212202C465DE26868002800F0C7
:200DA0004B846A6810889178D27821F08DFE4FE36868002800F040846868017A427A1DF019
:200DC0005BFA45E36868002800F0368441788DF8201081788DF82110007824F08DFB00289B
:200DE00000F066820C3008A9022224F08FFDC6E76968002900F02084A868002800F01C8467
:200E0000087808A923F0ADFE6868A968007808709DF82000A96848709DF82100A9688870D5
:200E200000F01DBC6868002800F006840A300778002F0CBF00220E9A47780FB142F0020245
:200E400087780FB142F00402C7780FB142F00802007908B142F04002696808880023891C91
:200E600021F05AFA044630E76868002800F0E48302206F688DF828003988ADF82010FA78AF
:200E8000B97808A81EF014F8E2E26868002800F0D38302218DF8281001884FF6FF7088426E
:200EA00005D0821E8A4202D0C01E88420BD125F031FBADF820006868C27A837A811C08A83F
:200EC0001FF0E4FF687068680188ADF82010C27A837A811C08A81FF0D9FFB9E2505A002048
:200EE000C05600206C68002C00F0A68302208DF828002188ADF8201063462279B4F80680E0
:200F0000267AD4F80CB0277CD4F814A061880F921A1D14680346F21912FB03F00F305FFA5D
:200F200080F9B9F14E0F00F3198125F0F3FA884233D121700812607024F0ACFCA41C014696
:200F4000204625F06BFC04460F98207084F801804FEA2823A370E670241D66B15846A41E8C
:200F6000017804F8021F30F8021B761E4FEA21216170F5D1A41C27705FB1641E50460178F8
:200F800004F8021F30F8021B7F1E4FEA21216170F5D1C84820224B465EE01846FBE66C680C
:200FA000002C00F0498302218DF828102088E146ADF820006288A388A679D4F80880277BAB
:200FC000D4F810E0D9F80400F41914FB01F1891D5FFA81FCBCF14E0F42DC9DF828100F29C9
:200FE00018BF022908D1BDF820404FF6FF71A14204BF891EADF820104FF6FF71914208BFDB
:201000008A1E00F8012B111200F8011B00F8013B1C1200F8014B00F8016B66B14146801E87
:201020000A7800F8022F31F8022B761E4FEA22224270F5D1801C07705FB1401E71460A786C
:2010400000F8022F31F8022B7F1E4FEA22224270F5D148460622634608A91CF00DFA9AE6DC
:201060007CE06868002800F0E7820220052216E06868002800F0E08202206F688DF8280094
:201080003988ADF820103A79798808A823F0EEFE81E66868002800F0CF82022002468DF8C8
:2010A000280068680188ADF82010418808A824F007FACDE12C466368002B00F0CE80187D63
:2010C00024F060FA002800F0C8809D691C331F78002F0CBF002002205F780FB140F0100043
:2010E0009F780FB140F00800DF780FB140F020001F790FB140F040005F790FB140F080006A
:2011000083466068007D25F001F95FEA000800F0A4806168887A8DF829008889ADF82A00F4
:20112000087802288DF828000CD001280AD00F2808D0032809D1891C08A8082224F0E6FBF1
:20114000616802E04888ADF820008F7B002F74D0780018F035FC061C02D1254610201AE691
:2011600000216068877B8F4261DCC18A838CCDF83C80826A13950C2F109190F8229011934D
:20118000BDF8208012924CDA40461DF0D9FA0C2816D14FF6FE701DF0D3FA0C2810D1DFF836
:2011A000ECC20E999CF82C3100200CF59A7C1CF8082B9342C4BF131C081C491C0C29F6DB55
:2011C000C24D4FF6FE7305EBC00568686B8018B120F0F4F80020686077B14FEA470A5046E5
:2011E00018F0EEFB6860002808BF10201AD068683146524624F08AFBA5F80280C3486F70AC
:20120000129B0078139F28700F990093109A019708A8CDF808B0119BCDF80C900AF054FD5D
:2012200000E002206070304620F0C8F852E200694A00105A491CB05293E7886A009001954C
:20124000CDF808B091F822000390CA8A8B8C08A841460AF039FD2546FAE0254628E0686879
:2012600030B3007824F08EF9071C21D0387B1EF037FF0028687040F02D82AE4845683E4667
:20128000002D00F027822F46002117B9BE4202D020E2BE4209D1B54219BF3068086031680C
:2012A0004160304625F067FA14E239463F68ECE7022070E5245500206868002800F0BC817D
:2012C000A868002800F0B881002108221AF0E8F969680878498822F05FFC071C19D00020BC
:2012E000A968687038880880A968B8788870AC68A078002800F0EE8118F062FB6060AA689A
:201300005068002800F0E6819278F91C24F0FEFAE0E1B1209CE06F68002F00F08D81AF6842
:20132000002F00F089810024664668686C703768017820463FB13A79914204BF401CC0B283
:201340003F68002FF7D1A9680870A8680078400018F036FBA968376848606868A9680078B4
:201360004968002F00F0B6813A79904204D1FA88661C21F81420F4B23F68002FF4D1A9E1F0
:201380006F68002F00F058816868002764466F700678206890B101798E420BD1002F04BF9F
:2013A0000568256002D001683960056820F006F8284601E0074600680028ECD120F03EF9BC
:2013C00088E102206F686870002F00F08381644639787A882068002800F07C810027037913
:2013E000994202D1C3889A4204D0074600680028F5D16FE107B96746016839601FF0DEFFF6
:2014000020F01CF92BE16868002800F01581807800280CBF00220E9A68680E9900881BF05E
:20142000EDFD15E06968002900F00681887828B1C87800280CBF0E99032100E000216A68B2
:20144000107908B141F040011088527910F0E0F868703FE16868002800F0EE80696808A8CE
:201460000822091D24F052FA032024F0D3FA6868C07B21F00FFB6868817B009102788389AF
:20148000418808A812F046FCE2E7C046A41A00206868002800F0D080384624F065F8041C9B
:2014A00016D11C2018F08CFA041C00F0138100211C221AF0F5F82771204620F0D5FF38B9AE
:2014C00020461FF07BFFD120C2E7C046D01B0020E088824940F00800E08040F00400E08013
:2014E000022025F065F87E49032025F061F868680168089100798DF824000E9F8DF8257045
:201500008DF8267008A81CF027FEA1E7F25500206868002800F0908068680088002103F07C
:2015200043FCD7E06868002800F0868068680078707094E0385C00206A486F680478002F43
:201540007AD0686800212A2269701AF0A9F8708F696808806868B6F84870847269688F811B
:20156000F08F6968C8826868082206F1240707F139010E3024F0CAF924F08CF901466868BE
:201580000822801C24F0C2F96868082207F11C01183024F0BBF996F83C10686880F8231042
:2015A0000E986968504C81F8210021784A0824BF6A6882F824008A0824BF6A6882F825005A
:2015C000CA0824BF6A6882F826000A0924BF6A6882F82700C90924BF696881F8280079E0FB
:2015E000686848B390F90000044623F077FFA86800B1047033E06868F0B100200E9F687066
:2016000069680F7069684F7068680226867068680624C470696803230B715BE0686858B147
:20162000407818B1FF20032121F0C2F824F07EFF0E982E490860FEE7022009E7122007E7EE
:201640000020687019F06CF944E00020687022F0B9FA3FE010464FF480711CF0E7FF002088
:20166000F6E629461CF00CF833E0294610F0A0FA2FE0294615F070FD2BE0294624F066FE11
:2016800027E029461EF062FB23E029461EF03EF81FE029461BF0BAF91BE0294616F080FD9A
:2016A00017E0384629460BF003FB12E024F0D6F9CEE629461DF086F90BE03846294606F0FB
:2016C000EBFA06E0294605F077FE02E0294606F06BF90E900E9815B0BDE8F08F7911020002
:2016E000C960020060540020866B00207C0520432DE9F04F04464FF6FE70ADF15C0D217A02
:20170000ADF85400606808AA10F0BCFF002800F063849DF822000228B4BF012700279DF864
:2017200024000228A8BF0027BDF82A104FF0000A4FF6F87088420ED04FF6FE70401F884264
:2017400009D04FF6FE70001F884204D04FF6FE70C01E884200D1574624F0D6FE9DF82310C7
:20176000884240F03984002F00F03684208D9DF82660678EADF84C00ADF82E7056B1616818
:201780009DF821209DF83C30012024F013F9002840F022849DF82570DFF8C4B2DFF8C4829F
:2017A0005646002F4BD19DF83D00574658BBBDF82A0003461FF0A2FD5546022808BF012538
:2017C000002D9DF8225018BF012759460988994208BF47F0020727B1002D14BF402120214A
:2017E0000F4318461FF08AFD012808BF47F00107002D3DD01298007824F0A1FC012818BF67
:2018000027F0010734E09DF8411041B1FF2906D09DF84000119A21F023F950B128E0B8F859
:201820003A00BDF82A10884205D098F84A0004281ED101261CE09DF82650222720E0BDF8BF
:201840002A10FF2022F0A8F9002804BF3D1C082708D09DF8250047F001052C2740F00100B6
:201860008DF8250005F00305012D08BF47F011079DF8265007F00200304308BF47F0800781
:2018800095B998F82F0078B107F0220022280BD007F04200422840F09F831298007806288F
:2018A00018BF072840F09883F8094FEAA71555D398F832001299BDF82A2080080AD2087869
:2018C000C01E01282CD9001F2AD0C01E28D0801E26D003E00878401E0A2821D9BAF1000FD2
:2018E0001ED1B8F83A00904240F076830D780520BDF82C408DF8110004A823F0B7F900281C
:2019000000F06A830269032313271370511C0F704C7022128A70CD70448007F069FD5BE32A
:2019200068081BD30878032802D148780D2815D09DF8280038B1BDF82C000E990BF068FF61
:20194000012800F045839DF8270038B1BDF82A000D990BF05DFF012800F03783B8F848005A
:20196000B4F84410884209D1CDF800A0208DB4F8421094F84620534610F00AFF9DF8260064
:20198000002847D0208DB4F8421021F0BBF99DF85190061C26D1B9F1000F12D198F890004D
:2019A000012839D112980078062801D1680833D2BDF82E104FF6FE70401C884240F0BB8026
:2019C0000AE3042023F0ABF8011C00F005836420087001274F70208D488098F800001EF0B5
:2019E00075FAF9E29DF821106068F5780A18537BAB4203D0F37050467060606840180421E4
:201A0000401C23F0A1FB7168814200F2E582401C706001E09DF8519098F832008008C0F049
:201A2000DB82B9F1000F24D0BDF82C0023F026FFD0B9A349A34CBDF82C000B6822699901A6
:201A4000A1EB83019047012840F0C6826169BDF82C008847A168BDF82C008847BCE2C04627
:201A60000A520020D05100206168487800F0DF0048709DF8320038B161688879401E8871C8
:201A8000C0B28DF8320008B907F07F07380924D39DF82500F9084FF4805A14D279091AD37A
:201AA000811011F0070F01F0070604D0072E1CBF761EF6B20EB907F07F0700F0E30040EA1F
:201AC0008600C0B205E020F01C00C11021F0030108438DF825006168087298F84A000428D9
:201AE00000F0FF81092800F0FC8117F0610F40F0EB809DF82200012811D1129800780528B5
:201B000000F0D68003280AD1BDF82A0023F0B6FE28B1218D08A815AA002300F0C1FE9DF876
:201B2000320068B99DF82200012804D112980078032800F0518208A821461DF069FA4BE2D9
:201B400023F07AFB002840F047829DF83D0000286DD19DF82400BDF82A10FD100028ADF822
:201B600054102ED13A0930D29DF82220012A28D0084600211AF0F8F9002620B14079012880
:201B800016D0022814D0BDF85400B4F8441021F0B9F828B1807822F0F5FF08B1082807DBE4
:201BA000BDF82C0023F06AFE18B104208DF824000126BDF82A10002E08BF022272D09DF82D
:201BC00024006A0838BF002300D340230DF13D021AF004FA30B1616808784AF0200A00F05C
:201BE0003F0008709DF83D0040B1BDF82A1010A81FF064FB4AF0400AADF854009DF8220022
:201C0000012806D0BDF82A00BDF82C10002216F0C3FE68082CBF40220022BDF82C10BDF887
:201C20002A0013F0B1FA08B14AF0200A33E09DF840009DF84110119A20F012FF00282ED0EF
:201C40009DF8410038B9BDF82A00ADF8540024F07AFD00BB1DE011999DF8286001EB4000AF
:201C600030F8020C002EADF854000CBF082010209DF827600EB10830C0B29DF82560002124
:201C800006B1012140186168401CC2B2505C401E50544AF0400A22F0F3FC8146A6E0BDF845
:201CA0002A100B22BDF82C00002319F08BFF93E1218D08A815AA002300F0F2FD8CE1C04620
:201CC000CC8302008453002078084FF0000967D39DF83300B4F828B0C14D49461690092002
:201CE000EA79169B934206D1BDF82C302A88934201D1AE782EB9401E05F1080501F1010158
:201D0000EED1092921D0AE79E6B1B8F84810584622F008F808B1761EAE71B2483321027936
:201D2000FF2A02D00288934504D0491E00F12400F5D102E0A879401EA871A8795228A4BFB8
:201D40004E46AE7127F060072AE022F099FC81469DF8320028B9BDF82C00218D814202D10D
:201D60001EE0BDF82C00B8F83A10884202D198F80500A8B1218D08A84A460EF0A7FF58B164
:201D8000380932BFBDF82A004FF6F870C01D4AF0040AADF8540003E027F020074FF00009FE
:201DA000B8094FEAA71510D394F8460094F8476094F948308DF81000E26B8DF8116004A9FB
:201DC0008DF8123008A803F041FF68080ED3218D08A815AA4B4600F063FD5FEA000905D0E3
:201DE00012980078012808BF4AF0100ABDF854104FF6FE70884208BF4FF000097A481B30CB
:201E0000007801282BD1618E4FF6F870C01D884225D0218D884222D0BDF82A204FF6F870D7
:201E2000401C90421BDDBDF82C00884217D024F08AFCA0B10179012918BF02290FD1012157
:201E40008DF810104088ADF81C0004A81DF088FC28B105A81DF08CFA08B122F003FA37F00F
:201E60007F0000F0B980B9F1000F00F0B580208917F0A6FD071C00F0AF806168228923F0C0
:201E800045FD002505959DF822008DF81000CDF80090CDF804A004AE0295BDF8541003963C
:201EA000228D237A384614F0F1F9B0B998F80100002800F091808DF81C908DF81E508DF89E
:201EC0001D50BDF82A00ADF81A00BDF82C70ADF8187006A823F076FE7EE038461FF06EFAF1
:201EE0007AE05946BDF82A000988814209D01FF005FA022805D09DF8250000F003000128FA
:201F00006AD19DF8220000284DD012980178042903D19DF83C10022940D00178072905D1CB
:201F20009DF83C2098F80000042A06D0032953D108A8002111F0CEFF4EE04FF480611CF0CF
:201F400007FF092088F84A0027484178022904BF0021817723F09EFC01460D9823F090FB22
:201F6000012839D1102022F0DAFD07460E991298401C8FB302223A704378027802EB0322C4
:201F80007A80807878704A201FF076FF9DF8260010B916490520087039461EE5002008A9A6
:201FA0000AF0F8FB18E094F8460094F8477094F948608DF81000E26B8DF8117004A98DF8D8
:201FC000126008A803F042FE06E0BDF82A0001E0BDF82C001DF0A4FD17B0BDE8F08FC04686
:201FE000381B002098220020D8550020605400206F4A2DE9F04FADF14C0D10780F91090C31
:2020000080F01F840F999046890B80F0F0830F99890980F025830F99490980F0A7820F982C
:20202000DFF898B1C00980F02E820F98000A06D31EF0AAF90F9880F0800000F021BC0F9851
:20204000DFF87091DFF870A1400A80F0B9800F98000B80F096800F9998F80300490B80F096
:2020600086804C460F99606AC90B6AD20F992078890838D20F98E188800A17D20F98000938
:2020800006D301200F9F88F8050087F00800F7E30F98C00A08D3B8F8480001211EF0D4FE74
:2020A0000F9880F48060EBE30020E9E3B8F84850A8F848105020A11D1FF0DEFEE6881E275F
:2020C00054466089854205D0864204D0204623F0A0FB00E066817F1E04F11C04F1D10F984F
:2020E00080F40070CCE340B301A824F030FB24F0FFF959460546032091F8228091F8236022
:202100008DF80D0003A822F0B1FD071C15D038690B2100F8011B00F8018B06700126BE7783
:2021200023F0B8FB78627D807E7701A838620023BE763846237007F05BF90F9880F00200FE
:202140009EE380B159461431097801290BD18047A06A00B1804798F800004FF480414FF442
:202160007A7224F034FB0F9880F4804088E320B1002088F803001EF001FE0F9880F480507E
:202180007EE31EF0FBFD5946087A01280BD1497A49B198F800004FF47A7212FB01F24FF4F3
:2021A000006124F014FB0F9880F4006068E3C046D051002084530020501F0020D8550020BB
:2021C00024F0A8F94FF6FE71814200F0588198F832008008C0F0538100252C46284621F026
:2021E000B5FF071C19D03879012816D0022814D0F879411CF97198F88B1081420DDABC7216
:202200007C72388821F080F8388801A922F07EF901A81DF0ADF822F025F86D1C332DDDDB69
:20222000AAF11C051E26129435F81C0F4FF6FE7181420DD0287B98F88B70411C874229735C
:2022400006DA20462746A87428886F7421F05CF8761EE9D14C46032104F1380010F8047FFB
:202260000FB17F1E0770491EF8D1B84E4FF6FE79332709F1010936F8240F81451FD0012003
:202280008DF804007588ADF8105001A81DF068FAA8B1AAF11C041E2534F81C0F3188814271
:2022A00008D0BDF80610814204D002A8A11C23F0E7F910B1204623F0ACFA6D1EECD17F1EC5
:2022C000D9D1129C1094204621F040FF58B1017931F0040107D1807A22F054FC18B11098FE
:2022E000401CC0B21090641C332CECDB22F042FB129D061C0ED02C46204621F029FD28B1E4
:20230000807C22F03FFC08B16D1CEDB2641CE4B2A642F1DC10984019C7B2002F40D0B80057
:2023200017F04EFB1190002808BF129F3AD0BA00FF2119F0B5F9129C25461098A84218DDD1
:20234000204621F003FF031C10D0187930F004000CD1987A22F016FC011C07D00097188812
:202360005A7A119B18F047F86D1CEDB2641C332CE3DBBEB1129C204621F0EAFC051C0AD05C
:20238000A87C22F0FFFB011C05D00097119B28886A7C18F030F8641CE4B2A642EBDC01E06C
:2023A0001298119098F83000002808BF4FF0620805D023F0F3FAC0F154005FFA80F80320AC
:2023C000B8F1600F98FBF0FAA8BF4FF01F0ADDF844904FF6FE7BABF1020BB8F1000F0EBF04
:2023E000129D2025DDF84880BA45A6BF3C1C45F040055446032014FB00F0801C8DF8050034
:2024000001A822F033FC4E46031C26D01869082104F01F02017045EA02014170801CA4B125
:202420002246C01E361F16F8041F00F8031F318809124170B17801F0070CF178521E01F03A
:20244000070141EA0C118170EDD1A3F802B001209876184606F0CCFF00E00120E90906D217
:20246000641EE4B20CB109EB84093F1BFFB205F040052843B1D0119808B11EF09FFF0F9820
:2024800080F48070FCE1B54C092500214FF00409A078002841D0401EC6B26079A67023F036
:2024A000B7F8071C38D06EB9787B022804BF0620787331D0062078733868407BF0211EF09E
:2024C000EBF929E0A6791EB9787B032812D023E026790EB3E078401EC6B2E670E6B998F803
:2024E0002500E0702079401EC6B22671787B032812D126B9204639461EF0C0FF0CE087F864
:202500000D9024F0E6F800F00F00401C388198F8000020211CF08AF801216D1E04F108040B
:20252000B6D198F80000012912D040211CF010FC594691F82900012814D1002081F82900DE
:2025400015F03EFD21F08EFE0CE0C0467422002040211EF013FF28B998F80000402164221D
:2025600024F035F90F9880F0400089E110211EF005FF30B998F8000010214FF47A7224F028
:2025800026F9C148DFF80483417808F5C674491ECFB217BB012141700020052122F016FDCD
:2025A000071C1BD006253846052122F00FFD0646388978B1401E80B2388158B97889C008C7
:2025C00002D3387B20F088FE7D733868407BF0211EF062F9371CE6D100E0477064274FF6A7
:2025E000FE7600252079A0B1FF2812D0401E2071C0B270B96079032805D160882188022236
:202600001BF002FA6079012803D0268066806571A5717F1E04F10804E4D108F1DC0408270B
:20262000207A401E2072C0B230B99948214620F0A3FF90B9668025707F1E04F10A04EFD197
:20264000944A0C2112F8080F08B1401E1070491EF8D10F9880F0100012E11DF0D9FDE4E7BF
:2026600020211EF08BFE28B9D8F81000002808BF012616D024F068FA044623F02DFF4FF483
:202680007A716043B0FBF1F1D8F81000002808BF002004D088428CBF4FF0FF30081A460869
:2026A00067D00020042122F091FC071C61D0FF244FF0FF3B06254FF0010A3846042122F0E5
:2026C00085FC10903889864204D8801B83B23B8113B14BE000203881BB7B012B02D17889EA
:2026E000C0083DD3002B36D08DF804408DF805408DF806B03968086AC97F02AA0FF0C2FF3C
:202700004FF00009012808BFD1465FEA09001DD0788A40F08000ADF83600B87B8DF83800AE
:202720007889000908D3BDF8360040F48070ADF83600387B8DF83A007B6913B1187BADF878
:20274000180001A9002202A803F080FA7D73387B18F0B4FC0AE087F80DA007E0381B0020B3
:202760007D733868407BB7211EF096F8109F002FA3D10CF0E3F998F800300020012122F05C
:2027800025FC18B1184620211BF050FF0020042122F01CFCB3B278B142460789147822F0A3
:2027A00015FCF8B9BB42AEBF0027FF1ABFB2204627B920211BF03AFF00200DE07A002021A9
:2027C00024F008F824F0C0F9044623F085FE4FF47A716043B0FBF1F0C8F810000F9880F0F4
:2027E00020004DE00289BA42D8BF171CD7E724F02BF8294C0546201D0068074698B157F8FC
:202800000C1C98F8000021B94FF400511BF098F803E04FF400511BF009FF20463946002266
:20282000001D20F071FB284624F08AF92FB13846FEF75EFF384622F059FA0F9880F40050FC
:202840001EE01BF0C5FE071C17D0144920310A78FF2A0FD03C780B460020944207D0401C3C
:20286000C0B2C200D1189A5CFF2AF6D102E0496838468847384622F039FA0F9880F4004057
:2028800013B0BDE8F08FC046746C0020A41A00208D0A0200C81B0020605C0020BC800200B7
:2028A0002DE9F04F064693460020ADF13C0DABF80000B06A099303460078884623F03FFC61
:2028C00048B1708904461EF019FD022804BFABF80040B36A01D0002009901878C84DDFF8A5
:2028E0002493401E0A2800F20B84DFE810F02F03B3020C049F028D0151010904BE0088007E
:2029000066000B00BD4C207D012840F0F9835B1CB06913F8015B1F7823F04DFF002800F0C6
:20292000F7830379002B00F0F383032B80F2F0830E2D1CDCDFB9D04907752DB901EB850145
:202940000A6BC261096B0AE001EB85010B6B9A01A2EB8302C2610A6B9101A1EB82018161D1
:20296000012180F8201021F07DFC002500E001250320B689A47F8DF8190006A822F076F986
:20298000071C00F0C58338690C2100F8011B00F8015B04700124BC7722F07CFF786204A9C6
:2029A000304621F0B3FD10B17C7704A838627E80BC76384606F01CFDAAE35C1C207820F07C
:2029C0001F0700F01F00012840F09A83641C04A8214623F023FF284604A95D3022F050FE7C
:2029E000002800F08D83002F40F08A830834A2786178207801EB02211FF0DEFD88E3688F21
:202A00007189884240F07C835C1C14F8016B04A8214623F003FF284604A95D3022F030FEC3
:202A200006F01F0726F01F06002800F07183002E40F06E83780016F0C3FF011C00F06883AC
:202A400067B184460834384663782278401E04F1020402EB03222CF8022BF5D1009105F05D
:202A60008CFE08461EF0AAFC52E35C789A1C34F07F0704F01F0E40F04B83377F03201EFB50
:202A800000F0801CC1B2B94240F04283002714F01F0F04BF4FF6FE7C614618D0D9789B7879
:202AA00070464D4603EB012C5378117812F802EF01EB03213EF0770340F02A832B888B424E
:202AC00008BF0EF00707521C401EEDD1BFB960464FF6FE72824212D004F06002602A0ED062
:202AE0004D462A88A30907D2E30902D2904203DD0EE3904203DD0BE39142C0F20983B089BF
:202B000023F021FE002836D1B0894FF6FF7121F009F9041C14D120F0DBF8041C00F0F882E1
:202B200000211C2218F0BCFDB0894D460E35208028886081AA23A3740222227401216174A0
:202B4000207C032805DB0220072F2074BCBF7F1CFFB2677400202073A01C22F0E6FA0028B7
:202B600040F0D682307A002800F0D282B169A01C23F054FECCE20021C171017A032905DBF4
:202B80000221072F0172BCBF7F1CFFB24772BFE2484671890088884240F0B282307F022831
:202BA00040F0AE82AA4C201D00884FF6FE71814240F0AE82162021F0B2FF071C00F0A882EE
:202BC00001213970B07900280CBF081C02207870B06A4078B872000902D2B0891FF05AFA6B
:202BE000B169B81C23F01AFE0020F874287839461DF06CF9B089A0808AE2C046D855002087
:202C0000D05100200A52002070891EF077FB002840F076825F78B94987B10C2F03F10203E9
:202C200080F276828C463D465A7818786D1E03F1020300EB02202CF8020BF5D1484675895F
:202C40000488DFF8D892AC4200F0B180B37C002B00F05E823B1C0A974FF0000811D0A74A5D
:202C600038464146921E32F8023F9C4206D0401E01F10101F7D104E0788302000A914FF0AB
:202C800001082846002119F06FF900280B907DD0407901287AD10B98807910F0180F75D0E6
:202CA0000B984188384622F0C1FC10B9B8F1010F6CD109F2AC404FF6FE754FF000080C9713
:202CC000B6F80CB008904FF0010A0D95C14611E0B8F1010F08BF4FF0010908D023F0F9FC65
:202CE000C0B290FBF8F101FB08F1A0EB01094FF00008C246089D1E271C3D35F81C4F4FF6F5
:202D0000FE70A04213D0A34511D00C98214622F08DFC60B96B7C53B1072B08DA08F10100FF
:202D2000BAF1000F5FFA80F801D1C14521DD7F1EE3D1B44D332735F8244F0D98A0421AD075
:202D4000A34518D00C98214622F070FC98B96B7A8BB1072B0FDA287901280CD002280AD0E3
:202D600008F10100BAF1000F5FFA80F803D1C14501DC0D9407E07F1EDDD1B8F1000F02D0BA
:202D8000B9F1000FA4D00D980B994880B37C5B4C581EB074F77C00970A9D01950294012285
:202DA0000392B189B269708915F068F8B0E1B4890C2F80F2AD818846ADF81040BD488DF8D5
:202DC00012700168CDF8148009B104A8884720461BF0B6FC0C2803D14FF6FE701BF0B0FCE5
:202DE0000C2880F2958109EBC00505F59675686808B11EF0E3FA2FB1780016F0E1FD6860E1
:202E000010B985E1002068606C80C3486F70007828706878002800F07B816868002800F0D9
:202E200077817A00414622F071FD71E1307F022840F06681099828B94D467189288888424E
:202E400040F066810998314609F0A4FC5FE1C04684530020B5F8481040461FF053FFA84693
:202E6000074608202FB17D781DB90221397007257D70B16A0A79CC788B794D7891F802A077
:202E8000CF7904EB02244A7902EB03296A0928BF1020AA0924BF0830C0B235F0700340F067
:202EA0003781327F904240F0338105F07005680938BF002006D306A8083123F0AFFC25F06E
:202EC00010050820A90907D3B16A091804A8083123F0A4FC25F020052046514620F080FD91
:202EE00008280DDA8D4B410001EBC001C9188879B84240F30D818F71002002E0C21A00205A
:202F00000420B8F83A10A14219D048B9B189484601222B460DF0A6FD28B1F9E0A41A00203A
:202F2000042840F0F58006A804AE009049463A46534601962046029510F006FEE8E0B1898E
:202F4000484601222B460DF08DFDE1E0B5F8481040461FF0D7FE4FF00609041C03D060787F
:202F6000002800F0CD80B06A817847780891C378017900F1050A03EB0120099040461CF092
:202F8000F1FF9AF8001009185FFA81FAB80928BF4FF00E0937F0780040F0B28007F018009C
:202FA000182800F0AD80307F814540F0A9804FF00009CDF800900899B0895246434619F045
:202FC00047F8032800F09C80002807F078074DD117F0180F18D195F8310028B1B089414651
:202FE00001223B460DF03EFD09984FF6FE714A463B460DF037FD002838D14FF6FF70ABF8D6
:20300000000039E07422002047F00107780928BF47F00207B089394618F0A6FF90B181795A
:2030200011F0180F0ED0417901290BD154B14088B5F848101FF066FE20B1437813B160785D
:2030400098425DDCB089414601223B460DF00AFD60B94FF6FF70347AABF80000002C0CBFE0
:203060004946B169B089524622F01CFABBF800104FF6FF70884243D1012000900899B089CE
:203080005246434618F0E4FF099839461EF09AFE698F81422ED1099823F055FB60B1007916
:2030A000012818BF022807D1099804A921F02EFA08E0C046A054002022F0ECFB014604A899
:2030C00023F0ACFB307A012803D1B16906A823F0A5FB06A8009004AF0197B06A407840F089
:2030E000300002900999089BB0894A4610F02CFD48460CE0B06A80F805A021F0C1FA06E074
:203100004FF00009F4E70999304610F0E3FE099009980FB0BDE8F08FF2550020801B002054
:203120002DE9F04FCB4CDFF83083CF4DDFF83CA30E46300CADF11C0D80F05882DFF81C93A0
:20314000700880F0FF81C74DB00880F0C381B00980F0AC81DFF808B3F00B80F04F81BC4860
:203160000768700980F02A81300928BF86F0080080F08783700A80F0BB80F00880F0AE8079
:203180002069F10980F09180300A63D2B00A5CD2C54C300B2BD2F00A27D3142016F010FC51
:2031A000071C1FD00025A846207A012813D1009704202946424614231EF08AFF58B920682A
:2031C00038606068294614223B46786004201FF0B3FD84F808806D1C0C34032DE4DB384674
:2031E0001EF0ECF886F480604BE3002049E3182016F0E6FB071C25D000252434A846207ACD
:20320000012813D1009706202946424618231EF05FFF58B9206838616068294618223B4622
:20322000786106201FF088FD84F808806D1C0C34032DE4DB38464146182218F031FA38464F
:203240001EF0BCF886F400601BE317F061FA86F4007016E31AF040F82078052819D1E07945
:2032600004211BF075FDE07904211AF069FB062022F0D0FB4046007800F00700022801D0CD
:2032800022F0FCFF20F0EEFF17F042FA20F000FC01E020F0E7FF012020F0AAFC03200121E2
:2032A00003F00AFF86F08000EBE2A0B115F000FF2069076820691EF081F827615FB1FA88D8
:2032C00002E0F888801AF8803F68002FF9D1E079402123F07FFA86F04000D2E2FF200321E7
:2032E0001FF066FA23F022F9C34901200860FEE74A4692F84A00082818BF04285BD124329E
:203300002120742123F0A2F9BC4D6868298800241BE0A30003EBC403C75C37F07F0212D07B
:2033200017F07F07C754034405D101A8FF210C2218F0B6F901AB012021460C221FF0FCFCB1
:20334000284629884068641CA4B2A142E1DCC04C4FF0FF085D460027E06995F82110802964
:203360001FD169798DF809102A798DF808206B88ADF806302888ADF8040085F82180297DA2
:203380008DF80C10EA798DF80B20AB798DF80A30A86904903946102201AB03201FF0CCFC9A
:2033A000E0697F1C2435332FD7DB00B18047002002211FF0FDF986F4807062E24FB179686D
:2033C000087818B14868007818F09EFF3F68002FF5D123F09FF81C34208022F05BFA5046A4
:2033E00008300078012806D14C4620784FF40061642223F0EFF986F0100042E201200221E0
:2034000020F090FEC4B29CB3E00016F0D9FA5FEA00082FD082464FF001095D463327287991
:20342000012818BF02280DD18DF804906888ADF8100001A81CF094F920B102A9504623F05F
:20344000EDF982467F1E05F12405E8D112E0C046445C002060540020846B0020D05100206D
:2034600098220020EC550020806B0020D85500204FF00008B8F1000F12D074B10F204FF63F
:20348000FC778DF80C001F25ADF8047001A922464346B648009513F04FFC40461DF08EFF2F
:2034A00086F48040EDE1C04690550020207A50B92078062802D1072022F0ACFA2878012815
:2034C00001D121F0B3FCE07910211BF0AFF886F02000D6E1207A00BB2178E07908291AD16E
:2034E00021F0C8FE092022F095FAB3480078052806D0072809D10720012103F0DDFD04E0B2
:20350000012020F03BFF19F0E7FE2878012816D121F08CFC13E010210FE022F0EFFFEF28DF
:2035200003DB002020F02AFF09E022F0E7FF1030C0B222F0F5FFE07901211BF077F886F050
:2035400002009EE1012022F065FA2879677800F007011220012918BF02293DD1E7B1032FAA
:203560001AD0012F38D1012936D10A2022F052FA4C4620784FF480611BF0EAFB502005A913
:2035800020F0ACFEBDF81400A4F84800BDF8140000211DF059FC26E022F038FE002818BF2B
:2035A000032F15D1022022F035FAB749E06809781CF04EF9A97909090ED270B9B34A517871
:2035C000491CC9B20429517004BFB149E16003E023F07FF810F00EFC28B1E07901214FF411
:2035E0007A7223F0F7F886F001004AE1DFF8A8A24FF0000B3CE1C0467C052043585C0020F5
:20360000A4484B4601681F78A64825784278781E00F00F81401E44D0183800F02381B9388B
:2036200000F01C812A3836D03F1F4D462AD0BF1E10D0BF1E40F01981012A18BF022A40F0E8
:203640001481287914F0BCFC20F00CFE0DE1C046705A0020012A40F008816F88002F40F046
:203660000481281D01A91FF047FD012840F0FD8022F050FFADF80C002D1D029501A814F00D
:20368000B7FFF2E0012A18BF022A40F0EE80484606F0F0F9E9E0002900F0E78048468847C3
:2036A000E3E0012A18BF022A40F0DF809AF820005746072818BF082805D1237A1BB901219C
:2036C00003F0FAFC2578032D78D00A2D11D0042D15D00D2D13D00E2D11D00C2D0FD0002D40
:2036E00000F0C38020F0D4F9E07910211AF09EFFBBE098F8000000F0070001285ED0257A71
:20370000607835BB84F80BB0584638711DF07AFBB8B1062022F07EF96348634D80792D1D2B
:20372000000904D34FF40040012114F003FB287800F00700022801D022F0A0FD20F0A8F910
:2037400093E0052022F066F942F2107021F05EFB8BE001281BD1E07A401CC0B20428E0721C
:2037600006DB4E48007801280FD010E0245500204B4800884FF6FF71814206D0032060706D
:20378000012767710425A57201E084F801B01FF00BFF1FF0AFF84448801D0078000903D38C
:2037A0004048007D012860D1607803285DD10820012114F0BFFA58E098560020257A002D60
:2037C00035D1E07910211AF031FF1DF01BFB38B320780A2809D198F8001001F007010229A9
:2037E00003D02F490822891C0A7003280CD120F04FF997F82000022806D1012020F0F8F903
:203800000220012103F058FC062022F003F998F8000000F00700022827D022F02FFD24E0FF
:20382000052022F0F7F801201DF028FF1DE05846FAE7022D19D1012A18BF022A15D122F052
:20384000C9FE10B113F08CFD78B122F0F3FE00280CBF584601201EF02DFB06E0484614F0C8
:203860007BF802E048460EF0C1FA484621F03EFAE0791AF0ADFE5FEA00097FF4C1AE86F419
:20388000004007B0BDE8F08FB9560020C056002000F8FF071858002078560020D0570020E5
:2038A00018520020D8550020806B00202DE9F04FB54CDFF8D8C294F8207088465FEAD80054
:2038C000ADF1140D80F092825FEA184006D3DFF804B34FF6FF7AAAF1010A59E160460078E1
:2038E0005FEA5831A0F1020080F03181B84DA91D09885FEA182280F0EA805FEA980180F036
:20390000D1805FEA183028BF88F4006080F055835FEAD81080F0A280E7685FEA98305DD268
:20392000A0695FEAD83138BF0020C0F04683A74928C96A4628C209881180676938B93846C0
:2039400022F038FAA061C0B997B90B2011E0017BFF2906D031F07F000FD101F07C010429A8
:203960000BDBE06940B9384622F024FAA06120B9002022F0DBFC2EE0A06160784FF48041A3
:2039800041F2883222F026FF94F82010A069082919D00188ADF80010017A8DF80810017B52
:2039A000491CC9B231F07F07017306D10188427A684621F05BFAA06909E0008800210A46F1
:2039C0001FF082F8F7E7017B41F040010173406922F0F0F9E06188F48040EEE2DFF8C0B2E4
:2039E00000264FF0030AB14687B96078012E04D04FF400511BF0ACF905E04FF400514FF443
:203A00007A7222F0E7FE88F40050D6E27D68287810B3F02820DC51464A466B461CF06AFC99
:203A2000D0B1029803889BB984F83E908DF80DA08DF80C9003AB0A20494652461DF08CFA5D
:203A4000DBF8001084F83E9031B12878884703E001880126491E01803F68C5E71CF044FECC
:203A600007462078BFB1401EC0B22070A0B160784FF480411DF082FC30B9606922F09AF982
:203A800010B938781AF028FC6078402143F6982222F0A0FE207810B90B2022F047FC88F04A
:203AA00040008AE2B0F1FF3F18BF00280CD168460021082217F0F4FD684614F0AFFC18B188
:203AC000607802211AF0B2FD88F0020075E2084600211CF0C1FD28460678FF24C6B14FF65D
:203AE000FF75001D00212B4610F8142F52080BD3C7884FB1BB4207D055B10289BF1ABAB227
:203B00009542C4BF0C1C151C761E01F10101EBD1FF2C19D02E49A00000EB041040181830E4
:203B20000189C088401A80B250B929484470FF200AF086FCFF2120460A461DF051FA002010
:203B40002349C88021F0C2F988F0800035E2B0F1FF3F18BF002814D13846401E0CD0801EBD
:203B60000FD194F8220002280BD1012084F8220000201DF083FD04E094F8211000201EF076
:203B800057FC88F4805018E278560020D955002060781AF01DFD051C08BF88F4004000F0C0
:203BA0000C822F78D32F00F0098194F82000B84212D00A2F40F0168194F83F002871A16A5D
:203BC000002900F00F81A81C88470BE18C7E02008C650020D0510020B94840787F1E00F019
:203BE0009680BF1E40F0FE80012818BF022840F0F980AF787FB37F1E40F0F4806F786078F8
:203C00001FB322F087FC4FF6FE720021824218BF0121081C04D15846408F1146814209D051
:203C200010465F46ADF8100004A9A7F83AA053201EF022F91FF0B8FC1EF05CFE5946002028
:203C400081F84A0016F06CFECCE0022140F6B83284F82210A7E06878002854D122F0EAFCE8
:203C600000210E4603460BF1080063621F460160002F44D1002B38D0002E1F4635D0B146F1
:203C8000C64820F090FF01280CD08D48408E4FF6FF7181420CD03988884209D01BE0C04616
:203CA000545A0020BD4807F10C0121F0E9FC90B1BBF83E003989884201D1824501D1FB789A
:203CC0004BB19BF836007979884209D17C48B979807B884204D038461EF02AFF761EF6B209
:203CE000BF69B9F10109CBD1636A226B002AA9D0184631469047206B002873D1A2E7BF69FB
:203D0000761CF6B2B4E700201EF0D4F86AE0012818BF022866D16F7894F845003FB194F8F5
:203D20004410491CC9B2884284F8441043DB94F82100401E04D0401E3AD0401E1ED051E0D3
:203D400022F064FA98B994F8460020B1E06A002848D0804746E0002102200F468DF8080063
:203D60000246ADF80070684621F0AAFB13E0012022F036FC014603F09FF933E0AB20002159
:203D80006A461CF00BF8CDF808D004208DF80C0002A80FF079FD60784FF480511AF0D8FF26
:203DA000607841F288324FF4805122F013FD19E01EF022FB16E001200021DCE7E88948F23E
:203DC0000101401A0BD0401E05D0801E0AD1284616F064FD06E0284613F008FF02E028467D
:203DE00015F0D2FC284620F081FFD1E66178381C09D0401E00F0DB80C01E00F0D180801ECF
:203E000000F0C080D7E094F83F00C10880F09F8081087AD20009C0F0CE80062084F82000FA
:203E200022F0D8FB00286CD01CF05EFC2569071C67D068684078800837D3387803210022DB
:203E40006B461CF057FA28B968684078410831D20E201BE002980188B52912DAB421018033
:203E600060784FF47A724FF4005122F0B3FC5448416829B10078FF2814BF3878FF208847B7
:203E8000256968684078400803D2092022F04EFA0AE0092003228DF80C0003AB00218DF84F
:203EA0000D200A201DF058F82569686840784108C0F0818043490E6826B9800821D37AE087
:203EC000D855002038781AF007FA002600B101260325301C02D00E2022F028FA0C20207078
:203EE0006078402143F6982222F074FC0A208DF80D5003AB00212A468DF80C001DF02CF807
:203F000059E00E2022F012FA55E0042294F8400084F8202040084ED394F84270002F3FD153
:203F200060460078012818BF022844D1012504F120000021E57017F0B3FB032084F82000FF
:203F400028461CF0ADFB284621F03CFC33E004F12000052594F84010057089080FD394F8E6
:203F6000421061B90121E1700422002117F098FB84F8205000201CF093FB0220E4E7284680
:203F8000002111E0002084F83E0084F8200032220846042122F01EFC0DE0C04674540020CB
:203FA00021F0B8FA0420012103F086F803E0012001461EF03DFA88F0040005B0BDE8F08FA2
:203FC000505A0020745A00202DE9F04FDFF814B3C34C01214FF0E047ADF12C0DDBF80400F1
:203FE0002569C06808931F400170C84807924FF0000101704FF0020000EA020008BF00282A
:2040000040F0F482DFF80893DFF8088311464FF480301E4600270840374008BF002832D1A0
:2040200000204FF4003110EA060701EA020108BF00290ED137464FF48001384001EA020181
:2040400008BF002900F0C6820020287119F07CFAC0E22871EB201EF09FFD4A4600204146D9
:2040600010700878862801D11EF018FE22F0ECFBE1690A68002313710968E16122F060FD1E
:2040800021F0F0FAA6E20020DBF80070287107F1B8000168DFF880A20F782FB951460F7802
:2040A00017B1D0F8940480471EF0DEFD812756469A4937709A4D0860FF232B702778A77098
:2040C0000021A1812069DBF80050007A4A460E46801E81B2D5F800011670C0890A918842C0
:2040E000C0F26C82E1690831096804F1180001600426A6810A98DBF80060657EA17EE37E35
:2041000004F11902C01E80B206F1B80C0A9005EB012051786081C1F30119DCF80010237129
:2041200009780692002908BFB9F1020F00F04682B9F1020F00F3428219B110F0070F00F0C1
:204140003D82667800F00705AD1E022D08BF002E00F0348231B141460978862902D1002D98
:2041600040F02C82001300F00200022864DA35435AD1DCF81C0090F88300022851D0E169C1
:204180000C31097805A801700527A78122F05CFB454606462878862840D1DBF8000040300D
:2041A00001680F6837B9D0F80C058047DBF80000006C07689DF9140022F086FB7877DBF8E2
:2041C0000000016C096800228A77006C9DF914100068C177304622F0B3FC2679678922F040
:2041E00033FB41460A7807F01007862A15D1BB4D05F11E031A88521C1A8087220A7022F0E6
:204200009FFCE879B04206D11FB9002018F058FB07E01B20FAE7E920F8E70646304622F0C7
:204220008FFC21F01FFACBE141460878862803D11EF034FDA77866788FB186B9012F00F0B9
:20424000BD816089022F03D110F0070F40F0B681032F05D100F00701032901D0AEE1608940
:20426000010980F0AB81011301F00201022902DA810A80F0A38106994978C1F38108B8F124
:20428000010F4FEAA111099100F09881012900F09581B9F1020F14DA00F00701012918BFAE
:2042A00003290ED1B8F1000F0BD1099F002F00F0858159460968AC3109680F78002F00F08E
:2042C0007D81BD49B9F1020F0ED0099E11F808708A5DB918CFB256B3C10928D3BF1E13E042
:2042E000B4690020140100200A46099908EB0207891809793A795218C109D7B212D2099945
:2043000058EA010613D0BF1CFFB210E0285C0020A66C0020A96C0020A46C0020886C0020A6
:20432000155D0020099958EA010608BF02270A9AC0F30020391A60718A42C0F23F81DBF864
:2043400000601146C91B091888B2D6F850122081743080B2884700286678606100F02E818B
:204360000021742217F09CF90020E07062891EB9C14902F020000870BF48617906784FF086
:20438000000C002E30D000292ED102F00700032808D0012828D1DBF80000D0F8D40090F8A6
:2043A00082600EB3DBF80400406906781EB121F04BFDFE2815D0DBF80000D0F84C02804779
:2043C00050B9DBF80000D0F84402804720B96289617994F803C007E00420E070628961791F
:2043E00001E00420E07084466569268905F1740305F17400AB65069B686093F801902E8106
:204400002089C9F3011A0029A5F85C001878AA8100F078004AEA00004CEA000028744FF092
:20442000FF06AE730CBF2079002085F83A8085F84900099885F83000A089002FA0EB0100A3
:2044400086B2A68100F0B580E169E78068463A468919083114F004FABF19B8B2A08128464B
:20446000017C4FEAA90212F0030F02F003076D4601F0400843D0BAF1020F4FF0000301D1FC
:20448000C9090BD29DF801209DF8001001EB0221A0F844100DF10205A0F84210804EB0F8B2
:2044A0004410B6F842208A4203D04FF6FF728A4223D1032F14D06A78297801EB022189B2A0
:2044C0004186B6F84020AD1C01208A4214D04FF6FF728A4218BF181C0EE0C046C0590020B3
:2044E00060692946323022F099F9606937363146323021F0C5F808350346002B56D006982C
:20450000407886111ED06169BAF1020F03D0087CC00903D309E058EA070306D16A78287854
:20452000AD1C00EB0220A1F84200032E05D068782A7802EB00220A8504E060692946283030
:2045400022F06CF959460968AC310A686089167886B1BAF1020F0DDA00F00702012A18BF39
:20456000032A0BD162692FB94E4BB2F842201B8893421BD100F00702032A05D0012A18D167
:20458000886A90F88200A0B1D1F89C116069884778B90020069FE070B97866697878C1F3D6
:2045A000011100F078000843307402E018F0CCFF06E00BF08FF903E0F08A020021F044F8C8
:2045C00022F042F9E1690A68002313710968E16122F0B6FA079A089F202100201140384044
:2045E00008BF002930D020F0F7FF2DE02E4991F90000002803DD91F90000401E08702B49DB
:2046000091F90000002803DD91F90000401E0870114600201E464FF080770840374008BF11
:2046200000280DD0224991F90000002803DD91F90000401E08701F480121017021F056FABD
:204640000020287118F080FF184A92F90000A8B1079B089F02214FF0E0401940384008BF71
:20466000002914D092F90000002810DCDBF80000D0F84C0580470AE0A66C0020DBF800707C
:204680000D480021D7F85824017008469047DBF80400C06800210BB00170BDE8F08FC0464D
:2046A00050570020925700202B5C00202A5C00202C5C0020295C0020265C00202DE9F04F99
:2046C000AE4C04F124000768ADF14C0D17B1002087F84500DFF8A0A2002517F148030BD049
:2046E000BF6DA44E73612FB950460068D0F84C05804773695868706022F0A6F8129008201C
:2047000011F03CFF18F034F8564610B182A022F013FA1AF0A1FB684621F00EFC0420694649
:204720008DF80000284621F0E1FDA06321F06EFB09A821F043FD042009A98DF8240028462B
:2047400021F044FD206321F06BFB0DA821F046FD04200DA98DF83400284621F047FD216B22
:20476000606319B974A022F0E7F9606B10B977A022F0E2F9A06B10B979A022F0DDF9306899
:20478000D0F8E00380473068D0F8180280473068D0F8F0028047DAF800002F460726A03009
:2047A00001687B5823B118468047DAF80000A030761E07F10407F3D1D0F8B8028047EB2073
:2047C00021F0AEFE606A2F4670B105A8FF21082216F066FF606A05A9082220F077FA04F142
:2047E0002406012818BF3768654A0CCA05A8391C80E80C0021D1082015F0E2F85FEA0008AB
:2048000056D0A8F10206032721F063FF06F8020F7F1E4FEA20207070F6D12020F82706F80B
:20482000020F4146082204F1400088F8077021F06DF840461CF0C2FD04E004F14000082280
:2048400021F064F80120082105AA21F0F9FE04F14006002818BF092826D11FF0A3FE800850
:204860001DD205A8FF21082216F01AFF07AFFF210822384616F014FF0120294608223B4661
:2048800021F0E6FB80B9384605A9082220F01EFA28B930463946082221F038F804E0012029
:2048A0000821324621F0D2FEE22031461DF0E4FA1FF078FE400834BF2E1C0126BC4F552061
:2048C000012107F1420221F0BBFE18B916B128461FF08EF92B4FE22007F144011FF0FEFC52
:2048E00030461AF0E9FE05A82946102216F0D8FEB84698F8010030F001004AD1224F05A93D
:204900001022384620F0E2F900283FD105A83946102220F0FBFF3CE052616E646F6D5F730D
:204920006565644175746F6D617469632829206661696C656400C04641455343434D206F8B
:2049400070656E206661696C656400C0414553454342206F70656E206661696C656400C015
:2049600054524E47206F70656E206661696C656400C046C05057002014010020C4290020D6
:204980006C860200D85500208883020005A81EF033FD6220102105AA21F052FE28B926B163
:2049A0006220102105AA21F051FE05A82946102216F076FE304610F0A9FA30461DF020FAB7
:2049C000304610F0B1FC1EB1284601211DF0F0FE202014F0F5FF0028E06300F03581A06A07
:2049E000E16A221D18F010FCDAF80010D1F84C138847E16B201D0860A06AE16A04F10802FB
:204A000018F002FC0CF092FAE16B04F108004860A06AE16A04F10C0218F0F6FBAF4F7870E0
:204A2000DE48B8F83060BD7008F13C01BE8021F0F5FE98F82500E16B04F10C0308F14C061B
:204A4000387004F110028B60A06AE16AFE6018F0DBFB04F12C0B04F12809A149A14E087088
:204A6000A14ABE60A14B7A62E06BBB6204F1100604F11402DBF80010C660D9F8000011926A
:204A800018F0C2FB9A4EF071022286F824204FF6FE70B08320F0FEFEC04996480560C048DC
:204AA00021F0BCFE9448FF21382216F0F9FD9348944B8360944AC260914941600570934B6E
:204AC0000361934A426195493961924B8361924AC261934B7B61934ABA619548924B934A71
:204AE000FB6195491061934FD16006F13000976010F04CFDAA4809272C307F1E40F8045BDF
:204B0000FBD1F07948F201011BF05EFDF0794FF400411BF059FDF07921211BF055FDF079FF
:204B200022211BF051FDE06B11990161D9F80000DBF8001004F1180218F066FB7F4E48F24F
:204B4000150130701BF040FD307838211BF03CFD7C4F0222F7607C4B86F8282078483361EB
:204B6000E16B70614FF6FE7704F1180304F11C02D9F800004B61DBF80010378418F044FBD9
:204B8000724AD580D5609570556101261574074615700748167148F20201477038461BF03F
:204BA00013FD48F2010138461BF00EFD02E0C04678560020384648F204011BF005FDE16B29
:204BC00004F11C008861D9F80000DBF8001004F1200218F019FB5E4B20705E49987028469E
:204BE00021F0E6FC5C49304621F0E2FC5B49042021F0DEFC5A49062021F0DAFC594907208C
:204C000021F0D6FC5849082021F0D2FC98784FF6FE71491C1BF0D8FC554F564B5348614977
:204C20007B60554A8862554BBA6008460F46544AC3623B46534887F84660534F1A63E36B42
:204C4000076004F12006DE6110F09DFA10F0C8F9129821F075FF0DF06BFA1FF01FFEDAF8AC
:204C60000000D0F8D40090F843001FF029FEDAF80000D0F8582429460120904721F0B6F95A
:204C80004248DAF804700570F868007830B9DAF80000D0F8582428460146904715F0E0FA8D
:204CA0003B48058145812B4603603B4A4360394807211FF09BFA14F0F7FD1DF0BFF81DF013
:204CC0009CFA98F80100022804D14FF40040012113F030F813B0BDE8F08FC046D0570020AA
:204CE000005C0020A9120100017A0100FD61020060540020C8560020001B0020705A002069
:204D0000A98C00000D4F0200A9D30100D72E02005D460200C12802000D4C0200B558010083
:204D2000554201001546020051980000885B0020B535010031AB0100BD2C01000C5800205C
:204D4000E1220200BD3A02008D4202008C650020385C002019610200DD600200F1600200B1
:204D6000056102002D5D0200455D0200E9FD0100505A0020FD110200B1F70100A91B02006B
:204D8000190B0200DC51002029090200A56C00203C6C0020EC000020D168020004580020B0
:204DA0007454002078560020964A2DE9F04FADF13C0D00240A918E2309900121101D017038
:204DC0008046D47240215171502593712046D0730021D171DFF830B21172A0219172908906
:204DE000917340F430509081204611681074C44CC2485572084084F832304CF210110143DD
:204E000000200C909BF80000116058B90C981AF053FC94F83200000910D30C9808A98DF840
:204E2000200008E094F83200000907D301200DF121018DF8210052201DF01EF810F0A3F9B1
:204E400020F0F4FDDFF8E4A20B90002840F0C7800EF090FD00280B9040F0B6800C9804F16D
:204E6000240674210D903246212021F0E9FB002857D10D9921207422334621F0E9F80028C8
:204E80004FD1608F4FF6FE7181424AD001200D9094F84A00082806D0042804D00EF004FCDA
:204EA0000C980D903DE0DDF8349042200DF122018DF822901CF0E0FF06F12F0143201CF0C0
:204EC000DBFF06F12C0147201CF0D6FF06F11C014A201CF0D1FF06F11A014B201CF0CCFFDE
:204EE00006F1240128461CF0C7FF06F1160153201CF0C2FF06F12D0154201CF0BDFF06F1B0
:204F00001801E1201CF0B8FF94F83200000938BFDDF8309052200DF122018DF822901CF08B
:204F2000ABFF0C9D18E00B9151E00C9AA80000EBC50029460C23814609EB0700009001204A
:204F40001DF0C6F830B917F80900FF2804BF002007F809006D1CADB2BAF80000DAF8047093
:204F6000A842E2DC0EF034F88948001D006800B180471DF06FFC0D98F0B121F0CBFAABF85A
:204F80001C0028B998F8000000F0F80088F80000C448401C0078022818BF012003D1002125
:204FA00084F84A1003208BF8010039360BF11400314621F033FC01E009200B900B9F734834
:204FC0000021002F4180AED0012770480B9794F83C10814601208840CBF80C0079E00EF012
:204FE000C9FC0EF061FB04F124022120742121F02DFB02A8FF210C2216F052FB0C9D5646D8
:205000000CE0C046806B002060540020294601200C2202AB1DF090FE6D1CADB23088A8422F
:20502000F4DC02A8FF21102216F03AFB0C9D03202946102202AB1DF07FFE6D1C332DF6DB0B
:205040005348006800B180471FF05CF9002006220C99ADF8100002A816F022FB142014F0CA
:20506000AFFC061C1BD0B0480C300768A7B103270225A8B202A90622801920F047FCAD1D49
:205080007F1EF6D104A93046022220F03FFC4C201421324621F0DAFA30461CF08FF91820DA
:2050A00014F08EFC071C10D00C9D1822294616F0F7FA0620294618223B461DF03DFE6D1CF5
:2050C000032DF6DB38461CF079F916F013FC2F4881460B98944D012868D1724E737804F1FA
:2050E00024072BB3012B0DD0022B13D198F8000000F0F80040F002000AE0C0460000FFFFF5
:20510000D051002098F8000000F0F80040F0010088F8000085481FF046FD002808BF0020F7
:205120000DD0042103208BF80A1008E0585C002098F8001001F0F80188F8001002208BF832
:20514000010021F0C6FA0999B36B00F07F000818CBF80C306430022180B20C90FF201DF07E
:2051600027FB4FF6FE706087461CE0870020A4F848601DF0D9FB0A9801280BD002A80021F4
:20518000082216F08DFA02A805E0C0469C5B0020845A002000201CF031FA212074213A4601
:2051A00021F054FA002002211DF002FBE8680B9C80B9122014F004FC0646002EEE606DD0D8
:2051C0004FF6FE70B61F0327411C26F8060F7F1E7180FAD1002C61D106AB4C200021022274
:2051E00020F036FF002852D1BDF8180000284ED004284CDA182014F0E3FB03274FF002082D
:2052000000244FF6FE7A0646EB681FFA88F14C2006221B1920F01CFF78BBE868015B8A45DB
:205220002BD056B30096201841880022182306201CF04EFF3069EA6800F2E9333361101941
:20524000418805F13402880000EBC100E9681350081973694188880000EBC1008018E9688E
:205260004360081941881822334606201DF064FD30460021182216F013FA7F1E04F10604DA
:2052800008F10608C0D116B130461CF097F8054B7120002108224C3320F0DAFE20F0B6FF46
:2052A00030B101E0D85500200120A8700027EF701F48C9F80C001F48C9F810001EF0F6FEB2
:2052C0001E481D490860DBF8100050B10BF11004076820681CF072F838460028CBF81000C0
:2052E000F6D109984FF6FF71814217D0012000278BF800000BF1090201468BF8097085202D
:2053000021F09EF90BF1090428B9852039460122234620F09DFE0C9820F09AF81FF0C2F990
:205320000B980FB0BDE8F08F805500200458002011E70000CD620200F8590020296B010047
:205340002DE9FC47D44C0F460546F80B80F006826078DFF85883B90F80F0AA81B90880F01B
:205360009D81F90A80F00281390B80F0CC80380907D2F80FC0F0288227F0804717F08EFC2F
:2053800022E221F061FA81461FF000FD002800F0B480082021F000F9002840F0AE80802026
:2053A00021F0FAF8002840F0A880684613F0DAFB012803D10098002800F09F8094F8410249
:2053C000002840F09A8000250126E8B220F0A0FD48B1837A3BB1867290F9090006FA00F06C
:2053E000C0B21DF009FB6D1C032DEED3032084F8200004F5CC7021F023FA484621F0A0FB54
:20540000D34800252A460168056050F8081CD14940F8085C04F15C001FF008FC404600689A
:20542000006B8047A168401A010BA06AC1F1FF3282422CBF08444FF0FF30A06294F82C00BB
:2054400020B12069A16AB1EBC02F25D91FF0AEFC294600B13146081C1BD0BF4840F60901B8
:2054600001804580417B06F00F0221F00F010A434273017B05F00F0321F00F0143EA01022C
:2054800002732946416020F009FF418811F4406FFBD084F82C60A5621AF09AFFCE482946F0
:2054A000056002201FF058F902201DF0E5FE112010F00CFD207818B96068483021F0D8F92E
:2054C000C648007810B90E2010F000FD94F82D0020B184F82D5005201DF0CEFEC048606207
:2054E00084F82050B4F9B000B4F9B210884214BF0220072015F046F802E0484621F020FB2F
:2055000027F008073AE720B104201DF0B5FE0020607065681CF0C8FE38B12846ED696FF4F0
:20552000807100224FF00073A847E06858B140460068006B8047E2686168801AC860000B66
:20554000C8600026E660A74904F15C0000221FF06DFB0221D4F89C0084F8201018B104F1E8
:20556000DC0021F08DF927F4006707E721F06CF906461FF00BFCD4F894100028894600F019
:205580008480002900F081809749042504F15C00002284F820501FF049FB304621F0D0FAE1
:2055A00004F5CC7021F04CF940460068006B8047E0604FF0010884F8018028461DF074FECE
:2055C000D9F810006060D9F81000416AC90803D3036A294600229847404618F0EDFD6068DA
:2055E00080F81580606810F0AFFE6568D5F808A040F60A02D01F564600F1010C00E01E46D8
:20560000736833B119888A4203D0884218BF8C45F5D100217160727B08F00F0322F00F0247
:2056200013437373D9F80C201288904224D06046904221D02B8E03B3696305F13002518034
:2056400095F83C0001F00F0320F00F00034385F83C3095F83D0008F00F0320F00F000343F7
:2056600085F83D307260707B01F00F0520F00F0045EA0001717300E0E160504620F00EFE78
:20568000514640461FF068F802E0304621F058FA27F4806798E0C046A848002009F0C6FF75
:2056A000D4F89C0008B927F002078DE08C0100104E4A116841F08001116020B104201DF061
:2056C000DBFD0020607021F0BFF88246D8F85400016804208847D0B1287DC0B1A068B0B1F2
:2056E0008146D8F800002E69006B8047A0EB09002861000B2861B04202D280194008286169
:2057000040F6C41181422CBFB0F5967F2961504621F016FA1CF0C8FD80B1EE6928466FF4AB
:20572000807100224FF00073B047D4F89400002808BF47F0020701D017F0B0FA2846AD6918
:2057400000214FF080630A46A84727F000573BE014100440E5E60100946B002021F074F86E
:20576000D4F8AC6066B306F1280106C90A234FF0E0450B40154008BF002B21D106F1280114
:2057800091E8000306F1280595E8060006F1280322EA090221EA080183E8060021F0D0F94E
:2057A000B16879B1B9F1000F08BFB8F1000F09D03069B6F93010B5684B464246A84701E007
:2057C00021F0BEF927F4804727B104F1DC00394621F056F8BDE8FC8700000460868A0200FA
:2057E00099370100CD2E01006D4D0200CC2108402DE9F04F7748794A0178774811707A4C95
:20580000417077495C30E061ADF11C0D086001F04FFF7449891C03917249091D04917149B6
:20582000891D05916F49002501264FF029084FF0020B0E310691E0684FF0FF3121F078F95D
:205840000028F8D0207818F0C3FE071C00F0D88039782078923932D0333904D0491F26D0D8
:20586000491E20D02EE03B79F81C5B1E05D05B1E28D1FB7833BBA06A03E00378A16A3BB973
:2058800008461FF02AF9A06A64211CF0C8FF19E008461CF0A7F9A06A4FF4FA714FF6FF72C5
:2058A00019F066FC0EE0CD212A46032304E08DF80850C12102AA082318F004FA02E0381D54
:2058C00012F08AFA3878B146712822DC71284ED0652810DC652862D0801F73D0423800F0C9
:2058E000858018386BD0401E66D0401E01287DD9801E57D06CE066384DD0801E47D0801E88
:20590000032873D9001F3ED0401E38D0401E32D05EE091280FDC912868D07238022865D938
:20592000C01E20D0401E1AD0401E5FD0C01E5DD0801E5BD04CE092380DD0C01E012855D9E8
:205940003038062852D91B3850D0801E01284DD909384BD03CE0FB6A002B47D034E0BB68D0
:20596000002B43D030E07B69002B3FD02CE0FB68002B3BD028E0FB68002B37D024E0FB6812
:20598000002B33D020E0FB68002B2FD01CE0FB68002B2BD018E0FB68002B27D014E0FB68F3
:2059A00023B311E0BA46DAF8140008B11BF006FDDAF81C30D3B107E07B69BBB104E07B69D2
:2059C000A3B101E0BB688BB118461BF0F7FC0DE0A9460EE0C4290020B4360020AC6C0020BE
:2059E00000530020745200201C43002038461FF07DF9B9F1010F03D017B138461FF076F97B
:205A00002169880825D3276AA068B8420BD189480078012818BF022805D10A208DF8080005
:205A200002A820F0B1FA6068B8420CD158461CF037FD2F4600B937465846394615F036FD84
:205A4000584617F06FFA21692846206221F002012161080924BF21F008012161606A8A093B
:205A600021D364211CF0DBFE584617F05BFA032017F058FA042017F055FA052017F052FA60
:205A8000062017F04FFA60694EF6602120F06FFE6A4820F0F7FE606A1CF0A4F82169606A08
:205AA00021F020012161CA0953D364211CF0B7FE5E48614F5D4B806840F3100297F9001028
:205AC0001868A0F5407041430811594964274FF44853121A07FB023000128881082020F0A6
:205AE00015FF071C1CD03E70574887F80380A7F801507860A4F8585084F86160607884F897
:205B000060B0401CC0B26070294600914C4940F202423B46401EC0B20190304610F052FF23
:205B2000384620F034FEA06947F2305120F01FFE444820F0A7FEE06A20F0E4FDA5702846B6
:205B40001CF012FA606A1CF04DF8216921F040012161080AFFF46FAE606A64211CF05FFEDA
:205B6000162020F0D3FE071C2FD00320387040F20553A7F8013087F80A8087F81180039A11
:205B80007A602F4987F803804FF4A1633B81049AC7F80B2040F20B53A7F80F30059AC7F85A
:205BA00012203B4684F860B040F60432A4F85850607884F86160401CC0B26070401E009550
:205BC000C0B20190304610F0FDFE384620F0DFFD082020F09BFE071C1CD03E702520F870AC
:205BE000A7F80150069B7B60A4F8585084F86160607884F860B0401CC0B2607029460091B6
:205C00000F4940F202723B46401EC0B20190304610F0D8FE384620F0BAFD606A1BF0E2FF5D
:205C2000206920F08000206105E6C0462850094068520020D95500200C130050FC43002022
:205C40007443002020440020745200202DE9F04FADF1840D1B91CB491C923CC9064610A808
:205C60003CC00EC980E80E0000248DF84240317F8DF84340B28D8DF84D40D6F828C0ADF84C
:205C800044400F46ADF85A20F2898DF854706046ADF84A20027802F00303022B8DF840200F
:205CA00000F3C38123461D93401C1F9353083CD202F00C0EBEF10C0F0CD053093CBF10F80C
:205CC000013B8DF84230BEF1080F04BF01238DF84C3001D08DF84C40BEF10C0F0AD0737971
:205CE00003F00303012B0CD142F00C0273898DF8402004E045780378801C03EB0523ADF80E
:205D00004430530911D245780378801C03EB0523ADF8463003784578801C03EB0523ADF83C
:205D2000483010F8013B8DF8433010F8013B32F07F058DF855301ED0037833F003058DF8A2
:205D4000413040F06E8103F0030EBEF1030F00F0688113F0030F00F101000ED010F8013BEC
:205D600002F00305022D8DF8573004BF10F8013B8DF8583001E08DF841401490A0EB0C00B8
:205D80003F1AFFB2B942C0F24C81C91B8DF85470C8B28DF84D00074300F04781D00907D351
:205DA00070891BF0ABFA002840F03F819DF8402002F00C002146001F08BF01211E91910977
:205DC00033D301211F9180B3B28920F0A3FB904202D1F08D000A0ED220F09CFB904222D058
:205DE000F08D01460B0A38BF101C07D39DF8402002F0030C2EE07089ADF85A20804620F0DB
:205E000089FBBDF85A10884205D0404619F006FA002800F00A818648026810A940469047C0
:205E2000002840F002819DF84020F08D02F0030C01460B0A0ED2D3090CD39DF8413013F014
:205E4000030F07D102F00C030C2B03D0082B1CBF01231D93DFF8E081BCF1020F00F0C28043
:205E6000BCF1010F00F0908012F0030F40F0DD80704A92F82F20012A03D1B779002F00F0E3
:205E8000D4809DF8542002231A92040A9DF84250BDF846B0BDF848A09DF855E09DF857C0E1
:205EA000DDF850908DF86430B2899DF84370ADF85C2034D21E9F40461B30046897B91D9F64
:205EC0001FB1104610A913F0ADFA1F9800901C9F0197B07C1B9A0290F37C17A910A810F045
:205EE000CBFDA2E0307C002C8DF8560000F09D8020F010FBBDF85C20904240F0968030798B
:205F00001F9F00901C9D01971B9A02951D9B039196F8300010A9049017A8A04785E0ADF88F
:205F200030008DF820308DF8227034798DF833407189ADF818108DF835E08DF82350ADF8A2
:205F400026B0ADF828A0CDF82C90307C8DF836C0B27C8DF8320096F830308DF83420354C29
:205F60008DF83730B4F8481096F83270ADF824101A998DF8387006A8ADF82A1005F0D8F8F6
:205F800053E0C046208802001D9FB58937B1000A04D2284610A913F045FAB5899DF85400CC
:205FA000B6791030C0B21EF0BAFD071C3DD07D81022038703E737C709DF854203A7207F1F9
:205FC00010057D609DF84000800928BF01247C72149978681FF09AFC40460078394619F0BF
:205FE00075FF22E09DF8417040462330B189036817F0030F10D110A807901048ADF81810F9
:2060000006A91DF0B9FA80B1062141730068407B21461AF041FC08E03BB110A82246984761
:2060200003E08DF84D408DF8544021B0BDE8F08FF4590020D0510020D1570020FFFC01006B
:206040002DE9F04FD24CDFF84C93DFF84C83080CADF1140D019180F0D4810846400838BFBA
:206060000020C0F0D881676820F06EFD054620F033FA4FF47A764FF6FF726843B0FBF6F000
:2060800081B267B13B887888CB1A9BB2984210DDC01A8242C8BF82B2FF68002FF2D14FF602
:2060A000FF70904200F095802078012120F092FB8FE0B87902287FD020F046FD054620F07C
:2060C0000BFA97F838204946684301F10A03B0FBF6F038801878904266DD97F83600FF28C1
:2060E00008D197F83800401C87F8380097F8370087F8360097F8356097F839300020012114
:2061000001E0401CC0B283420FDD97F8365001FA00F285F0FF052A42F3D03618814097F8D7
:206120003600F6B2014387F8361097F83400B98F10FB06F2891A89B28842C7BFFF2087F89E
:206140003600011C97F8360099F82420FF2818BF97F83A0006D140460078642510FB02F22E
:2061600012FB05F0788046B9388D3E7A40F020003885386C87F82E600BE03A8D4FF6DF70A5
:20618000104038853D6C87F82E6097F8342012FB06507862F879CEB287F82D0007F1100077
:2061A0007E8404F0C5FF10E0B87E97F82A10FA8BE9231CF0CDF805E0387CFF2802D0B86921
:2061C0001EF094FD38461CF07FFF2078012118F02DFA019880F001001DE12878012840F02E
:2061E0000D8195F8338095F813A06F6995F83100698802221DF09CFB05F11C0405F1020B29
:2062000006460020002E02907BD1687F400876D3A87FCDF80CA020F079F8BA4605F1100966
:20622000071C60D01C2013F0CBFB061C59D000211C2215F035FAA87F69461EF092FC9DF821
:2062400001000221307530461DF008FF6888317DB08095F83100FF22F07102FA01F070740C
:2062600078680078307495F83000B07495F8331011FB00F0303080B21EF051FC0746B76123
:2062800027B930461CF020FF00262AE01A20387000237B701A467A80E0885946B880B81DEF
:2062A0001EF004FEE0783C4BF87303F1200000883882608BB88560897882A0783875207BC3
:2062C000787599F80000B87599F80100F87599F902003876039A7A76C7F81CA007F13001A1
:2062E000B962304600E000200028064600F08680274886F808800078012118F097F9002ECE
:206300007CD0307AA8EB0000B0F1FF3F04BF01200290307CFF285CD06078400828BF4FF05A
:206320000008317DF07C4018404503DCF074FF2088407074B069B17C227D806A08FB01007D
:2063400021691FF0E3FA029F317D727C012398FBF1F04843A8EB000003FA00F11143C9B217
:206360007174DFB1401CFF2202FA00F001437174B769B17C207D08FB0100B884707CFF28D9
:206380000CD1307CB16919F0A1FDFF20307420E0005C0020D8550020F851002020F0D4FBDF
:2063A000074620F099F81D4B1D4A4FF47A717843B0FBF1F0308093F8241010781F4610FB44
:2063C00001F1B87A6423401C10FB01F010FB03F07080F17C327DA8EB0100801AB0F1FF3FA3
:2063E00004D0707CFF2801D0029F3FB1E175707C2076BBF80000214613F014F828461EF0D7
:2064000075FC0848007818F0E3F8051C7FF4E5AE019880F4004005B0BDE8F08FD8550020C6
:20642000F8510020005C00202DE9F04FAF4CDFF8C082DFF8C0B2ADF1340D60780591090C63
:206440006ED20598400824BF059880F0010080F081810598800805D30120059FE07087F02B
:20646000020077E10598000938BF0020C0F0728158463230E76A00780026B146000922D27F
:2064800020F062FB054620F027F8236B4FF47A7142466843B0FBF1FC92F82610928EACEB17
:2064A0000300824238D8B0FBF2F39BB29942ACBFDDB20D1CB0FBF2F15143401A80B2ACEBE5
:2064C0000000206300E00125EFB1C846F878A8420ADD401BC0B2F87040B109F101061FFA04
:2064E00086F93E467F680CE087F803807868002E82460CBFC4F82CA0706038461AF05EFFE6
:206500005746002FE2D16078B9F1000F04D100212163082118F01CFC059880F0080019E199
:2065200018F056F8071C00F01281B87FC0B9788CE56A132815D1B7F80290281C11D00026AF
:206540000188894508D14568002E0CBFE56275601AF034FF284601E0064640680028EFD1E1
:20656000E56AB87A97F831102E46022855D1788866B1DFF8E8C13288904204D1B2789CF850
:206580000030914247D07668002EF4D181468A464646002D08BF002004D0012015B16B684B
:2065A000002B34D1F18E814237DD082013F008FA96F82610002830D0A0F8009080F802A0FA
:2065C000C17000234360E36A83B9E0629BF83200000911D220F0B8FA05461FF07DFF4FF46D
:2065E0007A716843B0FBF1F0206300E06860584690F83200000910D3607808211AF0BEFE43
:2066000058B96078B28E082120F0E1F805E0401C1D4680B2C2E7F37096E051480568387831
:20662000012806D0022840F08F80384617F0C0F88AE007F11004B81CBE8908943B7E069039
:20664000FA7C07967969099397F819B00A923C7F0B9107F11C0604F00C000C280DD0B87FFC
:206660004FF0FE09FF2804D01FF050FE041C10D16AE0002D68D06C680FE0B088FE211BF0A7
:2066800083FE8146B9F1FE0F5ED01FF03FFE041C5AD020781EF030FF05464FF6FF7A0BE06E
:2066A00020781EF029FF054606E0B078FF284BD12D68002D48D06C68002C45D0AB68AAF1D3
:2066C000010823B9A3680BB1B3F8028007E021780220984718B1B0F800801AF06FFE33893C
:2066E000227898450AD03AB943B11CE0D0570020D8550020D05100209A4514D196F80280BD
:20670000B27008980090099B01930A9902910B9A0392CDF810B0079B069A3046214611F0DA
:2067200013FA86F80280307800F00C000C28BCD1B08849461BF028FE8146B9F1FE0F03D09E
:206740001FF0E4FD041CABD138461EF0CFFA059880F400400DB0BDE8F08FC046FE550020AD
:20676000445C00202DE9F04FC64D20F03100ADF1340D0B9095F83F00002840F0648168784D
:2067800004211AF0FBFD002840F05D81AF780B9895F83F10012F00F03F0040EA010085F8EF
:2067A0003F0000F0D3800120A8701FF03FF9012805D156201DF0E2FA08B11FF0B2FFB24C02
:2067C00000202071E06808B11EF0B2FEAF4847680023A24680467FB10C24786800781EF00C
:2067E0006BFF061C05D0327C1AB10020824200F31F813F68002FF0D118461DF0D3FD00284E
:2068000059D1D8F80470002F55D0786800781EF053FF061C4CD0337C002B49D04FF0000886
:2068200044E074690C2018FB00F94C44E079C00838D3786800788DF814002088ADF816000F
:20684000A088ADF81800079A089B069905981AF035FFB0B90DF1240B00210422584614F016
:206860001FFF74694FF6FF700090CDF804B00A23029302460392CDF810B034F809104C4467
:206880000AE002681189D388009102F10A00019002930391049021887868A288007814F0A4
:2068A0004DFB337C08F101005FFA80F84345B8DC3F68002FA9D19AF80200DAF80C201624DE
:2068C00010FB04F081B256201FF0BAFE0AF10C060A282BD0092825D01EF02AFE56201DF030
:2068E0004DFAB0FBF4F0C7B238461DF05BFD01281CD0336814FB07F082B2002156201FF0D6
:20690000A7FB8AF802700DE041680468CAF814101AF054FD9AF81000401E8AF810002046A6
:206920001AF04CFDDAF814000028EDD106F03CFC1EF0FEFD05F142035520002101221E46A9
