:20000000003A012021F0010039FB021039FB021039FB021039FB021039FB021039FB0210CF
:1C00200039FB021039FB021039FB021039FB021039FB021039FB021011FB021002
:200040002DE9F04FB04EAF4C05460121ADF1540DAF78327894F842000E91297843293CDC83
:20006000432900F0018728291EDC282901F01180002901F0D382891E01F0BD82491E01F0E0
:200080002583491E01F01E83C91E01F0A982491E01F05282491E01F04582DFF8E4C2C91F0C
:2000A000122949D901F0CABA2A3900F0E187491E00F0D787DFF8C4C2491E00F070870E390C
:2000C00000F01087491E01F0E882491E01F0E182491F00F0DA8601F0B1BACE2919DCCE2925
:2000E00000F0A283453900F09D86491F00F08086491E00F06786491E00F05A86491E00F02A
:200100004C86533924292CD92D3901F0998201F095BAD73900F0F881491E00F0C68013391B
:2001200000F09880AD4A0E397CD0491E46D0491E3ED0491E01F082BADFE811F0EA09AA0939
:200140008C09800ABF0A74096509800A43092209800AED08BE08800ABB0AB80AB30A91081F
:20016000BC07DFE811F0920A8E0A8A0A1306860A820A7E0A0E06770AF105B4058305580546
:200180004705370527051B0511050805720AFF04E504BD0483045F045204DF03D303C8037C
:2001A0006B0A6B0A6B0A9D037D036B0A6B0A6B036868002801F07C8000F0ECBD68680028F2
:2001C00001F076801146097831F0010140F0E2850488466802208DF820003146ADF8224027
:2001E00009A826F0D6F908A812F040FD012815D14FF6FE70A0420BD0304625F04CF828B94B
:20020000002120460A4622F0EBFC08E0002006E0002130460A461EF0BBF800E00E980F954E
:20022000139038E1696891B11046007830F0010040F0B085084600218DF8201009900221BB
:2002400008A88DF821101AF041FD01F001B90F9501F02EB86868007878B9002024F07EFAA5
:2002600023F008FC0E980DA98DF83400522021F08FFE24F091FE01F02DBA4FF6FF7024F0FF
:200280006DFA30784FF480711EF0EEFD30784FF480711DF0E1FB00200DF135018DF835004F
:2002A000522021F075FE01F015BA68680F95002800F0FE8700681090807E24F039FB061C07
:2002C00000F0AF821098C76900252C464FF003093878A04200F300810F2410FB04F0401CAF
:2002E000C0B2401919F0F8FB5FEA000800F0978220F09CFE002840F0ED800025139588F821
:2003000000504EE0B0560020A05200201099032315FB03F6BA1991F81AA0B1F80C9052881A
:200320000F2015FB00845046494622F0D5F8BA195288834608AB504620F068F8641CBBF19B
:20034000FF0F1FD0F0B1A7489DF827300168D80838BF8C2017D39DF826001623207103FBCB
:200360000B10C18800F10E02A4F805100189C4F80B201398A4F8071005E0C0465C550020DC
:20038000585D002086202070B8194078BB1960705888608098F800006D1CEDB2401C88F8D1
:2003A00000003878A842B1DC1098817E474600F10E064FF00F0985893A78109190F80AA0F3
:2003C0001196139912950C468A4266DC204626F051FB061C5AD0139D024640E01156002010
:2003E00015FB09F0391838184078491C02F8010B487802F8010B887802F8010B4888001282
:2004000002F8010B0B7843BB4B78F3B9087902F8010B487902F8010BB1F80500001202F8DE
:20042000010BC87902F8010BB1F80700001202F8010B0879834625F0B0FA70B1D1F80B1093
:20044000584614F00DFA024607E0487A02F8010BB1F80900001202F8010B6D1CEDB238785A
:20046000A842BDDC139900910E98019002900391CDF810A00594129A06961098079111991F
:2004800009230DF03BF9304626F035FA384621F021F825F003F91398C4E111FB09F3F81823
:2004A000FB185E78241DA4B2401C86B9467866B90079834625F071FA641DA4B238B1584624
:2004C00019F0F4FC001984B201E0A41CA4B2491CC9B279E74046A0E114FB097210993078BB
:2004E0005288898908AB1FF091FF50B19DF82600014625F052FA20B1084619F0D7FC2D181A
:20050000EDB2641CE4B2E3E668680F95002800F0CF8600681090807E24F00AFA002800F046
:2005200080811098D0F81C8098F80000002800F078818000401C19F0CFFA0028119000F0A6
:200540006E8125F09FFF20F071FD002840F0648100261396129698F80000B04200F3E480EE
:200560001398012840F08C80CC4DA878EA68162111FB00F081B2562026F016F905F10C06D7
:2005800040B9A8783268162111FB00F081B2562026F010F9607880211EF066FC2F78B80065
:2005A00019F09AFAB8465FEA000B69D02E78B8F1000F0CD005F11800594642784A704288EE
:2005C00010F8144B4A807F1E01F8044BF5D1002E3CD037464FF000094FF0140AA6B305F194
:2005E000180411E0D8650020002808BF4E4607D041680668216120F06DFF207B401E207396
:20060000304620F067FF2E7820690028ECD1761EF6B216FB0AF2A0184188618041786170A5
:20062000C188E1808188A18001890C30218109C804F10C0181E80900105D2070A318C3F8C6
:20064000109083F80C902E707F1EC7D10CF0ECFDB8F1000F11D018355C4647466078618855
:2006600022F0D8FAFF2804D02678810001EB00116E547F1E04F10404F0D1584620F02AFF8B
:2006800012981199087018B9002048700E9F0F70109890F81AA00C4600F10E098689857A67
:2006A0002078042110FB01F0804626F0E3F9071C1ED0014600202278824222DC012A03D1F6
:2006C00064780CB9DDF83880002000900E9901910291039004953246CDF8148007230697AC
:2006E0004946079050460DF009F8384626F003F9119820F0EFFE24F0D1FF22F039FF0020BC
:2007000090E08200A3185B780B70A3189B784B70A318DB78A2188B70B2F80320401CC0B2F7
:200720001212CA70091DC6E7109B9F890E2016FB00856D1C93F81AA0B5F8019039465046D0
:200740004A4621F0C9FE834608AB50461FF05EFEBBF1FF0F48D0002846D02F78002F58D1A5
:200760009DF82600E97888423CD19DF82700C00836D3BD480168A8884FF6FF72824201D10F
:20078000EF88B7B1162202FB0B17F880E8883881E87825F002F900B30E3700210422384655
:2007A0001BF00AF8E87819F081FBD5F80A10024610E0162000FB0B156889E880A889042227
:2007C00005F10E070021288138461AF0F5FF042205F11201384625F041F90E98139018E08B
:2007E0008C2002E08D2000E08720129BDDF844C099000CEB0102507028780CEB01075B1C48
:20080000B8700CEB0102DFB21297B5F80110A2F80310761CF6B29EE6119820F05BFE102011
:2008200000E002200F9DB6E26868002800F040856868006822F008FA00F00ABEAF68002F7B
:2008400000F0368500246C7040B12046014604F0ABFA002808BF201C00F0B8810E98B5E126
:200860006868002800F02485002069686870097861B984F8460094F82100401E84F8210019
:200880000E98014621F060FE00F024BF25F05CFF0E98014606F0CCFD00F01CBFCC650020F1
:2008A0006868002800F00485067847680021082208A81AF081FFE7B1CD4800210170AEB177
:2008C000761E0ED0761E0AD0761E03D0761E10D10E990170384608A916F0A0F8C2E20E992C
:2008E0000170384608A920F0E5FBBBE21FF06CFAB8E20220B6E26868002800F0D9846868ED
:2009000000F1120120F0D6FB00F0A2BD6868002800F0CE846A6810785188928814F0BEF961
:2009200000F096BD6868002800F0C28490F8009046888188B0F806B0B0F808A00A301090CF
:20094000C94807790F91002F00F03D81C5490F68002F00F0AD8480467868007881454FD1B0
:2009600024F060FF00284BD0037C002B48D04469002C45D000200C22834240F3998410FBA3
:2009800002F1615A8E4238D10E2019F0A5F8071C00F01981002407F10A0004235B1E00F891
:2009A000014BFBD1BC80FF2038704FF6FF737B803C81FC8087F800900F9A7E801099BA8098
:2009C00007F10A00A7F806B00422A7F808A025F045F8082019F080F8D8F8141018B9384615
:2009E00020F078FDEFE007604160C8F8140098F81000401C88F8100067E1401CC0B2BBE783
:200A00003F68002FA8D100F053BC6868002800F04F840020687068681BF0A6FFA9680880BC
:200A200000F058BEA868002800F0428400216970AD68267860786F1C002E08BF29700ED046
:200A4000402120F027FD4FF47A710F2300F2E730B0FBF1F116FB03100F3828702678002F3B
:200A600000F038863046B2E0D8650020AF68A18F94F83F2094F83E3094F84060D4F838C047
:200A800094F841E094F8438094F8449094F845A094F846B0002F00F00B8400276F70AF683C
:200AA0003981A968CA72A9688B72A9680E73A9688873A868C0F804C0A86880F80DE0606BB7
:200AC000A9680860A86880F80F80A86880F81090A86880F811A0A86880F812B000F0FABD34
:200AE0006F68002F00F0E483002068706868077D17B1C07C84F845006868877D17B1417D2E
:200B000084F84610077C17B1C089A0876868077B17B18068A0636868877C1FB1407C84F868
:200B20004100686807790FB10068606300F0D2BD0021697070B194F83F0080090AD208A8BF
:200B400008221AF039FE25F0DBFB08A817F0F2FC00F0C0BD25F0D4FB4FF4FA7024F00CFA82
:200B600000F0B8BDA868002800F0A2830020687025F03EFE2AE0D948A9680078002900F0AD
:200B800097830021697021E06868002800F09083686800781FF056FB00F05ABC686800289F
:200BA00000F08683002068706868007805F002FE00F090BDA868002800F07A8300206870AD
:200BC0001FF01EFE08B90E98E5E00078AF68387000F080BD6868002800F06A83002068708D
:200BE0006968088889781EF09FFD00F073BDC046B85500206868002800F05A83B84C6968FC
:200C0000082204F10C0024F029FF686801896180807A2070B3E06868002800F049830188D8
:200C2000ADF830104088ADF832000CA9532021F0AFF950200DF1320121F0AAF9E1200DF1FB
:200C4000360123F0EDFB68689DF836100079884200F095808DF836000DF13601E12021F06D
:200C600097F98CE0805C0020CC6500206868002800F01E83007821F0E3FE686896F83C108E
:200C80004078884213D086F83C000DF13701E12023F0C6FB68689DF837104078884206D026
:200CA0008DF837000DF13701E12021F071F968680E9F407807FA00F0F06424F08DFC00248B
:200CC000A6F8944038461EF003FA204663E06F68002F00F0ED82387886F84A007C88748794
:200CE000387A86F83C007B89F3877A68F264B989A6F84810B87B86F85C00F87B86F8290073
:200D0000387C86F827007C697465B86996F89610B065387F884201D021F092FE696806F197
:200D20005D001D3125F02EFE96F84A0006F12404082824D121207421224625F03BFD002000
:200D4000022121F0C1FD1AE06968002900F0B0820888498822F062F870B9696808880E9A8C
:200D6000498820F051FA69680888498822F056F8002808BFC8200ED06968097941700020DC
:200D800009E06868002800F0938203E06868002800F08E8212202C465DE26868002800F0C7
:200DA0004B846A6810889178D27821F019FF4FE36868002800F040846868017A427A1DF08C
:200DC000E7FA45E36868002800F0368441788DF8201081788DF82110007824F043FC002858
:200DE00000F066820C3008A9022224F037FEC6E76968002900F02084A868002800F01C84BE
:200E0000087808A923F063FF6868A968007808709DF82000A96848709DF82100A96888701E
:200E200000F01DBC6868002800F006840A300778002F0CBF00220E9A47780FB142F0020245
:200E400087780FB142F00402C7780FB142F00802007908B142F04002696808880023891C91
:200E600021F0E6FA044630E76868002800F0E48302206F688DF828003988ADF82010FA7823
:200E8000B97808A81EF0A0F8E2E26868002800F0D38302218DF8281001884FF6FF708842E2
:200EA00005D0821E8A4202D0C01E88420BD125F0E5FBADF820006868C27A837A811C08A88B
:200EC00020F070F8687068680188ADF82010C27A837A811C08A820F065F8B9E2885A002004
:200EE000F85600206C68002C00F0A68302208DF828002188ADF8201063462279B4F80680A8
:200F0000267AD4F80CB0277CD4F814A061880F921A1D14680346F21912FB03F00F305FFA5D
:200F200080F9B9F14E0F00F3198125F0A7FB884233D121700812607024F054FDA41C014638
:200F4000204625F01FFD04460F98207084F801804FEA2823A370E670241D66B15846A41ED7
:200F6000017804F8021F30F8021B761E4FEA21216170F5D1A41C27705FB1641E50460178F8
:200F800004F8021F30F8021B7F1E4FEA21216170F5D1C84820224B465EE01846FBE66C680C
:200FA000002C00F0498302218DF828102088E146ADF820006288A388A679D4F80880277BAB
:200FC000D4F810E0D9F80400F41914FB01F1891D5FFA81FCBCF14E0F42DC9DF828100F29C9
:200FE00018BF022908D1BDF820404FF6FF71A14204BF891EADF820104FF6FF71914208BFDB
:201000008A1E00F8012B111200F8011B00F8013B1C1200F8014B00F8016B66B14146801E87
:201020000A7800F8022F31F8022B761E4FEA22224270F5D1801C07705FB1401E71460A786C
:2010400000F8022F31F8022B7F1E4FEA22224270F5D148460622634608A91CF099FA9AE650
:201060007CE06868002800F0E7820220052216E06868002800F0E08202206F688DF8280094
:201080003988ADF820103A79798808A823F0A4FF81E66868002800F0CF82022002468DF811
:2010A000280068680188ADF82010418808A824F0BDFACDE12C466368002B00F0CE80187DAD
:2010C00024F016FB002800F0C8809D691C331F78002F0CBF002002205F780FB140F010008C
:2010E0009F780FB140F00800DF780FB140F020001F790FB140F040005F790FB140F080006A
:2011000083466068007D25F0B5F95FEA000800F0A4806168887A8DF829008889ADF82A0040
:20112000087802288DF828000CD001280AD00F2808D0032809D1891C08A8082224F08EFC48
:20114000616802E04888ADF820008F7B002F74D0780018F0C1FC061C02D1254610201AE605
:2011600000216068877B8F4261DCC18A838CCDF83C80826A13950C2F109190F8229011934D
:20118000BDF8208012924CDA40461DF065FB0C2816D14FF6FE701DF05FFB0C2810D1DFF81C
:2011A000ECC20E999CF82C3100200CF59A7C1CF8082B9342C4BF131C081C491C0C29F6DB55
:2011C000C24D4FF6FE7305EBC00568686B8018B120F080F90020686077B14FEA470A504658
:2011E00018F07AFC6860002808BF10201AD068683146524624F032FCA5F80280C3486F7076
:20120000129B0078139F28700F990093109A019708A8CDF808B0119BCDF80C900AF094FD1D
:2012200000E002206070304620F054F952E200694A00105A491CB05293E7886A00900195BF
:20124000CDF808B091F822000390CA8A8B8C08A841460AF079FD2546FAE0254628E0686839
:2012600030B3007824F044FA071C21D0387B1EF0C3FF0028687040F02D82AE4845683E4624
:20128000002D00F027822F46002117B9BE4202D020E2BE4209D1B54219BF3068086031680C
:2012A0004160304625F01BFB14E239463F68ECE7022070E55C5500206868002800F0BC8190
:2012C000A868002800F0B881002108221AF074FA69680878498822F0EBFC071C19D00020A3
:2012E000A968687038880880A968B8788870AC68A078002800F0EE8118F0EEFB6060AA680E
:201300005068002800F0E6819278F91C24F0A6FBE0E1B1209CE06F68002F00F08D81AF6899
:20132000002F00F089810024664668686C703768017820463FB13A79914204BF401CC0B283
:201340003F68002FF7D1A9680870A8680078400018F0C2FBA968376848606868A968007828
:201360004968002F00F0B6813A79904204D1FA88661C21F81420F4B23F68002FF4D1A9E1F0
:201380006F68002F00F058816868002764466F700678206890B101798E420BD1002F04BF9F
:2013A0000568256002D001683960056820F092F8284601E0074600680028ECD120F0CAF9A4
:2013C00088E102206F686870002F00F08381644639787A882068002800F07C810027037913
:2013E000994202D1C3889A4204D0074600680028F5D16FE107B967460168396020F06AF870
:2014000020F0A8F92BE16868002800F01581807800280CBF00220E9A68680E9900881BF0D2
:2014200079FE15E06968002900F00681887828B1C87800280CBF0E99032100E000216A6825
:20144000107908B141F040011088527910F0C0F968703FE16868002800F0EE80696808A8ED
:201460000822091D24F0FAFA032024F07BFB6868C07B21F09BFB6868817B009102788389D2
:20148000418808A812F026FDE2E7C046A41A00206868002800F0D080384624F01BF9041C03
:2014A00016D11C2018F018FB041C00F0138100211C221AF081F92771204621F061F838B90E
:2014C000204620F007F8D120C2E7C046D01B0020E088824940F00800E08040F00400E0808D
:2014E000022025F019F97E49032025F015F968680168089100798DF824000E9F8DF82570DB
:201500008DF8267008A81CF0B3FEA1E72A5600206868002800F0908068680088002103F0B7
:2015200043FCD7E06868002800F0868068680078707094E0745C00206A486F680478002F07
:201540007AD0686800212A2269701AF035F9708F696808806868B6F84870847269688F818E
:20156000F08F6968C8826868082206F1240707F139010E3024F072FA24F034FA014668686C
:201580000822801C24F06AFA6868082207F11C01183024F063FA96F83C10686880F82310F0
:2015A0000E986968504C81F8210021784A0824BF6A6882F824008A0824BF6A6882F825005A
:2015C000CA0824BF6A6882F826000A0924BF6A6882F82700C90924BF696881F8280079E0FB
:2015E000686848B390F90000044624F02DF8A86800B1047033E06868F0B100200E9F6870B6
:2016000069680F7069684F7068680226867068680624C470696803230B715BE0686858B147
:20162000407818B1FF20032121F04EF925F032F80E982E490860FEE7022009E7122007E7B3
:201640000020687019F0F8F944E00020687022F045FB3FE010464FF480711DF073F80020E9
:20166000F6E629461CF098F833E0294610F080FB2FE0294615F050FE2BE0294624F01AFF0E
:2016800027E029461EF0EEFB23E029461EF0CAF81FE029461BF046FA1BE0294616F00CFE68
:2016A00017E0384629460BF043FB12E024F07EFACEE629461DF012FA0BE03846294606F085
:2016C0002BFB06E0294606F033F802E0294606F0ABF90E900E9815B0BDE8F08F91120200B1
:2016E0003162020098540020C66B00207C0520432DE9F04F04464FF6FE70ADF15C0D217A20
:20170000ADF85400606808AA11F09CF8002800F063849DF822000228B4BF012700279DF88A
:2017200024000228A8BF0027BDF82A104FF0000A4FF6F87088420ED04FF6FE70401F884264
:2017400009D04FF6FE70001F884204D04FF6FE70C01E884200D1574624F08AFF9DF8231012
:20176000884240F03984002F00F03684208D9DF82660678EADF84C00ADF82E7056B1616818
:201780009DF821209DF83C30012024F0BBF9002840F022849DF82570DFF8C4B2DFF8C482F7
:2017A0005646002F4BD19DF83D00574658BBBDF82A0003461FF02EFE5546022808BF0125AB
:2017C000002D9DF8225018BF012759460988994208BF47F0020727B1002D14BF402120214A
:2017E0000F4318461FF016FE012808BF47F00107002D3DD01298007824F055FD012818BF25
:2018000027F0010734E09DF8411041B1FF2906D09DF84000119A21F0AFF950B128E0B8F8CD
:201820003A00BDF82A10884205D098F84A0004281ED101261CE09DF82650222720E0BDF8BF
:201840002A10FF2022F034FA002804BF3D1C082708D09DF8250047F001052C2740F0010029
:201860008DF8250005F00305012D08BF47F011079DF8265007F00200304308BF47F0800781
:2018800095B998F82F0078B107F0220022280BD007F04200422840F09F831298007806288F
:2018A00018BF072840F09883F8094FEAA71555D398F832001299BDF82A2080080AD2087869
:2018C000C01E01282CD9001F2AD0C01E28D0801E26D003E00878401E0A2821D9BAF1000FD2
:2018E0001ED1B8F83A00904240F076830D780520BDF82C408DF8110004A823F06DFA002865
:2019000000F06A830269032313271370511C0F704C7022128A70CD70448007F0A9FD5BE3EA
:2019200068081BD30878032802D148780D2815D09DF8280038B1BDF82C000E990BF0A8FF21
:20194000012800F045839DF8270038B1BDF82A000D990BF09DFF012800F03783B8F848001A
:20196000B4F84410884209D1CDF800A0208DB4F8421094F84620534610F0EAFF9DF8260084
:20198000002847D0208DB4F8421021F047FA9DF85190061C26D1B9F1000F12D198F89000C0
:2019A000012839D112980078062801D1680833D2BDF82E104FF6FE70401C884240F0BB8026
:2019C0000AE3042023F061F9011C00F005836420087001274F70208D488098F800001EF0FE
:2019E00001FBF9E29DF821106068F5780A18537BAB4203D0F3705046706060684018042157
:201A0000401C23F057FC7168814200F2E582401C706001E09DF8519098F832008008C0F092
:201A2000DB82B9F1000F24D0BDF82C0023F0CEFFD0B9A349A34CBDF82C000B6822699901FE
:201A4000A1EB83019047012840F0C6826169BDF82C008847A168BDF82C008847BCE2C04627
:201A6000DA520020A05200206168487800F0DF0048709DF8320038B161688879401E887127
:201A8000C0B28DF8320008B907F07F07380924D39DF82500F9084FF4805A14D279091AD37A
:201AA000811011F0070F01F0070604D0072E1CBF761EF6B20EB907F07F0700F0E30040EA1F
:201AC0008600C0B205E020F01C00C11021F0030108438DF825006168087298F84A000428D9
:201AE00000F0FF81092800F0FC8117F0610F40F0EB809DF82200012811D1129800780528B5
:201B000000F0D68003280AD1BDF82A0023F05EFF28B1218D08A815AA002300F0C1FE9DF8CD
:201B2000320068B99DF82200012804D112980078032800F0518208A821461DF0F5FA4BE24D
:201B400023F030FC002840F047829DF83D0000286DD19DF82400BDF82A10FD100028ADF86B
:201B600054102ED13A0930D29DF82220012A28D0084600211AF084FA002620B140790128F3
:201B800016D0022814D0BDF85400B4F8441021F045F928B1807823F0ABF808B1082807DBA7
:201BA000BDF82C0023F012FF18B104208DF824000126BDF82A10002E08BF022272D09DF884
:201BC00024006A0838BF002300D340230DF13D021AF090FA30B1616808784AF0200A00F0D0
:201BE0003F0008709DF83D0040B1BDF82A1010A81FF0F0FB4AF0400AADF854009DF8220096
:201C0000012806D0BDF82A00BDF82C10002216F04FFF68082CBF40220022BDF82C10BDF8FA
:201C20002A0013F091FB08B14AF0200A33E09DF840009DF84110119A20F09EFF00282ED082
:201C40009DF8410038B9BDF82A00ADF8540024F02EFE00BB1DE011999DF8286001EB4000FA
:201C600030F8020C002EADF854000CBF082010209DF827600EB10830C0B29DF82560002124
:201C800006B1012140186168401CC2B2505C401E50544AF0400A22F0A9FD8146A6E0BDF88E
:201CA0002A100B22BDF82C0000231AF017F893E1218D08A815AA002300F0F2FD8CE1C0469A
:201CC00034850200BC53002078084FF0000967D39DF83300B4F828B0C14D49461690092060
:201CE000EA79169B934206D1BDF82C302A88934201D1AE782EB9401E05F1080501F1010158
:201D0000EED1092921D0AE79E6B1B8F84810584622F094F808B1761EAE71B24833210279AA
:201D2000FF2A02D00288934504D0491E00F12400F5D102E0A879401EA871A8795228A4BFB8
:201D40004E46AE7127F060072AE022F04FFD81469DF8320028B9BDF82C00218D814202D156
:201D60001EE0BDF82C00B8F83A10884202D198F80500A8B1218D08A84A460FF087F858B18A
:201D8000380932BFBDF82A004FF6F870C01D4AF0040AADF8540003E027F020074FF00009FE
:201DA000B8094FEAA71510D394F8460094F8476094F948308DF81000E26B8DF8116004A9FB
:201DC0008DF8123008A803F069FF68080ED3218D08A815AA4B4600F063FD5FEA000905D0BB
:201DE00012980078012808BF4AF0100ABDF854104FF6FE70884208BF4FF000097A481B30CB
:201E0000007801282BD1618E4FF6F870C01D884225D0218D884222D0BDF82A204FF6F870D7
:201E2000401C90421BDDBDF82C00884217D024F03EFDA0B10179012918BF02290FD10121A2
:201E40008DF810104088ADF81C0004A81DF014FD28B105A81DF018FB08B122F0A5FA37F053
:201E60007F0000F0B980B9F1000F00F0B580208917F032FE071C00F0AF806168228923F033
:201E8000EDFD002505959DF822008DF81000CDF80090CDF804A004AE0295BDF85410039694
:201EA000228D237A384614F0D1FAB0B998F80100002800F091808DF81C908DF81E508DF8BD
:201EC0001D50BDF82A00ADF81A00BDF82C70ADF8187006A823F01EFF7EE038461FF0FAFABC
:201EE0007AE05946BDF82A000988814209D01FF091FA022805D09DF8250000F0030001286E
:201F00006AD19DF8220000284DD012980178042903D19DF83C10022940D00178072905D1CB
:201F20009DF83C2098F80000042A06D0032953D108A8002112F0AEF84EE04FF480611CF0F5
:201F400093FF092088F84A0027484178022904BF0021817723F046FD01460D9823F046FC36
:201F6000012839D1102022F090FE07460E991298401C8FB302223A704378027802EB03220D
:201F80007A80807878704A2020F002F89DF8260010B916490520087039461EE5002008A920
:201FA0000AF038FC18E094F8460094F8477094F948608DF81000E26B8DF8117004A98DF897
:201FC000126008A803F06AFE06E0BDF82A0001E0BDF82C001DF030FE17B0BDE8F08FC046D1
:201FE000381B00209822002010560020985400206F4A2DE9F04FADF14C0D10780F91090CC0
:2020000080F01F840F999046890B80F0F0830F99890980F025830F99490980F0A7820F982C
:20202000DFF898B1C00980F02E820F98000A06D31EF036FA0F9880F0800000F021BC0F98C4
:20204000DFF87091DFF870A1400A80F0B9800F98000B80F096800F9998F80300490B80F096
:2020600086804C460F99606AC90B6AD20F992078890838D20F98E188800A17D20F98000938
:2020800006D301200F9F88F8050087F00800F7E30F98C00A08D3B8F8480001211EF060FFE7
:2020A0000F9880F48060EBE30020E9E3B8F84850A8F848105020A11D1FF06AFFE6881E27D2
:2020C00054466089854205D0864204D0204623F048FC00E066817F1E04F11C04F1D10F98A6
:2020E00080F40070CCE340B301A824F0E4FB24F0B3FA59460546032091F8228091F82360B9
:202100008DF80D0003A822F067FE071C15D038690B2100F8011B00F8018B06700126BE77CC
:2021200023F060FC78627D807E7701A838620023BE763846237007F09BF90F9880F0020015
:202140009EE380B159461431097801290BD18047A06A00B1804798F800004FF480414FF442
:202160007A7224F0E8FB0F9880F4804088E320B1002088F803001EF08DFE0F9880F480503E
:202180007EE31EF087FE5946087A01280BD1497A49B198F800004FF47A7212FB01F24FF466
:2021A000006124F0C8FB0F9880F4006068E3C046A0520020BC530020501F002010560020C5
:2021C00024F05CFA4FF6FE71814200F0588198F832008008C0F0538100252C46284622F070
:2021E00057F8071C19D03879012816D0022814D0F879411CF97198F88B1081420DDABC727B
:202200007C72388821F00CF9388801A922F034FA01A81DF039F922F0C7F86D1C332DDDDBF6
:20222000AAF11C051E26129435F81C0F4FF6FE7181420DD0287B98F88B70411C874229735C
:2022400006DA20462746A87428886F7421F0E8F8761EE9D14C46032104F1380010F8047F6F
:202260000FB17F1E0770491EF8D1B84E4FF6FE79332709F1010936F8240F81451FD0012003
:202280008DF804007588ADF8105001A81DF0F4FAA8B1AAF11C041E2534F81C0F31888142E5
:2022A00008D0BDF80610814204D002A8A11C23F09DFA10B1204623F054FB6D1EECD17F1E65
:2022C000D9D1129C1094204621F0E2FF58B1017931F0040107D1807A22F00AFD18B11098A5
:2022E000401CC0B21090641C332CECDB22F0F8FB129D061C0ED02C46204621F0B5FD28B1A2
:20230000807C22F0F5FC08B16D1CEDB2641CE4B2A642F1DC10984019C7B2002F40D0B800A1
:2023200017F0DAFB1190002808BF129F3AD0BA00FF2119F041FA129C25461098A84218DDB8
:20234000204621F0A5FF031C10D0187930F004000CD1987A22F0CCFC011C07D000971888BA
:202360005A7A119B18F0D3F86D1CEDB2641C332CE3DBBEB1129C204621F076FD051C0AD043
:20238000A87C22F0B5FC011C05D00097119B28886A7C18F0BCF8641CE4B2A642EBDC01E029
:2023A0001298119098F83000002808BF4FF0620805D023F09BFBC0F154005FFA80F8032003
:2023C000B8F1600F98FBF0FAA8BF4FF01F0ADDF844904FF6FE7BABF1020BB8F1000F0EBF04
:2023E000129D2025DDF84880BA45A6BF3C1C45F040055446032014FB00F0801C8DF8050034
:2024000001A822F0E9FC4E46031C26D01869082104F01F02017045EA02014170801CA4B16F
:202420002246C01E361F16F8041F00F8031F318809124170B17801F0070CF178521E01F03A
:20244000070141EA0C118170EDD1A3F802B001209876184607F00CF800E00120E90906D2DD
:20246000641EE4B20CB109EB84093F1BFFB205F040052843B1D0119808B11FF02BF80F989A
:2024800080F48070FCE1B54C092500214FF00409A078002841D0401EC6B26079A67023F036
:2024A0006DF9071C38D06EB9787B022804BF0620787331D0062078733868407BF0211EF0E7
:2024C00077FA29E0A6791EB9787B032812D023E026790EB3E078401EC6B2E670E6B998F876
:2024E0002500E0702079401EC6B22671787B032812D126B9204639461FF04CF80CE087F8DE
:202500000D9024F09AF900F00F00401C388198F8000020211CF016F901216D1E04F10804C9
:20252000B6D198F80000012912D040211CF09CFC594691F82900012814D1002081F8290052
:2025400015F0CAFD21F030FF0CE0C0467422002040211EF09FFF28B998F800004021642262
:2025600024F0E9F90F9880F0400089E110211EF091FF30B998F8000010214FF47A7224F0E8
:20258000DAF9C148DFF80483417808F5C674491ECFB217BB012141700020052122F0CCFD63
:2025A000071C1BD006253846052122F0C5FD0646388978B1401E80B2388158B97889C00811
:2025C00002D3387B20F014FF7D733868407BF0211EF0EEF9371CE6D100E0477064274FF68E
:2025E000FE7600252079A0B1FF2812D0401E2071C0B270B96079032805D160882188022236
:202600001BF08EFA6079012803D0268066806571A5717F1E04F10804E4D108F1DC0408277F
:20262000207A401E2072C0B230B99948214621F02FF890B9668025707F1E04F10A04EFD111
:20264000944A0C2112F8080F08B1401E1070491EF8D10F9880F0100012E11DF065FEE4E732
:2026600020211EF017FF28B9D8F81000002808BF012616D024F01CFB044623F0E1FF4FF48D
:202680007A716043B0FBF1F1D8F81000002808BF002004D088428CBF4FF0FF30081A460869
:2026A00067D00020042122F047FD071C61D0FF244FF0FF3B06254FF0010A3846042122F02E
:2026C0003BFD10903889864204D8801B83B23B8113B14BE000203881BB7B012B02D1788933
:2026E000C0083DD3002B36D08DF804408DF805408DF806B03968086AC97F02AA10F0A2F862
:202700004FF00009012808BFD1465FEA09001DD0788A40F08000ADF83600B87B8DF83800AE
:202720007889000908D3BDF8360040F48070ADF83600387B8DF83A007B6913B1187BADF878
:20274000180001A9002202A803F0A8FA7D73387B18F040FD0AE087F80DA007E0381B0020FE
:202760007D733868407BB7211EF022F9109F002FA3D10CF023FA98F800300020012122F08E
:20278000DBFC18B1184620211BF0DCFF0020042122F0D2FCB3B278B142460789147822F0AB
:2027A000CBFCF8B9BB42AEBF0027FF1ABFB2204627B920211BF0C6FF00200DE07A00202167
:2027C00024F0BCF824F074FA044623F039FF4FF47A716043B0FBF1F0C8F810000F9880F0D6
:2027E00020004DE00289BA42D8BF171CD7E724F0DFF8294C0546201D0068074698B157F848
:202800000C1C98F8000021B94FF400511BF024F903E04FF400511BF095FF2046394600224D
:20282000001D20F0FDFB284624F03EFA2FB13846FEF75EFF384622F00FFB0F9880F4005004
:202840001EE01BF051FF071C17D0144920310A78FF2A0FD03C780B460020944207D0401CAF
:20286000C0B2C200D1189A5CFF2AF6D102E0496838468847384622F0EFFA0F9880F40040A1
:2028800013B0BDE8F08FC046B46C0020A41A0020A50B0200C81B00209C5C002024820200B8
:2028A0002DE9F04F064693460020ADF13C0DABF80000B06A099303460078884623F0F3FCAD
:2028C00048B1708904461EF0A5FD022804BFABF80040B36A01D0002009901878C84DDFF819
:2028E0002493401E0A2800F20B84DFE810F02F03B3020C049F028D0151010904BE0088007E
:2029000066000B00BD4C207D012840F0F9835B1CB06913F8015B1F7824F001F8002800F018
:20292000F7830379002B00F0F383032B80F2F0830E2D1CDCDFB9D04907752DB901EB850145
:202940000A6BC261096B0AE001EB85010B6B9A01A2EB8302C2610A6B9101A1EB82018161D1
:20296000012180F8201021F01FFD002500E001250320B689A47F8DF8190006A822F02CFA2C
:20298000071C00F0C58338690C2100F8011B00F8015B04700124BC7723F024F8786204A924
:2029A000304621F069FE10B17C7704A838627E80BC76384606F05CFDAAE35C1C207820F085
:2029C0001F0700F01F00012840F09A83641C04A8214623F0D7FF284604A95D3022F006FF11
:2029E000002800F08D83002F40F08A830834A2786178207801EB02211FF06AFE88E3688F94
:202A00007189884240F07C835C1C14F8016B04A8214623F0B7FF284604A95D3022F0E6FE59
:202A200006F01F0726F01F06002800F07183002E40F06E83780017F04FF8011C00F0688326
:202A400067B184460834384663782278401E04F1020402EB03222CF8022BF5D1009105F05D
:202A6000CCFE08461EF036FD52E35C789A1C34F07F0704F01F0E40F04B83377F03201EFB83
:202A800000F0801CC1B2B94240F04283002714F01F0F04BF4FF6FE7C614618D0D9789B7879
:202AA00070464D4603EB012C5378117812F802EF01EB03213EF0770340F02A832B888B424E
:202AC00008BF0EF00707521C401EEDD1BFB960464FF6FE72824212D004F06002602A0ED062
:202AE0004D462A88A30907D2E30902D2904203DD0EE3904203DD0BE39142C0F20983B089BF
:202B000023F0D5FE002836D1B0894FF6FF7121F095F9041C14D120F067F9041C00F0F88214
:202B200000211C2218F048FEB0894D460E35208028886081AA23A374022222740121617413
:202B4000207C032805DB0220072F2074BCBF7F1CFFB2677400202073A01C22F09CFB002800
:202B600040F0D682307A002800F0D282B169A01C23F008FFCCE20021C171017A032905DB3F
:202B80000221072F0172BCBF7F1CFFB24772BFE2484671890088884240F0B282307F022831
:202BA00040F0AE82AA4C201D00884FF6FE71814240F0AE82162022F068F8071C00F0A8823E
:202BC00001213970B07900280CBF081C02207870B06A4078B872000902D2B0891FF0E6FADF
:202BE000B169B81C23F0CEFE0020F874287839461DF0F8F9B089A0808AE2C046105600200E
:202C0000A0520020DA52002070891EF003FC002840F076825F78B94987B10C2F03F10203BB
:202C200080F276828C463D465A7818786D1E03F1020300EB02202CF8020BF5D1484675895F
:202C40000488DFF8D892AC4200F0B180B37C002B00F05E823B1C0A974FF0000811D0A74A5D
:202C600038464146921E32F8023F9C4206D0401E01F10101F7D104E0E08402000A914FF042
:202C800001082846002119F0FBF900280B907DD0407901287AD10B98807910F0180F75D05A
:202CA0000B984188384622F077FD10B9B8F1010F6CD109F2AC404FF6FE754FF000080C975C
:202CC000B6F80CB008904FF0010A0D95C14611E0B8F1010F08BF4FF0010908D023F0ADFDB0
:202CE000C0B290FBF8F101FB08F1A0EB01094FF00008C246089D1E271C3D35F81C4F4FF6F5
:202D0000FE70A04213D0A34511D00C98214622F043FD60B96B7C53B1072B08DA08F1010048
:202D2000BAF1000F5FFA80F801D1C14521DD7F1EE3D1B44D332735F8244F0D98A0421AD075
:202D4000A34518D00C98214622F026FD98B96B7A8BB1072B0FDA287901280CD002280AD02C
:202D600008F10100BAF1000F5FFA80F803D1C14501DC0D9407E07F1EDDD1B8F1000F02D0BA
:202D8000B9F1000FA4D00D980B994880B37C5B4C581EB074F77C00970A9D01950294012285
:202DA0000392B189B269708915F0F4F8B0E1B4890C2F80F2AD818846ADF81040BD488DF849
:202DC00012700168CDF8148009B104A8884720461BF042FD0C2803D14FF6FE701BF03CFDCB
:202DE0000C2880F2958109EBC00505F59675686808B11EF06FFB2FB1780016F06DFE6860C7
:202E000010B985E1002068606C80C3486F70007828706878002800F07B816868002800F0D9
:202E200077817A00414622F019FE71E1307F022840F06681099828B94D46718928888842A5
:202E400040F066810998314609F0E4FC5FE1C046BC530020B5F8481040461FF0DFFFA8468F
:202E6000074608202FB17D781DB90221397007257D70B16A0A79CC788B794D7891F802A077
:202E8000CF7904EB02244A7902EB03296A0928BF1020AA0924BF0830C0B235F0700340F067
:202EA0003781327F904240F0338105F07005680938BF002006D306A8083123F063FD25F0B9
:202EC00010050820A90907D3B16A091804A8083123F058FD25F020052046514620F00CFE4F
:202EE00008280DDA8D4B410001EBC001C9188879B84240F30D818F71002002E0C21A00205A
:202F00000420B8F83A10A14219D048B9B189484601222B460DF086FE28B1F9E0A41A002059
:202F2000042840F0F58006A804AE009049463A46534601962046029510F0E6FEE8E0B189AE
:202F4000484601222B460DF06DFEE1E0B5F8481040461FF063FF4FF00609041C03D0607811
:202F6000002800F0CD80B06A817847780891C378017900F1050A03EB0120099040461DF091
:202F80007DF89AF8001009185FFA81FAB80928BF4FF00E0937F0780040F0B28007F0180017
:202FA000182800F0AD80307F814540F0A9804FF00009CDF800900899B0895246434619F045
:202FC000D3F8032800F09C80002807F078074DD117F0180F18D195F8310028B1B0894146C5
:202FE00001223B460DF01EFE09984FF6FE714A463B460DF017FE002838D14FF6FF70ABF814
:20300000000039E07422002047F00107780928BF47F00207B089394619F032F890B18179D4
:2030200011F0180F0ED0417901290BD154B14088B5F848101FF0F2FE20B1437813B16078D1
:2030400098425DDCB089414601223B460DF0EAFD60B94FF6FF70347AABF80000002C0CBF00
:203060004946B169B089524622F0D2FABBF800104FF6FF70884243D1012000900899B08918
:203080005246434619F070F8099839461EF026FF698F81422ED1099823F009FC60B100794E
:2030A000012818BF022807D1099804A921F0E4FA08E0C046D854002022F094FC014604A802
:2030C00023F060FC307A012803D1B16906A823F059FC06A8009004AF0197B06A407840F01F
:2030E000300002900999089BB0894A4610F00CFE48460CE0B06A80F805A021F077FB06E0DC
:203100004FF00009F4E70999304610F0C3FF099009980FB0BDE8F08F2A560020801B00203A
:203120002DE9F04FCB4CDFF83083CF4DDFF83CA30E46300CADF11C0D80F05882DFF81C93A0
:20314000700880F0FF81C74DB00880F0C381B00980F0AC81DFF808B3F00B80F04F81BC4860
:203160000768700980F02A81300928BF86F0080080F08783700A80F0BB80F00880F0AE8079
:203180002069F10980F09180300A63D2B00A5CD2C54C300B2BD2F00A27D3142016F09CFCC5
:2031A000071C1FD00025A846207A012813D1009704202946424614231FF016F858B92068A4
:2031C00038606068294614223B46786004201FF03FFE84F808806D1C0C34032DE4DB3846E7
:2031E0001EF078F986F480604BE3002049E3182016F072FC071C25D000252434A846207AB3
:20320000012813D1009706202946424618231EF0EBFF58B9206838616068294618223B4696
:20322000786106201FF014FE84F808806D1C0C34032DE4DB38464146182218F0BDFA384636
:203240001EF048F986F400601BE317F0EDFA86F4007016E31AF0CCF82078052819D1E079A0
:2032600004211BF001FEE07904211AF0F5FB062022F078FC4046007800F00700022801D00B
:2032800023F0B0F821F090F817F0CEFA20F08CFC01E021F089F8012020F036FD0320012157
:2032A00004F0C6F886F08000EBE2A0B115F08CFF2069076820691EF00DF927615FB1FA8809
:2032C00002E0F888801AF8803F68002FF9D1E079402123F033FB86F04000D2E2FF20032132
:2032E0001FF0F2FA23F0D6F9C34901200860FEE74A4692F84A00082818BF04285BD124325E
:203300002120742123F056FABC4D6868298800241BE0A30003EBC403C75C37F07F0212D0C6
:2033200017F07F07C754034405D101A8FF210C2218F042FA01AB012021460C221FF088FD97
:20334000284629884068641CA4B2A142E1DCC04C4FF0FF085D460027E06995F82110802964
:203360001FD169798DF809102A798DF808206B88ADF806302888ADF8040085F82180297DA2
:203380008DF80C10EA798DF80B20AB798DF80A30A86904903946102201AB03201FF058FD0D
:2033A000E0697F1C2435332FD7DB00B18047002002211FF089FA86F4807062E24FB17968E0
:2033C000087818B14868007819F02AF83F68002FF5D123F053F91C34208022F003FB5046C0
:2033E00008300078012806D14C4620784FF40061642223F0A3FA86F0100042E2012002212B
:2034000020F032FFC4B29CB3E00016F065FB5FEA00082FD082464FF001095D463327287961
:20342000012818BF02280DD18DF804906888ADF8100001A81CF020FA20B102A9504623F0D2
:20344000A1FA82467F1E05F12405E8D112E0C046805C002098540020C46B0020A052002033
:203460009822002024560020C06B0020105600204FF00008B8F1000F12D074B10F204FF68D
:20348000FC778DF80C001F25ADF8047001A922464346B648009513F02FFD40461EF01AF8C8
:2034A00086F48040EDE1C046C8550020207A50B92078062802D1072022F054FB2878012834
:2034C00001D121F069FDE07910211BF03BF986F02000D6E1207A00BB2178E07908291AD12A
:2034E00021F07EFF092022F03DFBB3480078052806D0072809D10720012103F099FF04E094
:20350000012020F0DDFF19F073FF2878012816D121F042FD13E010210FE023F0A3F8EF284B
:2035200003DB002020F0CCFF09E023F09BF81030C0B223F0A9F8E07901211BF003F986F0C5
:2035400002009EE1012022F00DFB2879677800F007011220012918BF02293DD1E7B1032F01
:203560001AD0012F38D1012936D10A2022F0FAFA4C4620784FF480611BF076FC502005A9DE
:2035800020F04EFFBDF81400A4F84800BDF8140000211DF0E5FC26E022F0ECFE002818BF48
:2035A000032F15D1022022F0DDFAB749E06809781CF0DAF9A97909090ED270B9B34A51783D
:2035C000491CC9B20429517004BFB149E16003E023F033F910F0EEFC28B1E07901214FF47C
:2035E0007A7223F0ABF986F001004AE1DFF8A8A24FF0000B3CE1C0467C052043945C002004
:20360000A4484B4601681F78A64825784278781E00F00F81401E44D0183800F02381B9388B
:2036200000F01C812A3836D03F1F4D462AD0BF1E10D0BF1E40F01981012A18BF022A40F0E8
:203640001481287914F048FD20F0AEFE0DE1C046A85A0020012A40F008816F88002F40F0DF
:203660000481281D01A91FF0D3FD012840F0FD8023F004F8ADF80C002D1D029501A815F0D2
:2036800043F8F2E0012A18BF022A40F0EE80484606F030FAE9E0002900F0E78048468847FD
:2036A000E3E0012A18BF022A40F0DF809AF820005746072818BF082805D1237A1BB901219C
:2036C00003F0B6FE2578032D78D00A2D11D0042D15D00D2D13D00E2D11D00C2D0FD0002D82
:2036E00000F0C38020F060FAE07910211BF02AF8BBE098F8000000F0070001285ED0257A5E
:20370000607835BB84F80BB0584638711DF006FCB8B1062022F026FA6348634D80792D1DF5
:20372000000904D34FF40040012114F08FFB287800F00700022801D022F054FE20F034FA42
:2037400093E0052022F00EFA42F2107021F014FC8BE001281BD1E07A401CC0B20428E072BC
:2037600006DB4E48007801280FD010E05C5500204B4800884FF6FF71814206D00320607035
:20378000012767710425A57201E084F801B01FF097FF1FF03BF94448801D0078000903D373
:2037A0004048007D012860D1607803285DD10820012114F04BFB58E0D0560020257A002D9B
:2037C00035D1E07910211AF0BDFF1DF0A7FB38B320780A2809D198F8001001F00701022991
:2037E00003D02F490822891C0A7003280CD120F0DBF997F82000022806D1012020F084FAEA
:203800000220012103F014FE062022F0ABF998F8000000F00700022827D022F0E3FD24E0E5
:20382000052022F09FF901201DF0B4FF1DE05846FAE7022D19D1012A18BF022A15D122F01D
:203840007DFF10B113F06CFE78B122F0A7FF00280CBF584601201EF0B9FB06E0484614F0F1
:2038600007F902E048460EF0A1FB484621F0F4FAE0791AF039FF5FEA00097FF4C1AE86F468
:20388000004007B0BDE8F08FF1560020F856002000F8FF0750580020B056002008580020CC
:2038A000E852002010560020C06B00202DE9F04FB54CDFF8D8C294F8207088465FEAD8000B
:2038C000ADF1140D80F092825FEA184006D3DFF804B34FF6FF7AAAF1010A59E160460078E1
:2038E0005FEA5831A0F1020080F03181B84DA91D09885FEA182280F0EA805FEA980180F036
:20390000D1805FEA183028BF88F4006080F055835FEAD81080F0A280E7685FEA98305DD268
:20392000A0695FEAD83138BF0020C0F04683A74928C96A4628C209881180676938B93846C0
:2039400022F0ECFAA061C0B997B90B2011E0017BFF2906D031F07F000FD101F07C010429F4
:203960000BDBE06940B9384622F0D8FAA06120B9002022F08FFD2EE0A06160784FF480413A
:2039800041F2883222F0DAFF94F82010A069082919D00188ADF80010017A8DF80810017B9E
:2039A000491CC9B231F07F07017306D10188427A684621F011FBA06909E0008800210A463A
:2039C0001FF00EF9F7E7017B41F040010173406922F0A4FAE06188F48040EEE2DFF8C0B2A2
:2039E00000264FF0030AB14687B96078012E04D04FF400511BF038FA05E04FF400514FF4B6
:203A00007A7222F09BFF88F40050D6E27D68287810B3F02820DC51464A466B461CF0F6FC58
:203A2000D0B1029803889BB984F83E908DF80DA08DF80C9003AB0A20494652461DF018FBD0
:203A4000DBF8001084F83E9031B12878884703E001880126491E01803F68C5E71CF0D0FE40
:203A600007462078BFB1401EC0B22070A0B160784FF480411DF00EFD30B9606922F04EFA40
:203A800010B938781AF0B4FC6078402143F6982222F054FF207810B90B2022F0FBFC88F055
:203AA00040008AE2B0F1FF3F18BF00280CD168460021082217F080FE684614F03BFD18B16E
:203AC000607802211AF03EFE88F0020075E2084600211CF04DFE28460678FF24C6B14FF643
:203AE000FF75001D00212B4610F8142F52080BD3C7884FB1BB4207D055B10289BF1ABAB227
:203B00009542C4BF0C1C151C761E01F10101EBD1FF2C19D02E49A00000EB041040181830E4
:203B20000189C088401A80B250B929484470FF200AF0C6FCFF2120460A461DF0DDFA002044
:203B40002349C88021F078FA88F0800035E2B0F1FF3F18BF002814D13846401E0CD0801E06
:203B60000FD194F8220002280BD1012084F8220000201DF00FFE04E094F8211000201EF0E9
:203B8000E3FC88F4805018E2B05600201156002060781AF0A9FD051C08BF88F4004000F037
:203BA0000C822F78D32F00F0098194F82000B84212D00A2F40F0168194F83F002871A16A5D
:203BC000002900F00F81A81C88470BE1F47F0200CC650020A0520020B94840787F1E00F09F
:203BE0009680BF1E40F0FE80012818BF022840F0F980AF787FB37F1E40F0F4806F786078F8
:203C00001FB322F03BFD4FF6FE720021824218BF0121081C04D15846408F1146814209D09C
:203C200010465F46ADF8100004A9A7F83AA053201EF0AEF91FF044FD1EF0E8FE5946002083
:203C400081F84A0016F0F8FECCE0022140F6B83284F82210A7E06878002854D122F09EFDA7
:203C600000210E4603460BF1080063621F460160002F44D1002B38D0002E1F4635D0B146F1
:203C8000C64821F046F801280CD08D48408E4FF6FF7181420CD03988884209D01BE0C04666
:203CA0008C5A0020BD4807F10C0121F09FFD90B1BBF83E003989884201D1824501D1FB78AB
:203CC0004BB19BF836007979884209D17C48B979807B884204D038461EF0B6FF761EF6B27D
:203CE000BF69B9F10109CBD1636A226B002AA9D0184631469047206B002873D1A2E7BF69FB
:203D0000761CF6B2B4E700201EF060F96AE0012818BF022866D16F7894F845003FB194F868
:203D20004410491CC9B2884284F8441043DB94F82100401E04D0401E3AD0401E1ED051E0D3
:203D400022F018FB98B994F8460020B1E06A002848D0804746E0002102200F468DF80800AE
:203D60000246ADF80070684621F060FC13E0012022F0EAFC014603F05BFB33E0AB20002130
:203D80006A461CF097F8CDF808D004208DF80C0002A80FF059FE60784FF480511BF064F833
:203DA000607841F288324FF4805122F0C7FD19E01EF0AEFB16E001200021DCE7E88948F2FE
:203DC0000101401A0BD0401E05D0801E0AD1284616F0F0FD06E0284613F094FF02E0284665
:203DE00015F05EFD284621F037F8D1E66178381C09D0401E00F0DB80C01E00F0D180801E92
:203E000000F0C080D7E094F83F00C10880F09F8081087AD20009C0F0CE80062084F82000FA
:203E200022F08CFC00286CD01CF0EAFC2569071C67D068684078800837D33878032100229A
:203E40006B461CF0E3FA28B968684078410831D20E201BE002980188B52912DAB4210180A7
:203E600060784FF47A724FF4005122F067FD5448416829B10078FF2814BF3878FF20884702
:203E8000256968684078400803D2092022F002FB0AE0092003228DF80C0003AB00218DF89A
:203EA0000D200A201DF0E4F82569686840784108C0F0818043490E6826B9800821D37AE0FB
:203EC0001056002038781AF093FA002600B101260325301C02D00E2022F0DCFA0C202070FF
:203EE0006078402143F6982222F028FD0A208DF80D5003AB00212A468DF80C001DF0B8F8C6
:203F000059E00E2022F0C6FA55E0042294F8400084F8202040084ED394F84270002F3FD19F
:203F200060460078012818BF022844D1012504F120000021E57017F03FFC032084F8200072
:203F400028461CF039FC284621F0E4FC33E004F12000052594F84010057089080FD394F8B1
:203F6000421061B90121E1700422002117F024FC84F8205000201CF01FFC0220E4E7284666
:203F8000002111E0002084F83E0084F8200032220846042122F0D2FC0DE0C046AC540020DF
:203FA00021F06EFB0420012103F042FA03E0012001461EF0C9FA88F0040005B0BDE8F08FA1
:203FC000885A0020AC5A00202DE9F04FDFF814B3C34C01214FF0E047ADF12C0DDBF8040081
:203FE0002569C06808931F400170C84807924FF0000101704FF0020000EA020008BF00282A
:2040000040F0F482DFF80893DFF8088311464FF480301E4600270840374008BF002832D1A0
:2040200000204FF4003110EA060701EA020108BF00290ED137464FF48001384001EA020181
:2040400008BF002900F0C6820020287119F008FBC0E22871EB201EF02BFE4A4600204146BF
:2040600010700878862801D11EF0A4FE22F0A0FCE1690A68002313710968E16122F014FE28
:2040800021F0A6FBA6E20020DBF80070287107F1B8000168DFF880A20F782FB951460F784B
:2040A00017B1D0F8940480471EF06AFE812756469A4937709A4D0860FF232B702778A7700B
:2040C0000021A1812069DBF80050007A4A460E46801E81B2D5F800011670C0890A918842C0
:2040E000C0F26C82E1690831096804F1180001600426A6810A98DBF80060657EA17EE37E35
:2041000004F11902C01E80B206F1B80C0A9005EB012051786081C1F30119DCF80010237129
:2041200009780692002908BFB9F1020F00F04682B9F1020F00F3428219B110F0070F00F0C1
:204140003D82667800F00705AD1E022D08BF002E00F0348231B141460978862902D1002D98
:2041600040F02C82001300F00200022864DA35435AD1DCF81C0090F88300022851D0E169C1
:204180000C31097805A801700527A78122F010FC454606462878862840D1DBF80000403058
:2041A00001680F6837B9D0F80C058047DBF80000006C07689DF9140022F03AFC7877DBF82D
:2041C0000000016C096800228A77006C9DF914100068C177304622F067FD2679678922F08B
:2041E000E7FB41460A7807F01007862A15D1BB4D05F11E031A88521C1A8087220A7022F032
:2042000053FDE879B04206D11FB9002018F0E4FB07E01B20FAE7E920F8E70646304622F086
:2042200043FD21F0D5FACBE141460878862803D11EF0C0FDA77866788FB186B9012F00F0C2
:20424000BD816089022F03D110F0070F40F0B681032F05D100F00701032901D0AEE1608940
:20426000010980F0AB81011301F00201022902DA810A80F0A38106994978C1F38108B8F124
:20428000010F4FEAA111099100F09881012900F09581B9F1020F14DA00F00701012918BFAE
:2042A00003290ED1B8F1000F0BD1099F002F00F0858159460968AC3109680F78002F00F08E
:2042C0007D81BD49B9F1020F0ED0099E11F808708A5DB918CFB256B3C10928D3BF1E13E042
:2042E000F4690020140100200A46099908EB0207891809793A795218C109D7B212D2099905
:2043000058EA010613D0BF1CFFB210E0645C0020E66C0020E96C0020E46C0020C86C00206A
:20432000515D0020099958EA010608BF02270A9AC0F30020391A60718A42C0F23F81DBF828
:2043400000601146C91B091888B2D6F850122081743080B2884700286678606100F02E818B
:204360000021742217F028FA0020E07062891EB9C14902F020000870BF48617906784FF0F9
:20438000000C002E30D000292ED102F00700032808D0012828D1DBF80000D0F8D40090F8A6
:2043A00082600EB3DBF80400406906781EB121F0FFFDFE2815D0DBF80000D0F84C028047C5
:2043C00050B9DBF80000D0F84402804720B96289617994F803C007E00420E070628961791F
:2043E00001E00420E07084466569268905F1740305F17400AB65069B686093F801902E8106
:204400002089C9F3011A0029A5F85C001878AA8100F078004AEA00004CEA000028744FF092
:20442000FF06AE730CBF2079002085F83A8085F84900099885F83000A089002FA0EB0100A3
:2044400086B2A68100F0B580E169E78068463A468919083114F090FABF19B8B2A0812846BF
:20446000017C4FEAA90212F0030F02F003076D4601F0400843D0BAF1020F4FF0000301D1FC
:20448000C9090BD29DF801209DF8001001EB0221A0F844100DF10205A0F84210804EB0F8B2
:2044A0004410B6F842208A4203D04FF6FF728A4223D1032F14D06A78297801EB022189B2A0
:2044C0004186B6F84020AD1C01208A4214D04FF6FF728A4218BF181C0EE0C046F85900207B
:2044E00060692946323022F04DFA606937363146323021F07BF908350346002B56D00698C0
:20450000407886111ED06169BAF1020F03D0087CC00903D309E058EA070306D16A78287854
:20452000AD1C00EB0220A1F84200032E05D068782A7802EB00220A8504E060692946283030
:2045400022F020FA59460968AC310A686089167886B1BAF1020F0DDA00F00702012A18BF84
:20456000032A0BD162692FB94E4BB2F842201B8893421BD100F00702032A05D0012A18D167
:20458000886A90F88200A0B1D1F89C116069884778B90020069FE070B97866697878C1F3D6
:2045A000011100F078000843307402E019F058F806E00BF0CFF903E0588C020021F0FAF8E2
:2045C00022F0F6F9E1690A68002313710968E16122F06AFB079A089F2021002011403840DB
:2045E00008BF002930D021F0ADF82DE02E4991F90000002803DD91F90000401E08702B492B
:2046000091F90000002803DD91F90000401E0870114600201E464FF080770840374008BF11
:2046200000280DD0224991F90000002803DD91F90000401E08701F480121017021F0FEFA15
:204640000020287119F00CF8184A92F90000A8B1079B089F02214FF0E0401940384008BFEB
:20466000002914D092F90000002810DCDBF80000D0F84C0580470AE0E66C0020DBF800703C
:204680000D480021D7F85824017008469047DBF80400C06800210BB00170BDE8F08FC0464D
:2046A00088570020CA570020675C0020665C0020685C0020655C0020625C00202DE9F04FFD
:2046C000AE4C04F124000768ADF14C0D17B1002087F84500DFF8A0A2002517F148030BD049
:2046E000BF6DA44E73612FB950460068D0F84C05804773695868706022F05AF91290082067
:2047000012F01CF818F0C0F8564610B182A022F0C7FA1AF02DFC684621F0C2FC04206946EE
:204720008DF80000284621F095FEA06321F022FC09A821F0F7FD042009A98DF8240028460D
:2047400021F0F8FD206321F01FFC0DA821F0FAFD04200DA98DF83400284621F0FBFD216B51
:20476000606319B974A022F09BFA606B10B977A022F096FAA06B10B979A022F091FA30687A
:20478000D0F8E00380473068D0F8180280473068D0F8F0028047DAF800002F460726A03009
:2047A00001687B5823B118468047DAF80000A030761E07F10407F3D1D0F8B8028047EB2073
:2047C00021F062FF606A2F4670B105A8FF21082216F0F2FF606A05A9082220F02DFB04F14A
:2047E0002406012818BF3768654A0CCA05A8391C80E80C0021D1082015F06EF95FEA00081E
:2048000056D0A8F10206032722F017F806F8020F7F1E4FEA20207070F6D12020F82706F85D
:20482000020F4146082204F1400088F8077021F015F940461CF04EFE04E004F1400008224A
:2048400021F00CF90120082105AA21F0ADFF04F14006002818BF092826D11FF059FF80083B
:204860001DD205A8FF21082216F0A6FF07AFFF210822384616F0A0FF0120294608223B4649
:2048800021F09AFC80B9384605A9082220F0D4FA28B930463946082221F0E0F804E0012016
:2048A0000821324621F086FFE22031461DF070FB1FF02EFF400834BF2E1C0126BC4F552068
:2048C000012107F1420221F06FFF18B916B128461FF01AFA2B4FE22007F144011FF0A0FD6D
:2048E00030461AF075FF05A82946102216F064FFB84698F8010030F001004AD1224F05A923
:204900001022384620F098FA00283FD105A83946102221F0A3F83CE052616E646F6D5F73B4
:204920006565644175746F6D617469632829206661696C656400C04641455343434D206F8B
:2049400070656E206661696C656400C0414553454342206F70656E206661696C656400C015
:2049600054524E47206F70656E206661696C656400C046C08857002014010020C42900209E
:20498000D487020010560020F084020005A81EF0BFFD6220102105AA21F006FF28B926B117
:2049A0006220102105AA21F005FF05A82946102216F002FF304610F089FB30461DF0ACFA08
:2049C000304610F091FD1EB1284601211DF07CFF202015F081F80028E06300F03581A06A13
:2049E000E16A221D18F09CFCDAF80010D1F84C138847E16B201D0860A06AE16A04F108026F
:204A000018F08EFC0CF072FBE16B04F108004860A06AE16A04F10C0218F082FCAF4F7870E6
:204A2000DE48B8F83060BD7008F13C01BE8021F0A9FF98F82500E16B04F10C0308F14C0666
:204A4000387004F110028B60A06AE16AFE6018F067FC04F12C0B04F12809A149A14E0870FB
:204A6000A14ABE60A14B7A62E06BBB6204F1100604F11402DBF80010C660D9F8000011926A
:204A800018F04EFC9A4EF071022286F824204FF6FE70B08320F0A6FFC04996480560C048A6
:204AA00021F070FF9448FF21382216F085FE9348944B8360944AC260914941600570934B2C
:204AC0000361934A426195493961924B8361924AC261934B7B61934ABA619548924B934A71
:204AE000FB6195491061934FD16006F13000976010F02CFEAA4809272C307F1E40F8045BFE
:204B0000FBD1F07948F201011BF0EAFDF0794FF400411BF0E5FDF07921211BF0E1FDF0795B
:204B200022211BF0DDFDE06B11990161D9F80000DBF8001004F1180218F0F2FB7F4E48F237
:204B4000150130701BF0CCFD307838211BF0C8FD7C4F0222F7607C4B86F8282078483361D3
:204B6000E16B70614FF6FE7704F1180304F11C02D9F800004B61DBF80010378418F0D0FB4D
:204B8000724AD580D5609570556101261574074615700748167148F20201477038461BF03F
:204BA0009FFD48F2010138461BF09AFD02E0C046B0560020384648F204011BF091FDE16B4D
:204BC00004F11C008861D9F80000DBF8001004F1200218F0A5FB5E4B20705E499870284612
:204BE00021F09AFD5C49304621F096FD5B49042021F092FD5A49062021F08EFD59490720B8
:204C000021F08AFD5849082021F086FD98784FF6FE71491C1BF064FD554F564B5348614980
:204C20007B60554A8862554BBA6008460F46544AC3623B46534887F84660534F1A63E36B42
:204C4000076004F12006DE6110F07DFB10F0A8FA129822F029F80DF04BFB1FF0D5FEDAF8A5
:204C60000000D0F8D40090F843001FF0DFFEDAF80000D0F8582429460120904721F06AFAEF
:204C80004248DAF804700570F868007830B9DAF80000D0F8582428460146904715F06CFB00
:204CA0003B48058145812B4603603B4A4360394807211FF03DFB14F083FE1DF04BF91DF056
:204CC00028FB98F80100022804D14FF40040012113F0BCF813B0BDE8F08FC0460858002058
:204CE0003C5C002069140100197B0100656302009854002000570020001B0020A85A00203F
:204D0000298D000079500200C1D40100EF2F0200C9470200D9290200794D0200755A0100AE
:204D20001544010081470200D1980000C45B00207537010049AC01007D2E0100445800209C
:204D4000F9230200D53B0200D1430200CC650020745C002081620200456202005962020081
:204D60006D620200955E0200AD5E020001FF0100885A002015130200C9F80100C11C020092
:204D8000310C0200AC520020410A0200E56C00207C6C0020EC000020396A02003C5800208B
:204DA000AC540020B0560020964A2DE9F04FADF13C0D00240A918E2309900121101D0170C8
:204DC0008046D47240215171502593712046D0730021D171DFF830B21172A0219172908906
:204DE000917340F430509081204611681074C44CC2485572084084F832304CF210110143DD
:204E000000200C909BF80000116058B90C981AF0DFFC94F83200000910D30C9808A98DF8B4
:204E2000200008E094F83200000907D301200DF121018DF8210052201DF0AAF810F083FA44
:204E400020F09CFEDFF8E4A20B90002840F0C7800EF070FE00280B9040F0B6800C9804F1E3
:204E6000240674210D903246212021F09DFC002857D10D9921207422334621F09DF900285E
:204E80004FD1608F4FF6FE7181424AD001200D9094F84A00082806D0042804D00EF0E4FCFA
:204EA0000C980D903DE0DDF8349042200DF122018DF822901DF06CF806F12F0143201DF039
:204EC00067F806F12C0147201DF062F806F11C014A201DF05DF806F11A014B201DF058F8C7
:204EE00006F1240128461DF053F806F1160153201DF04EF806F12D0154201DF049F806F11E
:204F00001801E1201DF044F894F83200000938BFDDF8309052200DF122018DF822901DF004
:204F200037F80C9D18E00B9151E00C9AA80000EBC50029460C23814609EB070000900120C5
:204F40001DF052F930B917F80900FF2804BF002007F809006D1CADB2BAF80000DAF8047006
:204F6000A842E2DC0EF014F98948001D006800B180471DF0FBFC0D98F0B121F07FFBABF838
:204F80001C0028B998F8000000F0F80088F80000C448401C0078022818BF012003D1002125
:204FA00084F84A1003208BF8010039360BF11400314621F0E7FC01E009200B900B9F734880
:204FC0000021002F4180AED0012770480B9794F83C10814601208840CBF80C0079E00EF012
:204FE000A9FD0EF041FC04F124022120742121F0E1FB02A8FF210C2216F0DEFB0C9D5646D6
:205000000CE0C046C06B002098540020294601200C2202AB1DF01CFF6D1CADB23088A8422A
:20502000F4DC02A8FF21102216F0C6FB0C9D03202946102202AB1DF00BFF6D1C332DF6DBF2
:205040005348006800B180471FF0FEF9002006220C99ADF8100002A816F0AEFB142014F09C
:205060003BFD061C1BD0B0480C300768A7B103270225A8B202A90622801920F0EFFCAD1D14
:205080007F1EF6D104A93046022220F0E7FC4C201421324621F08EFB30461CF01BFA1820F0
:2050A00014F01AFD071C10D00C9D1822294616F083FB0620294618223B461DF0C9FE6D1C4F
:2050C000032DF6DB38461CF005FA16F09FFC2F4881460B98944D012868D1724E737804F1E1
:2050E00024072BB3012B0DD0022B13D198F8000000F0F80040F002000AE0C0460000FFFFF5
:20510000A052002098F8000000F0F80040F0010088F8000085481FF0FCFD002808BF002070
:205120000DD0042103208BF80A1008E0945C002098F8001001F0F80188F8001002208BF8F6
:20514000010021F07AFB0999B36B00F07F000818CBF80C306430022180B20C90FF201DF0C9
:20516000B3FB4FF6FE706087461CE0870020A4F848601DF065FC0A9801280BD002A80021DB
:20518000082216F019FB02A805E0C046D85B0020BC5A002000201CF0BDFA212074213A4674
:2051A00021F008FB002002211DF08EFBE8680B9C80B9122014F090FC0646002EEE606DD00B
:2051C0004FF6FE70B61F0327411C26F8060F7F1E7180FAD1002C61D106AB4C200021022274
:2051E00020F0EAFF002852D1BDF8180000284ED004284CDA182014F06FFC03274FF00208EC
:2052000000244FF6FE7A0646EB681FFA88F14C2006221B1920F0D0FF78BBE868015B8A4527
:205220002BD056B30096201841880022182306201CF0DAFF3069EA6800F2E93333611019B5
:20524000418805F13402880000EBC100E9681350081973694188880000EBC1008018E9688E
:205260004360081941881822334606201DF0F0FD30460021182216F09FFA7F1E04F10604C2
:2052800008F10608C0D116B130461CF023F9054B7120002108224C3320F08EFF21F06AF856
:2052A00030B101E0105600200120A8700027EF701F48C9F80C001F48C9F810001EF098FFD6
:2052C0001E481D490860DBF8100050B10BF11004076820681CF0FEF838460028CBF8100034
:2052E000F6D109984FF6FF71814217D0012000278BF800000BF1090201468BF8097085202D
:2053000021F052FA0BF1090428B9852039460122234620F051FF0C9820F050F91FF078FAB8
:205320000B980FB0BDE8F08FB85500203C58002091E7000035640200305A0020E96C0100F3
:205340002DE9FC47D44C0F460546F80B80F006826078DFF85883B90F80F0AA81B90880F01B
:205360009D81F90A80F00281390B80F0CC80380907D2F80FC0F0288227F0804717F01AFDA2
:2053800022E221F015FB81461FF0B6FD002800F0B480082021F0B4F9002840F0AE80802007
:2053A00021F0AEF9002840F0A880684613F066FC012803D10098002800F09F8094F8410207
:2053C000002840F09A8000250126E8B220F054FE48B1837A3BB1867290F9090006FA00F0B7
:2053E000C0B21DF095FB6D1C032DEED3032084F8200004F5CC7021F0D7FA484621F054FC5F
:20540000D34800252A460168056050F8081CD14940F8085C04F15C001FF0BEFC40460068E4
:20542000006B8047A168401A010BA06AC1F1FF3282422CBF08444FF0FF30A06294F82C00BB
:2054400020B12069A16AB1EBC02F25D91FF064FD294600B13146081C1BD0BF4840F6090101
:2054600001804580417B06F00F0221F00F010A434273017B05F00F0321F00F0143EA01022C
:2054800002732946416020F0BDFF418811F4406FFBD084F82C60A5621BF026F8CE482946B6
:2054A000056002201FF00EFA02201DF071FF112010F0ECFD207818B96068483021F08CFA55
:2054C000C648007810B90E2010F0E0FD94F82D0020B184F82D5005201DF05AFFC04860629A
:2054E00084F82050B4F9B000B4F9B210884214BF0220072015F0D2F802E0484621F0D4FBEF
:2055000027F008073AE720B104201DF041FF0020607065681CF054FF38B12846ED696FF4D6
:20552000807100224FF00073A847E06858B140460068006B8047E2686168801AC860000B66
:20554000C8600026E660A74904F15C0000221FF023FC0221D4F89C0084F8201018B104F131
:20556000DC0021F041FA27F4006707E721F020FA06461FF0C1FCD4F894100028894600F0F9
:205580008480002900F081809749042504F15C00002284F820501FF0FFFB304621F084FB76
:2055A00004F5CC7021F000FA40460068006B8047E0604FF0010884F8018028461DF000FF8C
:2055C000D9F810006060D9F81000416AC90803D3036A294600229847404618F079FE60684D
:2055E00080F81580606810F08FFF6568D5F808A040F60A02D01F564600F1010C00E01E46F7
:20560000736833B119888A4203D0884218BF8C45F5D100217160727B08F00F0322F00F0247
:2056200013437373D9F80C201288904224D06046904221D02B8E03B3696305F13002518034
:2056400095F83C0001F00F0320F00F00034385F83C3095F83D0008F00F0320F00F000343F7
:2056600085F83D307260707B01F00F0520F00F0045EA0001717300E0E160504620F0C2FEC4
:20568000514640461FF01EF902E0304621F00CFB27F4806798E0C046D04800200AF006F8A7
:2056A000D4F89C0008B927F002078DE08C0100104E4A116841F08001116020B104201DF061
:2056C00067FE0020607021F073F98246D8F85400016804208847D0B1287DC0B1A068B0B1B0
:2056E0008146D8F800002E69006B8047A0EB09002861000B2861B04202D280194008286169
:2057000040F6C41181422CBFB0F5967F2961504621F0CAFA1CF054FE80B1EE6928466FF46A
:20572000807100224FF00073B047D4F89400002808BF47F0020701D017F03CFB2846AD698B
:2057400000214FF080630A46A84727F000573BE014100440FDE70100D46B002021F028F960
:20576000D4F8AC6066B306F1280106C90A234FF0E0450B40154008BF002B21D106F1280114
:2057800091E8000306F1280595E8060006F1280322EA090221EA080183E8060021F084FA99
:2057A000B16879B1B9F1000F08BFB8F1000F09D03069B6F93010B5684B464246A84701E007
:2057C00021F072FA27F4804727B104F1DC00394621F00AF9BDE8FC8700000460EE8B020027
:2057E000593901008D300100D94E0200CC2108402DE9F04F7748794A0178774811707B4CA3
:20580000417077495C302062ADF11C0D086001F06DF97548801C734D03907348001D04906B
:205820007148801D059070484FF000084FF001094FF0290A1E300690E0684FF0FF3121F017
:205840002BFA0028F8D0207818F04EFF061C00F0D98031782078923932D0333904D0491F25
:2058600026D0491E20D02EE03779F01C7F1E05D07F1E28D1F77837BBE06A03E00778E16AB1
:205880003FB908461FF0DFF9E06A64211DF053F819E008461CF032FAE06A4FF4FA714FF6F8
:2058A000FF7219F0F1FC0EE0CD214246032304E08DF80880C12102AA082318F08FFA02E0DA
:2058C000301D12F015FB3078CB46712822DC71284ED0652810DC652862D0801F71D04238D0
:2058E00000F08680183869D0401E64D0401E01287ED9801E57D06AE066384DD0801E47D03A
:20590000801E032874D9001F3ED0401E38D0401E32D05CE091280FDC912869D072380228D8
:2059200066D9C01E20D0401E1AD0401E60D0C01E5ED0801E5CD04AE092380DD0C01E0128D6
:2059400056D93038062853D91B3851D0801E01284ED909384CD03AE0F76A002F48D032E0C3
:20596000B768002F44D02EE07769002F40D02AE0F768002F3CD026E0F768002F38D022E056
:20598000F768002F34D01EE0F768002F30D01AE0F768002F2CD016E0F768002F28D012E0F7
:2059A000F7682FB30FE03746786908B11BF092FDFF69EFB107E07769D7B104E07769BFB17B
:2059C00001E0B768A7B138461BF084FD10E0C34611E0C046C4290020B4360020EC6C0020E6
:2059E00038530020F8510020045200201C43002030461FF031FABBF1010F03D016B1304622
:205A00001FF02AFA2169880825D3666AA068B0420BD19C480078012818BF022805D10A2015
:205A20008DF8080002A820F063FB6068B0420CD102201CF0C1FD464600B94E4602203146CC
:205A400015F0C0FD022017F0F9FA21694046606221F002012161080924BF21F00801216170
:205A6000A06A8A0921D364211CF065FF022017F0E5FA032017F0E2FA042017F0DFFA052069
:205A800017F0DCFA062017F0D9FA60694EF6602120F021FF7D4820F0A9FFA06A1CF02EF9B1
:205AA0002169A06A21F020012161CA094DD364211CF041FF7248744F714E806840F3100271
:205AC00097F9001030684FF44853A0F54070414308116421121A01FB02300012A88108208C
:205AE00020F0C8FF071C1ED087F800906A4887F803A0A7F801807860A4F85C80022684F8C7
:205B00006590607884F86460401CC0B26070414600915F4940F202423B46401EC0B20190C2
:205B2000484611F02FF8384620F0E5FEA06947F2305120F0D0FE574820F058FFA06A1CF081
:205B4000DDF8216921F040012161080AFFF474AEA06A64211CF0EFFE6F8B002F0CBF4E46DB
:205B60004646EF8B0FB9761CF6B26F8C0FB9761CF6B2002E52D0072016FB00F0401C80B21A
:205B800020F078FF6B8B071C45D03E704BB940F20550A7F8010087F803A0039E7E60484648
:205BA00000E04046EE8B7EB907214FF4A16310FB01F17E187A1886F803A0049EA2F80130AD
:205BC000431CD8B27B185E606E8C6EB9072140F20B5210FB01F03E183918A1F80120059AB7
:205BE00086F803A03B185A60022084F86400A4F85C80667884F86590701CC0B26070414659
:205C00000091234940F604323B46401EC0B20190484610F0B7FF384620F06DFEEF8C37BB8F
:205C2000082020F027FF071C1ED087F800901849A7F801802520F870069E7E6040F2027290
:205C40003B460226A4F85C80607884F86590401C84F86460C0B26070401ECDF80080C0B2E7
:205C60000190484610F08EFF384620F044FEA06A1CF044F8206920F080002061DCE5C046F5
:205C800028500940115600200C130050004400207843002024440020045200202DE9F04FBB
:205CA000ADF1840D1B91CB491C923CC9064610A83CC00EC980E80E0000248DF84240317F1A
:205CC0008DF84340B28D8DF84D40D6F828C0ADF844400F46ADF85A20F2898DF854706046AE
:205CE000ADF84A20027802F00303022B8DF8402000F3C38123461D93401C1F9353083CD24A
:205D000002F00C0EBEF10C0F0CD053093CBF10F8013B8DF84230BEF1080F04BF01238DF80D
:205D20004C3001D08DF84C40BEF10C0F0AD0737903F00303012B0CD142F00C0273898DF8B2
:205D4000402004E045780378801C03EB0523ADF84430530911D245780378801C03EB0523D3
:205D6000ADF8463003784578801C03EB0523ADF8483010F8013B8DF8433010F8013B32F05F
:205D80007F058DF855301ED0037833F003058DF8413040F06E8103F0030EBEF1030F00F017
:205DA000688113F0030F00F101000ED010F8013B02F00305022D8DF8573004BF10F8013B95
:205DC0008DF8583001E08DF841401490A0EB0C003F1AFFB2B942C0F24C81C91B8DF85470E3
:205DE000C8B28DF84D00074300F04781D00907D370891BF00FFB002840F03F819DF8402087
:205E000002F00C002146001F08BF01211E91910933D301211F9180B3B28920F02FFC904279
:205E200002D1F08D000A0ED220F028FC904222D0F08D01460B0A38BF101C07D39DF8402065
:205E400002F0030C2EE07089ADF85A20804620F015FCBDF85A10884205D0404619F06AFA83
:205E6000002800F00A818648026810A940469047002840F002819DF84020F08D02F0030CE3
:205E800001460B0A0ED2D3090CD39DF8413013F0030F07D102F00C030C2B03D0082B1CBFFF
:205EA00001231D93DFF8E081BCF1020F00F0C280BCF1010F00F0908012F0030F40F0DD8088
:205EC000704A92F82F20012A03D1B779002F00F0D4809DF8542002231A92040A9DF842507E
:205EE000BDF846B0BDF848A09DF855E09DF857C0DDF850908DF86430B2899DF84370ADF8EE
:205F00005C2034D21E9F40461B30046897B91D9F1FB1104610A913F011FB1F9800901C9F09
:205F20000197B07C1B9A0290F37C17A910A810F083FEA2E0307C002C8DF8560000F09D80AC
:205F400020F09CFBBDF85C20904240F0968030791F9F00901C9D01971B9A02951D9B039171
:205F600096F8300010A9049017A8A04785E0ADF830008DF820308DF8227034798DF83340A5
:205F80007189ADF818108DF835E08DF82350ADF826B0ADF828A0CDF82C90307C8DF836C018
:205FA000B27C8DF8320096F830308DF83420354C8DF83730B4F8481096F83270ADF82410BB
:205FC0001A998DF8387006A8ADF82A1005F0F0F853E0C046888902001D9FB58937B1000A3F
:205FE00004D2284610A913F0A9FAB5899DF85400B6791030C0B21EF048FE071C3DD07D8174
:20600000022038703E737C709DF854203A7207F110057D609DF84000800928BF01247C7222
:20602000149978681FF01AFD40460078394619F0D9FF22E09DF8417040462330B189036889
:2060400017F0030F10D110A807901048ADF8181006A91DF01DFB80B1062141730068407BCF
:2060600021461AF0A5FC08E03BB110A82246984703E08DF84D408DF8544021B0BDE8F08F38
:206080002C5A0020A05200200958002017FE01002DE9F04FD24CDFF84C93DFF84C83080CCE
:2060A000ADF1140D019180F0D4810846400838BF0020C0F0D881676820F0FAFD054620F0E3
:2060C000BFFA4FF47A764FF6FF726843B0FBF6F081B267B13B887888CB1A9BB2984210DDDB
:2060E000C01A8242C8BF82B2FF68002FF2D14FF6FF70904200F095802078012120F01EFC7F
:206100008FE0B87902287FD020F0D2FD054620F097FA97F838204946684301F10A03B0FBD0
:20612000F6F038801878904266DD97F83600FF2808D197F83800401C87F8380097F83700B7
:2061400087F8360097F8356097F839300020012101E0401CC0B283420FDD97F8365001FABC
:2061600000F285F0FF052A42F3D03618814097F83600F6B2014387F8361097F83400B98FF5
:2061800010FB06F2891A89B28842C7BFFF2087F83600011C97F8360099F82420FF2818BF45
:2061A00097F83A0006D140460078642510FB02F212FB05F0788046B9388D3E7A40F02000F3
:2061C0003885386C87F82E600BE03A8D4FF6DF70104038853D6C87F82E6097F8342012FB58
:2061E00006507862F879CEB287F82D0007F110007E8404F0DDFF10E0B87E97F82A10FA8B84
:20620000E9231CF031F905E0387CFF2802D0B8691EF022FE38461CF0E3FF2078012118F02D
:2062200091FA019880F001001DE12878012840F00D8195F8338095F813A06F6995F831002E
:20624000698802221DF000FC05F11C0405F1020B06460020002E02907BD1687F400876D317
:20626000A87FCDF80CA020F005F9BA4605F11009071C60D01C2013F02FFC061C59D0002140
:206280001C2215F099FAA87F69461EF020FD9DF801000221307530461DF082FF6888317D27
:2062A000B08095F83100FF22F07102FA01F0707478680078307495F83000B07495F83310F0
:2062C00011FB00F0303080B21EF0DFFC0746B76127B930461CF084FF00262AE01A203870EB
:2062E00000237B701A467A80E0885946B880B81D1EF092FEE0783C4BF87303F1200000889E
:206300003882608BB88560897882A0783875207B787599F80000B87599F80100F87599F91C
:2063200002003876039A7A76C7F81CA007F13001B962304600E000200028064600F0868081
:20634000274886F808800078012118F0FBF9002E7CD0307AA8EB0000B0F1FF3F04BF0120B8
:206360000290307CFF285CD06078400828BF4FF00008317DF07C4018404503DCF074FF20E5
:2063800088407074B069B17C227D806A08FB010021691FF063FB029F317D727C012398FB93
:2063A000F1F04843A8EB000003FA00F11143C9B27174DFB1401CFF2202FA00F0014371741A
:2063C000B769B17C207D08FB0100B884707CFF280CD1307CB16919F005FEFF20307420E00E
:2063E0003C5C002010560020C852002020F060FC074620F025F91D4B1D4A4FF47A71784386
:20640000B0FBF1F0308093F8241010781F4610FB01F1B87A6423401C10FB01F010FB03F088
:206420007080F17C327DA8EB0100801AB0F1FF3F04D0707CFF2801D0029F3FB1E175707CB8
:206440002076BBF80000214613F078F828461EF003FD0848007818F047F9051C7FF4E5AE66
:20646000019880F4004005B0BDE8F08F10560020C85200203C5C00202DE9F04FAF4CDFF857
:20648000C082DFF8C0B2ADF1340D60780591090C6ED20598400824BF059880F0010080F089
:2064A00081810598800805D30120059FE07087F0020077E10598000938BF0020C0F0728197
:2064C00058463230E76A00780026B146000922D220F0EEFB054620F0B3F8236B4FF47A711E
:2064E00042466843B0FBF1FC92F82610928EACEB0300824238D8B0FBF2F39BB29942ACBF60
:20650000DDB20D1CB0FBF2F15143401A80B2ACEB0000206300E00125EFB1C846F878A842ED
:206520000ADD401BC0B2F87040B109F101061FFA86F93E467F680CE087F803807868002E4E
:2065400082460CBFC4F82CA0706038461AF0C2FF5746002FE2D16078B9F1000F04D1002101
:206560002163082118F080FC059880F0080019E118F0BAF8071C00F01281B87FC0B9788CC7
:20658000E56A132815D1B7F80290281C11D000260188894508D14568002E0CBFE56275600D
:2065A0001AF098FF284601E0064640680028EFD1E56AB87A97F831102E46022855D17888FA
:2065C00066B1DFF8E8C13288904204D1B2789CF80030914247D07668002EF4D181468A4683
:2065E0004646002D08BF002004D0012015B16B68002B34D1F18E814237DD082013F06CFA56
:2066000096F82610002830D0A0F8009080F802A0C17000234360E36A83B9E0629BF83200C5
:20662000000911D220F044FB054620F009F84FF47A716843B0FBF1F0206300E06860584695
:2066400090F83200000910D3607808211AF022FF58B96078B28E082120F06DF905E0401C5F
:206660001D4680B2C2E7F37096E0514805683878012806D0022840F08F80384617F024F943
:206680008AE007F11004B81CBE8908943B7E0690FA7C07967969099397F819B00A923C7F3E
:2066A0000B9107F11C0604F00C000C280DD0B87F4FF0FE09FF2804D01FF0DCFE041C10D1B1
:2066C0006AE0002D68D06C680FE0B088FE211BF0E7FE8146B9F1FE0F5ED01FF0CBFE041C5D
:2066E0005AD020781EF0BEFF05464FF6FF7A0BE020781EF0B7FF054606E0B078FF284BD121
:206700002D68002D48D06C68002C45D0AB68AAF1010823B9A3680BB1B3F8028007E0217883
:206720000220984718B1B0F800801AF0D3FE3389227898450AD03AB943B11CE0085800201C
:2067400010560020A05200209A4514D196F80280B27008980090099B01930A9902910B9A68
:206760000392CDF810B0079B069A3046214611F077FA86F80280307800F00C000C28BCD109
:20678000B08849461BF08CFE8146B9F1FE0F03D01FF070FE041CABD138461EF05DFB0598B2
:2067A00080F400400DB0BDE8F08FC04636560020805C00202DE9F04FC64D20F03100ADF14F
:2067C000340D0B9095F83F00002840F06481687804211AF05FFE002840F05D81AF780B9868
:2067E00095F83F10012F00F03F0040EA010085F83F0000F0D3800120A8701FF0BFF901280B
:2068000005D156201DF046FB08B120F03EF8B24C00202071E06808B11EF040FFAF4847683C
:206820000023A24680467FB10C24786800781EF0F9FF061C05D0327C1AB10020824200F382
:206840001F813F68002FF0D118461DF04DFE002859D1D8F80470002F55D0786800781EF0FB
:20686000E1FF061C4CD0337C002B49D04FF0000844E074690C2018FB00F94C44E079C008D6
:2068800038D3786800788DF814002088ADF81600A088ADF81800079A089B069905981AF02A
:2068A00099FFB0B90DF1240B00210422584614F083FF74694FF6FF700090CDF804B00A2378
:2068C000029302460392CDF810B034F809104C440AE002681189D388009102F10A00019084
:2068E00002930391049021887868A288007814F0B1FB337C08F101005FFA80F84345B8DC6A
:206900003F68002FA9D19AF80200DAF80C20162410FB04F081B256201FF046FF0AF10C0652
:206920000A282BD0092825D01EF0B8FE56201DF0B1FAB0FBF4F0C7B238461DF0D5FD012884
