:20000000003A012035EE010039FB021039FB021039FB021039FB021039FB021039FB0210BD
:1C00200039FB021039FB021039FB021039FB021039FB021039FB021011FB021002
:200040002DE9F04FB14EB04C05460121ADF1540DAF78327894F842000E91297843293EDC7F
:20006000432900F00287282920DC282901F00F80002901F09A83891E01F08483491E01F04F
:20008000E683491E01F0DF83C91E01F07083491E01F01983491E01F00D83DFF8E882DFF87E
:2000A000E8C2C91F122949D901F08FBB2A3900F0DF87491E00F0D787DFF8C4C2491E00F0F4
:2000C00070870E3900F01087491E01F0AC83491E01F0A583491F00F0DB8601F076BBCE2982
:2000E00019DCCE2900F0A483453900F09C86491F00F07F86491E00F06686491E00F0588698
:20010000491E00F04986533924292CD92D3901F05E8301F05ABBD73900F0FA81491E00F0CB
:20012000C680133900F09880AE4A0E397CD0491E46D0491E3ED0491E01F047BBDFE811F086
:20014000B00A750A5A0A450B7E0B420A330A450B110AF009450BB8098509450B7A0B770B46
:20016000BC088E08B907DFE811F0560B520B4E0B12064A0B460B420B0F063C0BF405B6056B
:2001800085055A054905390529051D0513050A05370B0105E704BF04850460045304E10355
:2001A000D503CA03300B300B300B9F037F03300B300B6D036868002800F0138600F0E9BDC8
:2001C0006868002800F00D861146097831F0010140F0DF850488466802208DF8200031469D
:2001E000ADF8224009A826F0DEF808A812F032FC012815D14FF6FE70A0420BD0304624F072
:2002000054FF28B9002120460A4622F01DFC08E0002006E0002130460A461DF0C3FF00E024
:200220000E980F9513903AE1696891B11046007830F0010040F0AD85084600218DF820102E
:200240000990022108A88DF821101AF087FC01F0CFB90F9500F0C5BD6868007878B90020C7
:2002600024F086F923F03AFB0E980DA98DF83400522021F0BFFD24F099FD01F0ECBA4FF6C9
:20028000FF7024F075F930784FF480711EF0F6FC30784FF480711DF0E9FA00200DF1350171
:2002A0008DF83500522021F0A5FD01F0D4BA68680F95002800F0958500681090807E24F020
:2002C00041FA061C00F0B1821098C76900252C464FF003093878A04200F302810F2410FB9E
:2002E00004F0401CC0B2401919F03EFB5FEA000800F0998220F0CCFD002840F0EF80002580
:20030000139588F8005050E078560020D05100201099032315FB03F6BA1991F81AA0B1F86F
:200320000C9052880F2015FB00845046494622F023F8BA195288834608AB50461FF098FFCD
:20034000641CBBF1FF0F21D000B3A8489DF827300168D80838BF8C2019D39DF82600162317
:20036000207103FB0B10C18800F10E02A4F805100189C4F80B201398A4F8071007E0C0461C
:2003800024550020205C0020045D002086202070B8194078BB1960705888608098F80000F4
:2003A0006D1CEDB2401C88F800003878A842AFDC1098817E474600F10E064FF00F09858976
:2003C0003A78109190F80AA01196139912950C468A4266DC204626F057FA061C5AD0139D75
:2003E000024640E0D955002015FB09F0391838184078491C02F8010B487802F8010B8878B4
:2004000002F8010B4888001202F8010B0B7843BB4B78F3B9087902F8010B487902F8010BB0
:20042000B1F80500001202F8010BC87902F8010BB1F80700001202F8010B0879834625F088
:20044000C4F970B1D1F80B10584614F0FDF8024607E0487A02F8010BB1F80900001202F88E
:20046000010B6D1CEDB23878A842BDDC139900910E98019002900391CDF810A00594129AC1
:20048000069610980791119909230DF0CBF8304626F03BF9384620F04FFF25F009F813988D
:2004A000C4E111FB09F3F818FB185E78241DA4B2401C86B9467866B90079834625F085F9B2
:2004C000641DA4B238B1584619F038FC001984B201E0A41CA4B2491CC9B279E74046A0E1F4
:2004E00014FB0972109930785288898908AB1FF0BFFE50B19DF82600014625F066F920B16E
:20050000084619F01BFC2D18EDB2641CE4B2E1E668680F95002800F0648400681090807E32
:2005200024F010F9002800F080811098D0F81C8098F80000002800F078818000401C19F0F3
:2005400013FA0028119000F06E8125F0A5FE20F09FFC002840F0648100261396129698F83F
:200560000000B04200F3E4801398012840F08C80CC4DA878EA68162111FB00F081B25620BB
:2005800026F01CF805F10C0640B9A8783268162111FB00F081B2562026F016F860788021FD
:2005A0001EF06CFB2F78B80019F0DEF9B8465FEA000B69D02E78B8F1000F0CD005F11800B4
:2005C000594642784A70428810F8144B4A807F1E01F8044BF5D1002E3CD037464FF0000963
:2005E0004FF0140AA6B305F1180411E080650020002808BF4E4607D041680668216120F03A
:200600009BFE207B401E2073304620F095FE2E7820690028ECD1761EF6B216FB0AF2A01887
:200620004188618041786170C188E1808188A18001890C30218109C804F10C0181E8090005
:20064000105D2070A318C3F8109083F80C902E707F1EC7D10CF07CFDB8F1000F11D0183542
:200660005C4647466078618822F008FAFF2804D02678810001EB00116E547F1E04F1040403
:20068000F0D1584620F058FE12981199087018B9002048700E9F0F70109890F81AA00C46B8
:2006A00000F10E098689857A2078042110FB01F0804626F0E9F8071C1ED00146002022789C
:2006C000824222DC012A03D164780CB9DDF83880002000900E99019102910390049532460B
:2006E000CDF81480072306974946079050460CF099FF384626F009F8119820F01DFE24F00D
:20070000D7FE22F069FE002090E08200A3185B780B70A3189B784B70A318DB78A2188B7024
:20072000B2F80320401CC0B21212CA70091DC6E7109B9F890E2016FB00856D1C93F81AA088
:20074000B5F80190394650464A4621F015FE834608AB50461FF08CFDBBF1FF0F48D00028EE
:2007600046D02F78002F58D19DF82600E97888423CD19DF82700C00836D3BD480168A88846
:200780004FF6FF72824201D1EF88B7B1162202FB0B17F880E8883881E87825F016F800B300
:2007A0000E370021042238461AF010FFE87819F0C5FAD5F80A10024610E0162000FB0B157E
:2007C0006889E880A889042205F10E070021288138461AF0FBFE042205F11201384625F051
:2007E00055F80E98139018E08C2002E08D2000E08720129BDDF844C099000CEB01025070D0
:2008000028780CEB01075B1CB8700CEB0102DFB21297B5F80110A2F80310761CF6B29EE63D
:20082000119820F089FD102000E002200F9DB1E26868002800F0D5826868006822F038F94E
:2008400000F0D6BEAF68002F00F0CB8200246C7040B12046014604F069FB002808BF201C70
:2008600000F0B8810E98B5E16868002800F0B982002069686870097861B984F8460094F83E
:200880002100401E84F821000E98014621F0ACFD00F0E1BF25F062FE0E98014606F0BCFCF5
:2008A00000F0D9BF746500206868002800F09982067847680021082208A81AF087FEE7B165
:2008C000CD4800210170AEB1761E0ED0761E0AD0761E03D0761E10D10E990170384608A90F
:2008E00015F090FFBFE20E990170384608A920F013FBB8E21FF09AF9B5E20220B3E2686804
:20090000002800F06E82686800F1120120F004FB00F06EBE6868002800F063826A681078A9
:200920005188928814F0AEF800F062BE6868002800F0578290F8009046888188B0F806B0FC
:20094000B0F808A00A301090C94807790F91002F00F03D81C5490F68002F00F04282804631
:200960007868007881454FD124F066FE00284BD0037C002B48D04469002C45D000200C2280
:20098000834240F32E8210FB02F1615A8E4238D10E2018F0E9FF071C00F01981002407F136
:2009A0000A0004235B1E00F8014BFBD1BC80FF2038704FF6FF737B803C81FC8087F8009080
:2009C0000F9A7E801099BA8007F10A00A7F806B00422A7F808A024F059FF082018F0C4FF6A
:2009E000D8F8141018B9384620F0A6FCEFE007604160C8F8140098F81000401C88F81000CB
:200A000067E1401CC0B2BBE73F68002FA8D1E8E16868002800F0E5810020687068681BF0E5
:200A2000ADFEA968088000F016BFA868002800F0D88100216970AD68267860786F1C002EEE
:200A400008BF29700ED0402120F056FC4FF47A710F2300F2E730B0FBF1F116FB03100F3834
:200A600028702678002F00F0F6863046B3E0C04680650020AF68A18F94F83F2094F83E3065
:200A800094F84060D4F838C094F841E094F8438094F8449094F845A094F846B0002F00F0F8
:200AA000A08100276F70AF683981A968CA72A9688B72A9680E73A9688873A868C0F804C0B9
:200AC000A86880F80DE0606BA9680860A86880F80F80A86880F81090A86880F811A0A868D5
:200AE00080F812B000F0B7BE6F68002F00F07981002068706868077D17B1C07C84F8450056
:200B00006868877D17B1417D84F84610077C17B1C089A0876868077B17B18068A063686819
:200B2000877C1FB1407C84F84100686807790FB10068606300F08FBE0021697070B194F84A
:200B40003F0080090AD208A808221AF03FFD25F0E1FA08A817F036FC00F07DBE25F0DAFAE4
:200B60004FF4FA7024F012F900F075BEA868002800F037810020687025F044FD2AE0C34843
:200B8000A9680078002900F02C810021697021E06868002800F02581686800781FF084FAA8
:200BA00000F026BD6868002800F01B81002068706868007805F086FE00F04DBEA8680028F2
:200BC00000F00F81002068701FF04CFD08B90E98E0E00078AF68387000F03DBE6868002804
:200BE00000F0FF80002068706968088889781EF0A5FC00F030BEC0468055002068680028AC
:200C000000F0EF80B74C6968082204F10C0024F03DFE686801896180807A207097E068681B
:200C2000002800F0DE800188ADF830104088ADF832000CA9532021F0DDF850200DF1320182
:200C400021F0D8F8E1200DF1360123F007FB68689DF836100079884279D08DF836000DF178
:200C60003601E12021F0C6F871E0C0462C5C0020746500206868002800F0B380007821F0D1
:200C800013FE686896F83C104078884213D086F83C000DF13701E12023F0E0FA68689DF8F1
:200CA00037104078884206D08DF837000DF13701E12021F09FF868680E9F407807FA00F0D4
:200CC000F06424F093FB0024A6F8944038461EF009F920465EE06F68002F00F082803878AE
:200CE00086F84A007C887487387A86F83C007B89F3877A68F264B989A6F84810B87B86F822
:200D00005C00F87B86F82900387C86F827007C697465B86996F89610B065387F884201D08A
:200D200021F0C2FD696806F15D001D3125F034FD96F84A0006F12404082808D12120742154
:200D4000224625F041FC0020022121F0F1FC002020E06968002944D00888498821F092FF67
:200D600070B9696808880E9A498820F07FF969680888498821F086FF002808BFC82009D070
:200D80006968097941704CE0686850B301E0686838B312202C465CE26868002800F07981F0
:200DA0006A6810889178D27821F04EFE00F020BC6868002800F06D816868017A427A1DF063
:200DC000F1F900F015BC6868002800F0628141788DF8201081788DF82110007824F04CFBAD
:200DE00008B90220D6E70C3008A9022224F04EFDADE76968002900F04C81A868002800F070
:200E00004881087808A923F06CFE6868A968007808709DF82000A96848709DF82100A96845
:200E20008870002036E16868002800F032810A300778002F0CBF00220E9A47780FB142F0BA
:200E4000020287780FB142F00402C7780FB142F00802007908B142F0400269680888002332
:200E6000891C21F035FA044633E76868002800F0108102206F688DF828003988ADF8201074
:200E8000FA78B97808A81DF0A9FFB1E3285A00206868002800F0FD8002218DF82810018846
:200EA0004FF6FF70884205D0821E8A4202D0C01E88420BD125F0ECFAADF820006868C27A51
:200EC000837A811C08A81FF09FFF687068680188ADF82010C27A837A811C08A81FF094FFED
:200EE00086E3C046C05600206C68002C00F0D18002208DF828002188ADF82010634622797B
:200F0000B4F80680267AD4F80CB0277CD4F814A061880F921A1D14680346F21912FB03F0C3
:200F20000F305FFA80F9B9F14E0F00F39A8025F0AFFA884233D121700812607024F06AFC0B
:200F4000A41C0146204625F027FC04460F98207084F801804FEA2823A370E670241D66B129
:200F60005846A41E017804F8021F30F8021B761E4FEA21216170F5D1A41C27705FB1641EA7
:200F80005046017804F8021F30F8021B7F1E4FEA21216170F5D1C74820224B465DE01846B4
:200FA000F8E66C68002C74D002218DF828102088E146ADF820006288A388A679D4F8088013
:200FC000277BD4F810E0D9F80400F41914FB01F1891D5FFA81FCBCF14E0F42DC9DF828105F
:200FE0000F2918BF022908D1BDF820404FF6FF71A14204BF891EADF820104FF6FF7191426A
:2010000008BF8A1E00F8012B111200F8011B00F8013B1C1200F8014B00F8016B66B141465E
:20102000801E0A7800F8022F31F8022B761E4FEA22224270F5D1801C07705FB1401E714650
:201040000A7800F8022F31F8022B7F1E4FEA22224270F5D148460622634608A91CF0A2F946
:2010600098E6102096E6686898B10220052215E0686870B102206F688DF828003988ADF8F2
:2010800020103A79798808A823F0B0FE82E6686810B902202C46DFE0022002468DF8280090
:2010A00068680188ADF82010418808A824F0C8F99EE22C466368002B00F0CD80187D24F0E6
:2010C00021FA002800F0C7809D691C331F78002F0CBF002002205F780FB140F010009F7880
:2010E0000FB140F00800DF780FB140F020001F790FB140F040005F790FB140F080008346B8
:201100006068007D25F0C0F85FEA000800F0A3806168887A8DF829008889ADF82A00087880
:2011200002288DF828000CD001280AD00F2808D0032809D1891C08A8082224F0A7FB6168E7
:2011400002E04888ADF820008F7B002F73D0780018F00AFC061C08BF10207DD000216068C7
:20116000877B8F4261DCC18A838CCDF83C80826A13950C2F109190F822901193BDF82080E1
:2011800012924CDA40461DF071FA0C2816D14FF6FE701DF06BFA0C2810D1DFF80CC30E99E5
:2011A0009CF82C3100200CF59A7C1CF8082B9342C4BF131C081C491C0C29F6DBBB4D4FF65D
:2011C000FE7305EBC00568686B8018B120F0B4F80020686077B14FEA470A504618F0C4FBB2
:2011E0006860002808BF10201AD068683146524624F04CFBA5F80280C8486F70129B0078B1
:20120000139F28700F990093109A019708A8CDF808B0119BCDF80C900AF000FE00E00220D3
:201220006070304620F088F815E300694A00105A491CB05293E7886A00900195CDF808B04D
:2012400091F822000390CA8A8B8C08A841460AF0E5FD25461EE702202546C9E16868002833
:2012600000F0B182007824F04DF9071C00F0AB82387B1EF0F3FE0028687040F0EC82404663
:201280004568002D00F0E7822E46002116B9B74202D0E0E2B74209D1BD4219BF3868086078
:2012A00039684160384625F024FAD4E231463668ECE7C04624550020686800283FF4E9AE3C
:2012C000007824F01FF9002840F0BD8024F09EFB0A2880F2C581002638466E7024F004F9AB
:2012E000041C01D0207B68B11C2018F03DFB041C00F0B18231461C221AF068F9DDF83890CD
:20130000277100E0B1466868007820736868007A47462076B81C2061142018F025FB00283D
:20132000606141D0314614221AF050F96968626949689079897900F0F00001F00F0101435E
:20134000917168684068616980888880686840686169007808706868406861694088488035
:20136000686840686169C079C871686840686169007B08736069C079400018F0F5FA61697E
:2013800088606769B86818B13046F979814250DC387B400018F0E8FA386161690F691FB14D
:2013A00030460A7B82423ADC04F10C00804614F0C1F80746022F18BFB82F06D1207B1EF018
:2013C0004DFE404614F0B6F807463FB9B9F1010F20D1204621F024F8C8B11BE0B9F1010FD9
:2013E00015D0606968B183681BB118461FF0A4FF606903691BB118461FF09EFF60691FF07C
:201400009BFF4046314610221AF0E0F802E0204625F06FF9022F16D0B82F14D01BE26B68AA
:201420005B6842001B690969D35A53526169401CB7E76A68526841009268BB688A5ACA5231
:201440006769401CA1E7D02024E66868002800F0BA81A868002800F0B681002108221AF007
:20146000B5F869680878498822F056FB071C19D00020A968687038880880A968B8788870A4
:20148000AC68A078002800F0E68118F06DFA6060AA685068002800F0DE819278F91C24F0FE
:2014A000F5F9D8E1B120A3E0A41A0020D01B00206F68002F00F08781AF68002F00F0838110
:2014C0000024664668686C703768017820463FB13A79914204BF401CC0B23F68002FF7D16D
:2014E000A9680870A8680078400018F03DFAA968376848606868A96800784968002F00F0DB
:20150000AA813A79904204D1FA88661C21F81420F4B23F68002FF4D19DE1C046F2550020C9
:201520006F68002F00F04F816868002764466F700678206890B101798E420BD1002F04BF06
:201540000568256002D00168396005681FF0F4FE284601E0074600680028ECD120F02CF83A
:2015600079E102206F686870002F00F07481644639787A882068002800F06D81002703799E
:20158000994202D1C3889A4204D0074600680028F5D160E107B96746016839601FF0CCFE76
:2015A00020F00AF88DE06868002800F00C81807800280CBF00220E9A68680E9900881BF078
:2015C000B3FC15E06968002900F0FD80887828B1C87800280CBF0E99032100E000216A6856
:2015E000107908B141F04001108852790FF0E4FF687030E16868002800F0E580696808A83B
:201600000822091D24F042F9032024F0C3F96868C07B21F0FFF96868817B00910278838941
:20162000418808A812F04AFBE2E76868002800F0CA80384623F058FF041C13D11C2018F0BF
:2016400093F9041C00F0078100211C2219F0BEFF2771204620F0E4FE20B920461FF06CFE99
:20166000D120C5E7E0887E4940F00800E08040F00400E080022024F059FF7A49032024F0EA
:2016800055FF68680168089100798DF824000E9F8DF825708DF8267008A81CF0F3FCA7E7E7
:2016A0006868002800F08F8068680088002103F03DFCD0E06868002800F0858068680078A9
:2016C0007070002094E768486F680478002F7AD0686800212A22697019F078FF708F6968AD
:2016E00008806868B6F84870847269688F81F08F6968C8826868082206F1240707F139016D
:201700000E3024F0C3F824F085F8014668680822801C24F0BBF86868082207F11C01183030
:2017200024F0B4F896F83C10686880F823100E9869684E4C81F8210021784A0824BF6A6849
:2017400082F824008A0824BF6A6882F82500CA0824BF6A6882F826000A0924BF6A6882F89C
:201760002700C90924BF696881F8280073E0686848B390F90000044623F070FEA86800B1E8
:2017800004709EE76868F0B100200E9F687069680F7069684F706868022686706868062472
:2017A000C470696803230B7155E0686858B1407818B1FF20032120F0BBFF24F075FE0E98B9
:2017C0002B490860FEE7022012E7122010E70020687019F079F83EE00020687022F0B2F9BF
:2017E00039E010464FF480711CF0B6FE69E729461BF0DCFE2EE0294610F0AEF92AE0294645
:2018000015F07EFC26E0294624F05EFD22E029461EF05AFA1EE029461DF00EFF1AE02946A2
:201820001BF08AF816E0294616F08EFC12E024F0D5F8DDE629461DF05BF80BE038462946E9
:2018400006F0D4FA06E0294605F066FE02E0294605F0DEFF0E900E9815B0BDE8F08FC046C0
:20186000F510020045600200605400206E6B00207C0520432DE9F04F04464FF6FE70ADF119
:201880005C0D217AADF85400606808AA10F0CEFE002800F063849DF822000228B4BF01278A
:2018A00000279DF824000228A8BF0027BDF82A104FF0000A4FF6F87088420ED04FF6FE7050
:2018C000401F884209D04FF6FE70001F884204D04FF6FE70C01E884200D1574624F0D2FDEA
:2018E0009DF82310884240F03984002F00F03684208D9DF82660678EADF84C00ADF82E709F
:2019000056B161689DF821209DF83C30012024F011F8002840F022849DF82570DFF8C4B26D
:20192000DFF8C4825646002F4BD19DF83D00574658BBBDF82A0003461FF09EFC554602288B
:2019400008BF0125002D9DF8225018BF012759460988994208BF47F0020727B1002D14BF7D
:20196000402120210F4318461FF086FC012808BF47F00107002D3DD01298007824F09DFB4D
:20198000012818BF27F0010734E09DF8411041B1FF2906D09DF84000119A21F021F850B193
:2019A00028E0B8F83A00BDF82A10884205D098F84A0004281ED101261CE09DF8265022273B
:2019C00020E0BDF82A10FF2022F0A6F8002804BF3D1C082708D09DF8250047F001052C27B4
:2019E00040F001008DF8250005F00305012D08BF47F011079DF8265007F00200304308BF8D
:201A000047F0800795B998F82F0078B107F0220022280BD007F04200422840F09F831298F5
:201A20000078062818BF072840F09883F8094FEAA71555D398F832001299BDF82A2080089D
:201A40000AD20878C01E01282CD9001F2AD0C01E28D0801E26D003E00878401E0A2821D9AE
:201A6000BAF1000F1ED1B8F83A00904240F076830D780520BDF82C408DF8110004A823F0B8
:201A8000B5F8002800F06A830269032313271370511C0F704C7022128A70CD70448007F078
:201AA00051FD5BE368081BD30878032802D148780D2815D09DF8280038B1BDF82C000E99B6
:201AC0000BF07AFE012800F045839DF8270038B1BDF82A000D990BF06FFE012800F037834D
:201AE000B8F84800B4F84410884209D1CDF800A0208DB4F8421094F84620534610F01CFE95
:201B00009DF82600002847D0208DB4F8421021F0B9F89DF85190061C26D1B9F1000F12D133
:201B200098F89000012839D112980078062801D1680833D2BDF82E104FF6FE70401C8842EF
:201B400040F0BB800AE3042022F0A9FF011C00F005836420087001274F70208D488098F8D2
:201B600000001EF071F9F9E29DF821106068F5780A18537BAB4203D0F370504670606068D6
:201B800040180421401C23F09FFA7168814200F2E582401C706001E09DF8519098F8320086
:201BA0008008C0F0DB82B9F1000F24D0BDF82C0023F024FED0B9A349A34CBDF82C000B6815
:201BC00022699901A1EB83019047012840F0C6826169BDF82C008847A168BDF82C00884725
:201BE000BCE2C0460A520020D05100206168487800F0DF0048709DF8320038B161688879FA
:201C0000401E8871C0B28DF8320008B907F07F07380924D39DF82500F9084FF4805A14D210
:201C200079091AD3811011F0070F01F0070604D0072E1CBF761EF6B20EB907F07F0700F03B
:201C4000E30040EA8600C0B205E020F01C00C11021F0030108438DF825006168087298F8C0
:201C60004A00042800F0FF81092800F0FC8117F0610F40F0EB809DF82200012811D1129862
:201C80000078052800F0D68003280AD1BDF82A0023F0B4FD28B1218D08A815AA002300F0A7
:201CA000C1FE9DF8320068B99DF82200012804D112980078032800F0518208A821461DF094
:201CC0003DF94BE223F078FA002840F047829DF83D0000286DD19DF82400BDF82A10FD100E
:201CE0000028ADF854102ED13A0930D29DF82220012A28D0084600211AF0CCF8002620B141
:201D00004079012816D0022814D0BDF85400B4F8441020F0B7FF28B1807822F0F3FE08B191
:201D2000082807DBBDF82C0023F068FD18B104208DF824000126BDF82A10002E08BF022273
:201D400072D09DF824006A0838BF002300D340230DF13D021AF0D8F830B1616808784AF04B
:201D6000200A00F03F0008709DF83D0040B1BDF82A1010A81FF060FA4AF0400AADF8540042
:201D80009DF82200012806D0BDF82A00BDF82C10002216F0D5FD68082CBF40220022BDF82F
:201DA0002C10BDF82A0013F0C3F908B14AF0200A33E09DF840009DF84110119A20F010FE95
:201DC00000282ED09DF8410038B9BDF82A00ADF8540024F076FC00BB1DE011999DF8286039
:201DE00001EB400030F8020C002EADF854000CBF082010209DF827600EB10830C0B29DF81D
:201E00002560002106B1012140186168401CC2B2505C401E50544AF0400A22F0F1FB81465B
:201E2000A6E0BDF82A100B22BDF82C00002319F05FFE93E1218D08A815AA002300F0F2FD03
:201E40008CE1C046488302008453002078084FF0000967D39DF83300B4F828B0C14D494660
:201E600016900920EA79169B934206D1BDF82C302A88934201D1AE782EB9401E05F10805FB
:201E800001F10101EED1092921D0AE79E6B1B8F84810584621F006FF08B1761EAE71B2488C
:201EA00033210279FF2A02D00288934504D0491E00F12400F5D102E0A879401EA871A87945
:201EC0005228A4BF4E46AE7127F060072AE022F097FB81469DF8320028B9BDF82C00218D48
:201EE000814202D11EE0BDF82C00B8F83A10884202D198F80500A8B1218D08A84A460EF0FC
:201F0000B9FE58B1380932BFBDF82A004FF6F870C01D4AF0040AADF8540003E027F0200704
:201F20004FF00009B8094FEAA71510D394F8460094F8476094F948308DF81000E26B8DF84F
:201F4000116004A98DF8123008A803F02FFF68080ED3218D08A815AA4B4600F063FD5FEA33
:201F6000000905D012980078012808BF4AF0100ABDF854104FF6FE70884208BF4FF0000978
:201F80007A481B30007801282BD1618E4FF6F870C01D884225D0218D884222D0BDF82A20F6
:201FA0004FF6F870401C90421BDDBDF82C00884217D024F086FBA0B10179012918BF022930
:201FC0000FD101218DF810104088ADF81C0004A81DF05CFB28B105A81DF060F908B122F00A
:201FE00001F937F07F0000F0B980B9F1000F00F0B580208917F0B8FC071C00F0AF806168CB
:20200000228923F043FC002505959DF822008DF81000CDF80090CDF804A004AE0295BDF8FC
:2020200054100396228D237A384614F003F9B0B998F80100002800F091808DF81C908DF800
:202040001E508DF81D50BDF82A00ADF81A00BDF82C70ADF8187006A823F074FD7EE03846F6
:202060001FF06AF97AE05946BDF82A000988814209D01FF001F9022805D09DF8250000F037
:20208000030001286AD19DF8220000284DD012980178042903D19DF83C10022940D0017824
:2020A000072905D19DF83C2098F80000042A06D0032953D108A8002111F0E0FE4EE04FF424
:2020C00080611CF0DBFD092088F84A0027484178022904BF0021817723F09CFB01460D9883
:2020E00023F08EFA012839D1102022F0D8FC07460E991298401C8FB302223A7043780278BD
:2021000002EB03227A80807878704A201FF072FE9DF8260010B916490520087039461EE5E8
:20212000002008A90AF0E0FB18E094F8460094F8477094F948608DF81000E26B8DF81170CF
:2021400004A98DF8126008A803F030FE06E0BDF82A0001E0BDF82C001DF078FC17B0BDE896
:20216000F08FC046381B002098220020D8550020605400206F4A2DE9F04FADF14C0D1078DF
:202180000F91090C80F01F840F999046890B80F0F0830F99890980F025830F99490980F0C6
:2021A000A7820F98DFF898B1C00980F02E820F98000A06D31EF0A6F80F9880F0800000F089
:2021C00021BC0F98DFF87091DFF870A1400A80F0B9800F98000B80F096800F9998F8030055
:2021E000490B80F086804C460F99606AC90B6AD20F992078890838D20F98E188800A17D2A3
:202200000F98000906D301200F9F88F8050087F00800F7E30F98C00A08D3B8F84800012122
:202220001EF0D0FD0F9880F48060EBE30020E9E3B8F84850A8F848105020A11D1FF0DAFDBA
:20224000E6881E2754466089854205D0864204D0204623F09EFA00E066817F1E04F11C0486
:20226000F1D10F9880F40070CCE340B301A824F02CFA24F0FBF859460546032091F822804D
:2022800091F823608DF80D0003A822F0AFFC071C15D038690B2100F8011B00F8018B067055
:2022A0000126BE7723F0B6FA78627D807E7701A838620023BE763846237007F043F90F98AE
:2022C00080F002009EE380B159461431097801290BD18047A06A00B1804798F800004FF453
:2022E00080414FF47A7224F030FA0F9880F4804088E320B1002088F803001EF0FDFC0F9848
:2023000080F480507EE31EF0F7FC5946087A01280BD1497A49B198F800004FF47A7212FB68
:2023200001F24FF4006124F010FA0F9880F4006068E3C046D051002084530020501F002055
:20234000D855002024F0A4F84FF6FE71814200F0588198F832008008C0F0538100252C46DB
:20236000284621F0B3FE071C19D03879012816D0022814D0F879411CF97198F88B1081422D
:202380000DDABC727C72388820F07EFF388801A922F07CF801A81CF081FF21F023FF6D1C0C
:2023A000332DDDDBAAF11C051E26129435F81C0F4FF6FE7181420DD0287B98F88B70411C28
:2023C0008742297306DA20462746A87428886F7420F05AFF761EE9D14C46032104F138009C
:2023E00010F8047F0FB17F1E0770491EF8D1B84E4FF6FE79332709F1010936F8240F814507
:202400001FD001208DF804007588ADF8105001A81DF03CF9A8B1AAF11C041E2534F81C0F88
:202420003188814208D0BDF80610814204D002A8A11C23F0E5F810B1204623F0AAF96D1E27
:20244000ECD17F1ED9D1129C1094204621F03EFE58B1017931F0040107D1807A22F052FB99
:2024600018B11098401CC0B21090641C332CECDB22F040FA129D061C0ED02C46204621F0F3
:2024800027FC28B1807C22F03DFB08B16D1CEDB2641CE4B2A642F1DC10984019C7B2002FA5
:2024A00040D0B80017F060FA1190002808BF129F3AD0BA00FF2119F089F8129C2546109883
:2024C000A84218DD204621F001FE031C10D0187930F004000CD1987A22F014FB011C07D0EF
:2024E000009718885A7A119B17F059FF6D1CEDB2641C332CE3DBBEB1129C204621F0E8FB8A
:20250000051C0AD0A87C22F0FDFA011C05D00097119B28886A7C17F042FF641CE4B2A64282
:20252000EBDC01E01298119098F83000002808BF4FF0620805D023F0F1F9C0F154005FFA20
:2025400080F80320B8F1600F98FBF0FAA8BF4FF01F0ADDF844904FF6FE7BABF1020BB8F1C3
:20256000000F0EBF129D2025DDF84880BA45A6BF3C1C45F040055446032014FB00F0801C60
:202580008DF8050001A822F031FB4E46031C26D01869082104F01F02017045EA020141700E
:2025A000801CA4B12246C01E361F16F8041F00F8031F318809124170B17801F0070CF17829
:2025C000521E01F0070141EA0C118170EDD1A3F802B001209876184606F0B4FF00E0012017
:2025E000E90906D2641EE4B20CB109EB84093F1BFFB205F040052843B1D0119808B11EF01A
:202600009BFE0F9880F48070FCE1B54C092500214FF00409A078002841D0401EC6B260799D
:20262000A67022F0B5FF071C38D06EB9787B022804BF0620787331D0062078733868407B0E
:20264000F0211EF0E7F829E0A6791EB9787B032812D023E026790EB3E078401EC6B2E67096
:20266000E6B998F82500E0702079401EC6B22671787B032812D126B9204639461EF0BCFE23
:202680000CE087F80D9023F0E2FF00F00F00401C388198F8000020211BF05EFF01216D1E44
:2026A00004F10804B6D198F80000012912D040211CF0E4FA594691F82900012814D100202C
:2026C00081F8290015F050FC21F08CFD0CE0C0467422002040211EF00FFE28B998F80000D8
:2026E0004021642224F031F80F9880F0400089E110211EF001FE30B998F8000010214FF4CA
:202700007A7224F022F8C148DFF80483417808F5C674491ECFB217BB012141700020052175
:2027200022F014FC071C1BD006253846052122F00DFC0646388978B1401E80B2388158B9EF
:202740007889C00802D3387B20F086FD7D733868407BF0211EF05EF8371CE6D100E0477034
:2027600064274FF6FE7600252079A0B1FF2812D0401E2071C0B270B96079032805D16088B1
:20278000218802221BF0D6F86079012803D0268066806571A5717F1E04F10804E4D108F1FA
:2027A000DC040827207A401E2072C0B230B99948214620F0A1FE90B9668025707F1E04F1D8
:2027C0000A04EFD1944A0C2112F8080F08B1401E1070491EF8D10F9880F0100012E11DF011
:2027E000D5FCE4E720211EF087FD28B9D8F81000002808BF012616D024F064F9044623F0DF
:2028000029FE4FF47A716043B0FBF1F1D8F81000002808BF002004D088428CBF4FF0FF30ED
:20282000081A460867D00020042122F08FFB071C61D0FF244FF0FF3B06254FF0010A38462D
:20284000042122F083FB10903889864204D8801B83B23B8113B14BE000203881BB7B012B08
:2028600002D17889C0083DD3002B36D08DF804408DF805408DF806B03968086AC97F02AAA6
:202880000FF0D4FE4FF00009012808BFD1465FEA09001DD0788A40F08000ADF83600B87B19
:2028A0008DF838007889000908D3BDF8360040F48070ADF83600387B8DF83A007B6913B172
:2028C000187BADF8180001A9002202A803F06EFA7D73387B18F0C6FB0AE087F80DA007E06E
:2028E000381B00207D733868407BB7211DF092FF109F002FA3D10CF0F5F898F80030002089
:20290000012122F023FB18B1184620211BF024FE0020042122F01AFBB3B278B142460789BE
:20292000147822F013FBF8B9BB42AEBF0027FF1ABFB2204627B920211BF00EFE00200DE074
:202940007A00202123F004FF24F0BCF8044623F081FD4FF47A716043B0FBF1F0C8F81000D6
:202960000F9880F020004DE00289BA42D8BF171CD7E723F027FF294C0546201D00680746F9
:2029800098B157F80C1C98F8000021B94FF400511AF06CFF03E04FF400511BF0DDFD204642
:2029A00039460022001D20F06FFA284624F086F82FB13846FEF75EFF384622F057F90F98A9
:2029C00080F400501EE01BF099FD071C17D0144920310A78FF2A0FD03C780B460020944257
:2029E00007D0401CC0B2C200D1189A5CFF2AF6D102E0496838468847384622F037F90F985A
:202A000080F4004013B0BDE8F08FC0465C6C0020A41A0020090A0200C81B0020485C002073
:202A2000388002002DE9F04F064693460020ADF13C0DABF80000B06A099303460078884673
:202A400023F03BFB48B1708904461EF015FC022804BFABF80040B36A01D0002009901878CB
:202A6000C84DDFF82493401E0A2800F20B84DFE810F02F03B3020C049F028D015101090456
:202A8000BE00880066000B00BD4C207D012840F0F9835B1CB06913F8015B1F7823F049FE1C
:202AA000002800F0F7830379002B00F0F383032B80F2F0830E2D1CDCDFB9D04907752DB91E
:202AC00001EB85010A6BC261096B0AE001EB85010B6B9A01A2EB8302C2610A6B9101A1EB43
:202AE00082018161012180F8201021F07BFB002500E001250320B689A47F8DF8190006A824
:202B000022F074F8071C00F0C58338690C2100F8011B00F8015B04700124BC7722F07AFE50
:202B2000786204A9304621F0B1FC10B17C7704A838627E80BC76384606F004FDAAE35C1C36
:202B4000207820F01F0700F01F00012840F09A83641C04A8214623F01FFE284604A95D30B7
:202B600022F04EFD002800F08D83002F40F08A830834A2786178207801EB02211FF0DCFCA7
:202B800088E3688F7189884240F07C835C1C14F8016B04A8214623F0FFFD284604A95D3026
:202BA00022F02EFD06F01F0726F01F06002800F07183002E40F06E83780016F0D5FE011CB8
:202BC00000F0688367B184460834384663782278401E04F1020402EB03222CF8022BF5D187
:202BE000009105F074FE08461EF0A6FB52E35C789A1C34F07F0704F01F0E40F04B83377FA2
:202C000003201EFB00F0801CC1B2B94240F04283002714F01F0F04BF4FF6FE7C614618D01F
:202C2000D9789B7870464D4603EB012C5378117812F802EF01EB03213EF0770340F02A83E8
:202C40002B888B4208BF0EF00707521C401EEDD1BFB960464FF6FE72824212D004F06002C8
:202C6000602A0ED04D462A88A30907D2E30902D2904203DD0EE3904203DD0BE39142C0F29A
:202C80000983B08923F01DFD002836D1B0894FF6FF7121F007F8041C14D11FF0D9FF041C09
:202CA00000F0F88200211C2218F090FCB0894D460E35208028886081AA23A37402222274D9
:202CC00001216174207C032805DB0220072F2074BCBF7F1CFFB2677400202073A01C22F047
:202CE000E4F9002840F0D682307A002800F0D282B169A01C23F050FDCCE20021C171017A7F
:202D0000032905DB0221072F0172BCBF7F1CFFB24772BFE2484671890088884240F0B2827C
:202D2000307F022840F0AE82AA4C201D00884FF6FE71814240F0AE82162021F0B0FE071CB0
:202D400000F0A88201213970B07900280CBF081C02207870B06A4078B872000902D2B08932
:202D60001FF074F9B169B81C23F016FD0020F874287839461DF068F8B089A0808AE2C046E0
:202D8000D8550020D05100200A52002070891EF073FA002840F076825F78B94987B10C2F19
:202DA00003F1020380F276828C463D465A7818786D1E03F1020300EB02202CF8020BF5D171
:202DC000484675890488DFF8D892AC4200F0B180B37C002B00F05E823B1C0A974FF0000822
:202DE00011D0A74A38464146921E32F8023F9C4206D0401E01F10101F7D104E0F4820200B7
:202E00000A914FF001082846002119F043F800280B907DD0407901287AD10B98807910F023
:202E2000180F75D00B984188384622F0BFFB10B9B8F1010F6CD109F2AC404FF6FE754FF0D3
:202E400000080C97B6F80CB008904FF0010A0D95C14611E0B8F1010F08BF4FF0010908D040
:202E600023F0F5FBC0B290FBF8F101FB08F1A0EB01094FF00008C246089D1E271C3D35F820
:202E80001C4F4FF6FE70A04213D0A34511D00C98214622F08BFB60B96B7C53B1072B08DACB
:202EA00008F10100BAF1000F5FFA80F801D1C14521DD7F1EE3D1B44D332735F8244F0D98C6
:202EC000A0421AD0A34518D00C98214622F06EFB98B96B7A8BB1072B0FDA287901280CD09D
:202EE00002280AD008F10100BAF1000F5FFA80F803D1C14501DC0D9407E07F1EDDD1B8F116
:202F0000000F02D0B9F1000FA4D00D980B994880B37C5B4C581EB074F77C00970A9D0195DB
:202F2000029401220392B189B269708914F07AFFB0E1B4890C2F80F2AD818846ADF810400C
:202F4000BD488DF812700168CDF8148009B104A8884720461BF08AFB0C2803D14FF6FE70BD
:202F60001BF084FB0C2880F2958109EBC00505F59675686808B11EF0DFF92FB1780016F080
:202F8000F3FC686010B985E1002068606C80C3486F70007828706878002800F07B816868B9
:202FA000002800F077817A00414622F06FFC71E1307F022840F06681099828B94D46718932
:202FC0002888884240F066810998314609F08CFC5FE1C04684530020B5F8481040461FF0F0
:202FE00051FEA846074608202FB17D781DB90221397007257D70B16A0A79CC788B794D78E4
:2030000091F802A0CF7904EB02244A7902EB03296A0928BF1020AA0924BF0830C0B235F05D
:20302000700340F03781327F904240F0338105F07005680938BF002006D306A8083123F009
:20304000ABFB25F010050820A90907D3B16A091804A8083123F0A0FB25F0200520465146E6
:2030600020F07EFC08280DDA8D4B410001EBC001C9188879B84240F30D818F71002002E04A
:20308000C21A00200420B8F83A10A14219D048B9B189484601222B460DF0B8FC28B1F9E08A
:2030A000A41A0020042840F0F58006A804AE009049463A46534601962046029510F018FD20
:2030C000E8E0B189484601222B460DF09FFCE1E0B5F8481040461FF0D5FD4FF00609041C99
:2030E00003D06078002800F0CD80B06A817847780891C378017900F1050A03EB01200990F8
:2031000040461CF0EDFE9AF8001009185FFA81FAB80928BF4FF00E0937F0780040F0B2809C
:2031200007F01800182800F0AD80307F814540F0A9804FF00009CDF800900899B089524646
:20314000434618F01BFF032800F09C80002807F078074DD117F0180F18D195F8310028B123
:20316000B089414601223B460DF050FC09984FF6FE714A463B460DF049FC002838D14FF684
:20318000FF70ABF8000039E07422002047F00107780928BF47F00207B089394618F07AFE2F
:2031A00090B1817911F0180F0ED0417901290BD154B14088B5F848101FF064FD20B1437840
:2031C00013B1607898425DDCB089414601223B460DF01CFC60B94FF6FF70347AABF80000A9
:2031E000002C0CBF4946B169B089524622F01AF9BBF800104FF6FF70884243D10120009033
:203200000899B0895246434618F0B8FE099839461EF096FD698F81422ED1099823F051FA7B
:2032200060B10079012818BF022807D1099804A921F02CF908E0C046A054002022F0EAFA86
:20324000014604A823F0A8FA307A012803D1B16906A823F0A1FA06A8009004AF0197B06A06
:20326000407840F0300002900999089BB0894A4610F03EFC48460CE0B06A80F805A021F09A
:20328000BFF906E04FF00009F4E70999304610F0F5FD099009980FB0BDE8F08FF2550020DF
:2032A000801B00202DE9F04FCB4CDFF83083CF4DDFF83CA30E46300CADF11C0D80F05882EA
:2032C000DFF81C93700880F0FF81C74DB00880F0C381B00980F0AC81DFF808B3F00B80F02D
:2032E0004F81BC480768700980F02A81300928BF86F0080080F08783700A80F0BB80F008C2
:2033000080F0AE802069F10980F09180300A63D2B00A5CD2C54C300B2BD2F00A27D3142043
:2033200016F022FB071C1FD00025A846207A012813D1009704202946424614231EF0A4FE05
:2033400058B9206838606068294614223B46786004201FF0B1FC84F808806D1C0C34032D99
:20336000E4DB38461DF0E8FF86F480604BE3002049E3182016F0F8FA071C25D00025243483
:20338000A846207A012813D1009706202946424618231EF079FE58B92068386160682946BB
:2033A00018223B46786106201FF086FC84F808806D1C0C34032DE4DB38464146182218F0BF
:2033C00005F938461DF0B8FF86F400601BE317F073F986F4007016E319F014FF207805289E
:2033E00019D1E07904211BF049FCE07904211AF03DFA062022F0CEFA4046007800F0070061
:20340000022801D022F0F8FE20F0ECFE17F054F920F0FEFA01E020F0E5FE012020F0A8FBAB
:203420000320012103F0F8FE86F08000EBE2A0B115F012FE2069076820691DF07DFF2761A3
:203440005FB1FA8802E0F888801AF8803F68002FF9D1E079402123F07BF986F04000D2E21B
:20346000FF2003211FF064F923F01EF8C34901200860FEE74A4692F84A00082818BF042863
:203480005BD124322120742123F09EF8BC4D6868298800241BE0A30003EBC403C75C37F0E0
:2034A0007F0212D017F07F07C754034405D101A8FF210C2218F08AF801AB012021460C2201
:2034C0001FF0FAFB284629884068641CA4B2A142E1DCC04C4FF0FF085D460027E06995F8B9
:2034E000211080291FD169798DF809102A798DF808206B88ADF806302888ADF8040085F88E
:203500002180297D8DF80C10EA798DF80B20AB798DF80A30A86904903946102201AB0320A8
:203520001FF0CAFBE0697F1C2435332FD7DB00B18047002002211FF0FBF886F4807062E2FB
:203540004FB17968087818B14868007818F072FE3F68002FF5D122F09BFF1C34208022F057
:2035600059F9504608300078012806D14C4620784FF40061642223F0EBF886F0100042E2BF
:203580000120022120F08EFDC4B29CB3E00016F0EBF95FEA00082FD082464FF001095D46B9
:2035A00033272879012818BF02280DD18DF804906888ADF8100001A81CF068F820B102A9B9
:2035C000504623F0E9F882467F1E05F12405E8D112E0C0462C5C0020605400206C6B0020B9
:2035E000D051002098220020EC550020686B0020D85500204FF00008B8F1000F12D074B109
:203600000F204FF6FC778DF80C001F25ADF8047001A922464346B648009513F061FB4046C2
:203620001DF08AFE86F48040EDE1C04690550020207A50B92078062802D1072022F0AAF9CA
:203640002878012801D121F0B1FBE07910211AF083FF86F02000D6E1207A00BB2178E07968
:2036600008291AD121F0C6FD092022F093F9B3480078052806D0072809D10720012103F0D8
:20368000CBFD04E0012020F039FE19F0BBFD2878012816D121F08AFB13E010210FE022F0EA
:2036A000EBFEEF2803DB002020F028FE09E022F0E3FE1030C0B222F0F1FEE07901211AF0C2
:2036C0004BFF86F002009EE1012022F063F92879677800F007011220012918BF02293DD136
:2036E000E7B1032F1AD0012F38D1012936D10A2022F050F94C4620784FF480611BF0BEFA16
:20370000502005A920F0AAFDBDF81400A4F84800BDF8140000211DF055FB26E022F034FD97
:20372000002818BF032F15D1022022F033F9B749E06809781CF022F8A97909090ED270B9E6
:20374000B34A5178491CC9B20429517004BFB149E16003E022F07BFF10F020FB28B1E0791B
:2037600001214FF47A7222F0F3FF86F001004AE1DFF8A8A24FF0000B3CE1C0467C052043E0
:20378000405C0020A4484B4601681F78A64825784278781E00F00F81401E44D0183800F0E3
:2037A0002381B93800F01C812A3836D03F1F4D462AD0BF1E10D0BF1E40F01981012A18BF2E
:2037C000022A40F01481287914F0CEFB20F00AFD0DE1C046485A0020012A40F008816F88E2
:2037E000002F40F00481281D01A91FF045FC012840F0FD8022F04CFEADF80C002D1D0295E2
:2038000001A814F0C9FEF2E0012A18BF022A40F0EE80484606F0D8F9E9E0002900F0E780F8
:2038200048468847E3E0012A18BF022A40F0DF809AF820005746072818BF082805D1237AB3
:203840001BB9012103F0E8FC2578032D78D00A2D11D0042D15D00D2D13D00E2D11D00C2DE6
:203860000FD0002D00F0C38020F0D2F8E07910211AF072FEBBE098F8000000F007000128E0
:203880005ED0257A607835BB84F80BB0584638711DF076FAB8B1062022F07CF86348634D28
:2038A00080792D1D000904D34FF40040012114F015FA287800F00700022801D022F09CFCF1
:2038C00020F0A6F893E0052022F064F842F2107021F05CFA8BE001281BD1E07A401CC0B271
:2038E0000428E07206DB4E48007801280FD010E0245500204B4800884FF6FF71814206D061
:2039000003206070012767710425A57201E084F801B01FF009FE1EF0ADFF4448801D0078F5
:20392000000903D34048007D012860D1607803285DD10820012114F0D1F958E098560020BA
:20394000257A002D35D1E07910211AF005FE1DF017FA38B320780A2809D198F8001001F0C0
:203960000701022903D02F490822891C0A7003280CD120F04DF897F82000022806D1012052
:2039800020F0F6F80220012103F046FC062022F001F898F8000000F00700022827D022F0C5
:2039A0002BFC24E0052021F0F5FF01201DF024FE1DE05846FAE7022D19D1012A18BF022A9F
:2039C00015D122F0C5FD10B113F09EFC78B122F0EFFD00280CBF584601201EF029FA06E0DF
:2039E000484613F08DFF02E048460EF0D3F9484621F03CF9E0791AF081FD5FEA00097FF4F6
:203A0000C1AE86F4004007B0BDE8F08FB9560020C056002000F8FF071858002078560020C1
:203A2000D057002018520020D8550020686B00202DE9F04FB54CDFF8D8C294F820708846C4
:203A40005FEAD800ADF1140D80F092825FEA184006D3DFF804B34FF6FF7AAAF1010A59E15C
:203A6000604600785FEA5831A0F1020080F03181B84DA91D09885FEA182280F0EA805FEA9F
:203A8000980180F0D1805FEA183028BF88F4006080F055835FEAD81080F0A280E7685FEAD5
:203AA00098305DD2A0695FEAD83138BF0020C0F04683A74928C96A4628C2098811806769B7
:203AC00038B9384622F02AF9A061C0B997B90B2011E0017BFF2906D031F07F000FD101F071
:203AE0007C0104290BDBE06940B9384622F016F9A06120B9002022F0D7FB2EE0A061607890
:203B00004FF4804141F2883222F022FE94F82010A069082919D00188ADF80010017A8DF865
:203B20000810017B491CC9B231F07F07017306D10188427A684621F059F9A06909E000884F
:203B400000210A461EF080FFF7E7017B41F040010173406922F0E2F8E06188F48040EEE245
:203B6000DFF8C0B200264FF0030AB14687B96078012E04D04FF400511BF080F805E04FF439
:203B800000514FF47A7222F0E3FD88F40050D6E27D68287810B3F02820DC51464A466B46FB
:203BA0001CF066FBD0B1029803889BB984F83E908DF80DA08DF80C9003AB0A204946524602
:203BC0001DF088F9DBF8001084F83E9031B12878884703E001880126491E01803F68C5E70B
:203BE0001CF040FD07462078BFB1401EC0B22070A0B160784FF480411DF07EFB30B9606962
:203C000022F08CF810B938781AF0FCFA6078402143F6982222F09CFD207810B90B2022F020
:203C200043FB88F040008AE2B0F1FF3F18BF00280CD168460021082217F0C8FC684614F0F1
:203C4000C1FB18B1607802211AF086FC88F0020075E2084600211CF0BDFC28460678FF2444
:203C6000C6B14FF6FF75001D00212B4610F8142F52080BD3C7884FB1BB4207D055B102892E
:203C8000BF1ABAB29542C4BF0C1C151C761E01F10101EBD1FF2C19D02E49A00000EB0410BE
:203CA000401818300189C088401A80B250B929484470FF200AF098FBFF2120460A461DF049
:203CC0004DF900202349C88021F0C0F888F0800035E2B0F1FF3F18BF002814D13846401E53
:203CE0000CD0801E0FD194F8220002280BD1012084F8220000201DF07FFC04E094F82110AE
:203D000000201EF071FB88F4805018E278560020D955002060781AF0F1FB051C08BF88F455
:203D2000004000F00C822F78D32F00F0098194F82000B84212D00A2F40F0168194F83F004F
:203D40002871A16A002900F00F81A81C88470BE1087E020074650020D0510020B94840781C
:203D60007F1E00F09680BF1E40F0FE80012818BF022840F0F980AF787FB37F1E40F0F480A8
:203D80006F7860781FB322F083FB4FF6FE720021824218BF0121081C04D15846408F1146B2
:203DA000814209D010465F46ADF8100004A9A7F83AA053201EF01EF81FF0B6FB1EF05AFDD5
:203DC0005946002081F84A0016F07EFDCCE0022140F6B83284F82210A7E06878002854D18F
:203DE00022F0E6FB00210E4603460BF1080063621F460160002F44D1002B38D0002E1F4679
:203E000035D0B146C64820F08EFE01280CD08D48408E4FF6FF7181420CD03988884209D09C
:203E20001BE0C0462C5A0020BD4807F10C0121F0E7FB90B1BBF83E003989884201D1824587
:203E400001D1FB784BB19BF836007979884209D17C48B979807B884204D038461EF028FE81
:203E6000761EF6B2BF69B9F10109CBD1636A226B002AA9D0184631469047206B002873D1EE
:203E8000A2E7BF69761CF6B2B4E700201DF0D0FF6AE0012818BF022866D16F7894F845003D
:203EA0003FB194F84410491CC9B2884284F8441043DB94F82100401E04D0401E3AD0401EF5
:203EC0001ED051E022F060F998B994F8460020B1E06A002848D0804746E0002102200F4655
:203EE0008DF808000246ADF80070684621F0A8FA13E0012022F032FB014603F08DF933E051
:203F0000AB2000216A461BF007FFCDF808D004208DF80C0002A80FF08BFC60784FF4805186
:203F20001AF0ACFE607841F288324FF4805122F00FFC19E01EF03CFA16E001200021DCE79F
:203F4000E88948F20101401A0BD0401E05D0801E0AD1284616F076FC06E0284613F01AFE7E
:203F600002E0284615F0E4FB284620F07FFED1E66178381C09D0401E00F0DB80C01E00F0DE
:203F8000D180801E00F0C080D7E094F83F00C10880F09F8081087AD20009C0F0CE80062026
:203FA00084F8200022F0D4FA00286CD01CF05AFB2569071C67D068684078800837D338780E
:203FC000032100226B461CF053F928B968684078410831D20E201BE002980188B52912DAC7
:203FE000B421018060784FF47A724FF4005122F0AFFB5448416829B10078FF2814BF3878D3
:20400000FF208847256968684078400803D2092022F04AF90AE0092003228DF80C0003AB8A
:2040200000218DF80D200A201CF054FF2569686840784108C0F0818043490E6826B98008AB
:2040400021D37AE0D855002038781AF0DBF8002600B101260325301C02D00E2022F024F997
:204060000C2020706078402143F6982222F070FB0A208DF80D5003AB00212A468DF80C00FF
:204080001CF028FF59E00E2022F00EF955E0042294F8400084F8202040084ED394F84270E3
:2040A000002F3FD160460078012818BF022844D1012504F120000021E57017F087FA032008
:2040C00084F8200028461CF0A9FA284621F03AFB33E004F12000052594F84010057089083F
:2040E0000FD394F8421061B90121E1700422002117F06CFA84F8205000201CF08FFA0220FC
:20410000E4E72846002111E0002084F83E0084F8200032220846042122F01AFB0DE0C046FD
:204120007454002021F0B6F90420012103F074F803E0012001461EF057F988F0040005B058
:20414000BDE8F08F285A00204C5A00202DE9F04FDFF814B3C34C01214FF0E047ADF12C0D72
:20416000DBF804002569C06808931F400170C84807924FF0000101704FF0020000EA0200C0
:2041800008BF002840F0F482DFF80893DFF8088311464FF480301E4600270840374008BF5B
:2041A000002832D100204FF4003110EA060701EA020108BF00290ED137464FF480013840C3
:2041C00001EA020108BF002900F0C6820020287119F050F9C0E22871EB201EF09DFC4A4641
:2041E0000020414610700878862801D11EF016FD22F0E8FAE1690A68002313710968E1616D
:2042000022F05CFC21F0EEF9A6E20020DBF80070287107F1B8000168DFF880A20F782FB937
:2042200051460F7817B1D0F8940480471EF0DCFC812756469A4937709A4D0860FF232B70B1
:204240002778A7700021A1812069DBF80050007A4A460E46801E81B2D5F800011670C089ED
:204260000A918842C0F26C82E1690831096804F1180001600426A6810A98DBF80060657ECE
:20428000A17EE37E04F11902C01E80B206F1B80C0A9005EB012051786081C1F30119DCF8CC
:2042A0000010237109780692002908BFB9F1020F00F04682B9F1020F00F3428219B110F0A2
:2042C000070F00F03D82667800F00705AD1E022D08BF002E00F0348231B141460978862911
:2042E00002D1002D40F02C82001300F00200022864DA35435AD1DCF81C0090F883000228AB
:2043000051D0E1690C31097805A801700527A78122F058FA454606462878862840D1DBF895
:204320000000403001680F6837B9D0F80C058047DBF80000006C07689DF9140022F082FAB7
:204340007877DBF80000016C096800228A77006C9DF914100068C177304622F0AFFB267903
:20436000678922F02FFA41460A7807F01007862A15D1BB4D05F11E031A88521C1A808722F3
:204380000A7022F09BFBE879B04206D11FB9002018F02CFA07E01B20FAE7E920F8E7064674
:2043A000304622F08BFB21F01DF9CBE141460878862803D11EF032FCA77866788FB186B9DB
:2043C000012F00F0BD816089022F03D110F0070F40F0B681032F05D100F00701032901D017
:2043E000AEE16089010980F0AB81011301F00201022902DA810A80F0A38106994978C1F35D
:204400008108B8F1010F4FEAA111099100F09881012900F09581B9F1020F14DA00F00701FB
:20442000012918BF03290ED1B8F1000F0BD1099F002F00F0858159460968AC3109680F782A
:20444000002F00F07D81BD49B9F1020F0ED0099E11F808708A5DB918CFB256B3C10928D371
:20446000BF1E13E09C690020140100200A46099908EB0207891809793A795218C109D7B291
:2044800012D2099958EA010613D0BF1CFFB210E0105C00208E6C0020916C00208C6C002013
:2044A000706C0020FD5C0020099958EA010608BF02270A9AC0F30020391A60718A42C0F293
:2044C0003F81DBF800601146C91B091888B2D6F850122081743080B2884700286678606116
:2044E00000F02E810021742217F070F80020E07062891EB9C14902F020000870BF48617950
:2045000006784FF0000C002E30D000292ED102F00700032808D0012828D1DBF80000D0F8C3
:20452000D40090F882600EB3DBF80400406906781EB121F03DFCFE2815D0DBF80000D0F8BF
:204540004C02804750B9DBF80000D0F84402804720B96289617994F803C007E00420E0704D
:204560006289617901E00420E07084466569268905F1740305F17400AB65069B686093F8FF
:2045800001902E812089C9F3011A0029A5F85C001878AA8100F078004AEA00004CEA0000AC
:2045A00028744FF0FF06AE730CBF2079002085F83A8085F84900099885F83000A089002FD3
:2045C000A0EB010086B2A68100F0B580E169E78068463A468919083114F016F9BF19B8B2BC
:2045E000A0812846017C4FEAA90212F0030F02F003076D4601F0400843D0BAF1020F4FF0C1
:20460000000301D1C9090BD29DF801209DF8001001EB0221A0F844100DF10205A0F84210D1
:20462000804EB0F84410B6F842208A4203D04FF6FF728A4223D1032F14D06A78297801EB06
:20464000022189B24186B6F84020AD1C01208A4214D04FF6FF728A4218BF181C0EE0C0460C
:204660009859002060692946323022F095F8606937363146323020F0C3FF08350346002B5E
:2046800056D00698407886111ED06169BAF1020F03D0087CC00903D309E058EA070306D191
:2046A0006A782878AD1C00EB0220A1F84200032E05D068782A7802EB00220A8504E06069F4
:2046C0002946283022F068F859460968AC310A686089167886B1BAF1020F0DDA00F00702F8
:2046E000012A18BF032A0BD162692FB94E4BB2F842201B8893421BD100F00702032A05D0F8
:20470000012A18D1886A90F88200A0B1D1F89C116069884778B90020069FE070B9786669E4
:204720007878C1F3011100F078000843307402E018F0A0FE06E00BF0A1F803E0548A0200A7
:2047400020F042FF22F03EF8E1690A68002313710968E16122F0B2F9079A089F2021002044
:204760001140384008BF002930D020F0F5FE2DE02E4991F90000002803DD91F90000401E7F
:2047800008702B4991F90000002803DD91F90000401E0870114600201E464FF080770840E2
:2047A000374008BF00280DD0224991F90000002803DD91F90000401E08701F48012101705F
:2047C00021F054F90020287118F054FE184A92F90000A8B1079B089F02214FF0E0401940FE
:2047E000384008BF002914D092F90000002810DCDBF80000D0F84C0580470AE08E6C002017
:20480000DBF800700D480021D7F85824017008469047DBF80400C06800210BB00170BDE80D
:20482000F08FC0465057002092570020135C0020125C0020145C0020115C00200E5C00205F
:204840002DE9F04FAE4C04F124000768ADF14C0D17B1002087F84500DFF8A0A2002517F198
:2048600048030BD0BF6DA44E73612FB950460068D0F84C05804773695868706021F0A2FF3C
:204880001290082011F04EFE17F008FF564610B182A022F00FF91AF075FA684621F000FB27
:2048A000042069468DF80000284621F0DDFCA06321F060FA09A821F03FFC042009A98DF882
:2048C0002400284621F040FC206321F05DFA0DA821F042FC04200DA98DF83400284621F0F8
:2048E00043FC216B606319B974A022F0E3F8606B10B977A022F0DEF8A06B10B979A022F0C5
:20490000D9F83068D0F8E00380473068D0F8180280473068D0F8F0028047DAF800002F461B
:204920000726A03001687B5823B118468047DAF80000A030761E07F10407F3D1D0F8B802C6
:204940008047EB2021F0AAFD606A2F4670B105A8FF21082216F03AFE606A05A9082220F086
:2049600075F904F12406012818BF3768654A0CCA05A8391C80E80C0021D1082014F0F4FFFF
:204980005FEA000856D0A8F10206032721F05FFE06F8020F7F1E4FEA20207070F6D120205B
:2049A000F82706F8020F4146082204F1400088F8077020F06BFF40461CF0BEFC04E004F14D
:2049C0004000082220F062FF0120082105AA21F0F5FD04F14006002818BF092826D11FF08F
:2049E000A1FD80081DD205A8FF21082216F0EEFD07AFFF210822384616F0E8FD01202946C1
:204A000008223B4621F0E2FA80B9384605A9082220F01CF928B930463946082220F036FF05
:204A200004E001200821324621F0CEFDE22031461DF0E0F91FF076FD400834BF2E1C012667
:204A4000BC4F5520012107F1420221F0B7FD18B916B128461FF08CF82B4FE22007F1440161
:204A60001FF0FCFB30461AF0BDFD05A82946102216F0ACFDB84698F8010030F001004AD12E
:204A8000224F05A91022384620F0E0F800283FD105A83946102220F0F9FE3CE052616E6421
:204AA0006F6D5F736565644175746F6D617469632829206661696C656400C046414553437B
:204AC000434D206F70656E206661696C656400C0414553454342206F70656E206661696CFE
:204AE000656400C054524E47206F70656E206661696C656400C046C05057002014010020D9
:204B0000C4290020D0850200D85500200483020005A81EF031FC6220102105AA21F04EFDB5
:204B200028B926B16220102105AA21F04DFD05A82946102216F04AFD304610F0BBF93046C5
:204B40001DF01CF9304610F0C3FB1EB1284601211DF0EEFD202014F007FF0028E06300F003
:204B60003581A06AE16A221D18F0E4FADAF80010D1F84C138847E16B201D0860A06AE16AE6
:204B800004F1080218F0D6FA0CF0A4F9E16B04F108004860A06AE16A04F10C0218F0CAFA90
:204BA000AF4F7870DE48B8F83060BD7008F13C01BE8021F0F1FD98F82500E16B04F10C0304
:204BC00008F14C06387004F110028B60A06AE16AFE6018F0AFFA04F12C0B04F12809A14950
:204BE000A14E0870A14ABE60A14B7A62E06BBB6204F1100604F11402DBF80010C660D9F825
:204C00000000119218F096FA9A4EF071022286F824204FF6FE70B08320F0FCFDC049964854
:204C20000560C04821F0B8FD9448FF21382216F0CDFC9348944B8360944AC2609149416004
:204C40000570934B0361934A426195493961924B8361924AC261934B7B61934ABA61954856
:204C6000924B934AFB6195491061934FD16006F13000976010F05EFCAA4809272C307F1E29
:204C800040F8045BFBD1F07948F201011BF05AFCF0794FF400411BF055FCF07921211BF0AC
:204CA00051FCF07922211BF04DFCE06B11990161D9F80000DBF8001004F1180218F03AFA51
:204CC0007F4E48F2150130701BF03CFC307838211BF038FC7C4F0222F7607C4B86F82820C1
:204CE00078483361E16B70614FF6FE7704F1180304F11C02D9F800004B61DBF8001037844B
:204D000018F018FA724AD580D5609570556101261574074615700748167148F2020147702C
:204D200038461BF00FFC48F2010138461BF00AFC02E0C04678560020384648F204011BF076
:204D400001FCE16B04F11C008861D9F80000DBF8001004F1200218F0EDF95E4B20705E4977
:204D60009870284621F0E2FB5C49304621F0DEFB5B49042021F0DAFB5A49062021F0D6FB71
:204D80005949072021F0D2FB5849082021F0CEFB98784FF6FE71491C1BF0D4FB554F564B81
:204DA000534861497B60554A8862554BBA6008460F46544AC3623B46534887F84660534F47
:204DC0001A63E36B076004F12006DE6110F0AFF910F0DAF8129821F071FE0DF07DF91FF021
:204DE0001DFDDAF80000D0F8D40090F843001FF027FDDAF80000D0F85824294601209047B0
:204E000021F0B2F84248DAF804700570F868007830B9DAF80000D0F858242846014690472F
:204E200015F0F2F93B48058145812B4603603B4A4360394807211FF099F914F009FD1CF057
:204E4000BBFF1DF0B6F998F80100022804D14FF40040012112F042FF13B0BDE8F08FC04677
:204E6000D0570020E85B002051120100A97901007961020060540020C8560020001B0020D8
:204E8000485A0020FD8D00008D4E0200D5D20100572E0200DD450200412802008D4B020051
:204EA0005D580100FD41010095450200A5990000605B00205D350100D9AA0100652C01005F
:204EC0000C580020992202003D3A02000D42020074650020205C0020956002005960020080
:204EE0006D60020081600200955C0200AD5C020065FD0100285A002079110200DDF601009D
:204F0000251B0200950A0200DC510020A50802008D6C0020246C0020EC0000204D68020026
:204F2000045800207454002078560020964A2DE9F04FADF13C0D00240A918E2309900121D8
:204F4000101D01708046D47240215171502593712046D0730021D171DFF830B21172A02102
:204F600091729089917340F430509081204611681074C44CC2485572084084F832304CF2A4
:204F80001011014300200C909BF80000116058B90C981AF027FB94F83200000910D30C98BD
:204FA00008A98DF8200008E094F83200000907D301200DF121018DF8210052201CF01AFF94
:204FC00010F0B5F820F0F2FCDFF8E4A20B90002840F0C7800EF0A2FC00280B9040F0B680CA
:204FE0000C9804F1240674210D903246212021F0E5FA002857D10D9921207422334620F0BD
:20500000E5FF00284FD1608F4FF6FE7181424AD001200D9094F84A00082806D0042804D04A
:205020000EF016FB0C980D903DE0DDF8349042200DF122018DF822901CF0DCFE06F12F01A3
:2050400043201CF0D7FE06F12C0147201CF0D2FE06F11C014A201CF0CDFE06F11A014B20D3
:205060001CF0C8FE06F1240128461CF0C3FE06F1160153201CF0BEFE06F12D0154201CF019
:20508000B9FE06F11801E1201CF0B4FE94F83200000938BFDDF8309052200DF122018DF81F
:2050A00022901CF0A7FE0C9D18E00B9151E00C9AA80000EBC50029460C23814609EB0700C1
:2050C000009001201CF0E0FF30B917F80900FF2804BF002007F809006D1CADB2BAF8000087
:2050E000DAF80470A842E2DC0DF046FF8948001D006800B180471DF06DFB0D98F0B121F0E6
:20510000C7F9ABF81C0028B998F8000000F0F80088F80000C448401C0078022818BF012035
:2051200003D1002184F84A1003208BF8010039360BF11400314621F02FFB01E009200B9027
:205140000B9F73480021002F4180AED0012770480B9794F83C10814601208840CBF80C0082
:2051600079E00EF0DBFB0EF073FA04F124022120742121F029FA02A8FF210C2216F026FA54
:205180000C9D56460CE0C046686B002060540020294601200C2202AB1DF08EFD6D1CADB226
:2051A0003088A842F4DC02A8FF21102216F00EFA0C9D03202946102202AB1DF07DFD6D1C49
:2051C000332DF6DB5348006800B180471FF05AF8002006220C99ADF8100002A816F0F6F981
:2051E000142014F0C1FB061C1BD0B0480C300768A7B103270225A8B202A90622801920F08C
:2052000045FBAD1D7F1EF6D104A93046022220F03DFB4C201421324621F0D6F930461CF016
:205220008BF8182014F0A0FB071C10D00C9D1822294616F0CBF90620294618223B461DF098
:205240003BFD6D1C032DF6DB38461CF075F816F0E7FA2F4881460B98944D012868D1724ECA
:20526000737804F124072BB3012B0DD0022B13D198F8000000F0F80040F002000AE0C04691
:205280000000FFFFD051002098F8000000F0F80040F0010088F8000085481FF044FC002862
:2052A00008BF00200DD0042103208BF80A1008E0405C002098F8001001F0F80188F8001087
:2052C00002208BF8010021F0C2F90999B36B00F07F000818CBF80C306430022180B20C9089
:2052E000FF201DF025FA4FF6FE706087461CE0870020A4F848601DF0D7FA0A9801280BD018
:2053000002A80021082216F061F902A805E0C046745B00205C5A002000201CF02DF921204B
:2053200074213A4621F050F9002002211DF000FAE8680B9C80B9122014F016FB0646002EC3
:20534000EE606DD04FF6FE70B61F0327411C26F8060F7F1E7180FAD1002C61D106AB4C20AC
:205360000021022220F032FE002852D1BDF8180000284ED004284CDA182014F0F5FA0327A3
:205380004FF0020800244FF6FE7A0646EB681FFA88F14C2006221B1920F018FE78BBE86841
:2053A000015B8A452BD056B30096201841880022182306201CF068FE3069EA6800F2E93339
:2053C00033611019418805F13402880000EBC100E9681350081973694188880000EBC10039
:2053E0008018E9684360081941881822334606201DF062FC30460021182216F0E7F87F1EA0
:2054000004F1060408F10608C0D116B130461BF093FF054B7120002108224C3320F0D6FD8D
:2054200020F0B2FE30B101E0D85500200120A8700027EF701F48C9F80C001F48C9F8100072
:205440001EF0F4FD1E481D490860DBF8100050B10BF11004076820681BF06EFF3846002810
:20546000CBF81000F6D109984FF6FF71814217D0012000278BF800000BF1090201468BF8F6
:205480000970852021F09AF80BF1090428B9852039460122234620F099FD0C981FF098FFC1
:2054A0001FF0C0F80B980FB0BDE8F08F8055002004580020B9E6000049620200D059002099
:2054C000D16A01002DE9FC47D44C0F460546F80B80F006826078DFF85883B90F80F0AA818F
:2054E000B90880F09D81F90A80F00281390B80F0CC80380907D2F80FC0F0288227F080470E
:2055000017F062FB22E221F05DF981461FF0FEFB002800F0B480082020F0FCFF002840F016
:20552000AE80802020F0F6FF002840F0A880684613F0ECFA012803D10098002800F09F80B5
:2055400094F84102002840F09A8000250126E8B220F092FC48B1837A3BB1867290F909001A
:2055600006FA00F0C0B21DF007FA6D1C032DEED3032084F8200004F5CC7021F01FF9484696
:2055800021F09CFAD34800252A460168056050F8081CD14940F8085C04F15C001FF006FB63
:2055A00040460068006B8047A168401A010BA06AC1F1FF3282422CBF08444FF0FF30A06204
:2055C00094F82C0020B12069A16AB1EBC02F25D91FF0ACFB294600B13146081C1BD0BF48C2
:2055E00040F6090101804580417B06F00F0221F00F010A434273017B05F00F0321F00F019B
:2056000043EA010202732946416020F005FE418811F4406FFBD084F82C60A5621AF096FECD
:20562000CE482946056002201FF056F802201DF0E3FD112010F01EFC207818B960684830FE
:2056400021F0D4F8C648007810B90E2010F012FC94F82D0020B184F82D5005201DF0CCFD64
:20566000C048606284F82050B4F9B000B4F9B210884214BF0220072014F058FF02E04846F7
:2056800021F01CFA27F008073AE720B104201DF0B3FD0020607065681CF0E2FD38B12846EB
:2056A000ED696FF4807100224FF00073A847E06858B140460068006B8047E2686168801A5F
:2056C000C860000BC8600026E660A74904F15C0000221FF06BFA0221D4F89C0084F82010F5
:2056E00018B104F1DC0021F089F827F4006707E721F068F806461FF009FBD4F894100028A6
:20570000894600F08480002900F081809749042504F15C00002284F820501FF047FA30467E
:2057200021F0CCF904F5CC7021F048F840460068006B8047E0604FF0010884F801802846FA
:205740001DF072FDD9F810006060D9F81000416AC90803D3036A294600229847404618F08E
:20576000C1FC606880F81580606810F0C1FD6568D5F808A040F60A02D01F564600F1010C04
:2057800000E01E46736833B119888A4203D0884218BF8C45F5D100217160727B08F00F03A5
:2057A00022F00F0213437373D9F80C201288904224D06046904221D02B8E03B3696305F193
:2057C0003002518095F83C0001F00F0320F00F00034385F83C3095F83D0008F00F0320F0C8
:2057E0000F00034385F83D307260707B01F00F0520F00F0045EA0001717300E0E1605046BE
:2058000020F00AFD514640461EF066FF02E0304621F054F927F4806798E0C046A84800209B
:2058200009F0D8FED4F89C0008B927F002078DE08C0100104E4A116841F08001116020B141
:2058400004201DF0D9FC0020607020F0BBFF8246D8F85400016804208847D0B1287DC0B1A9
:20586000A068B0B18146D8F800002E69006B8047A0EB09002861000B2861B04202D280194F
:205880004008286140F6C41181422CBFB0F5967F2961504621F012F91CF0E2FC80B1EE6916
:2058A00028466FF4807100224FF00073B047D4F89400002808BF47F0020701D017F084F977
:2058C0002846AD6900214FF080630A46A84727F000573BE01410044011E601007C6B0020D2
:2058E00020F070FFD4F8AC6066B306F1280106C90A234FF0E0450B40154008BF002B21D134
:2059000006F1280191E8000306F1280595E8060006F1280322EA090221EA080183E8060086
:2059200021F0CCF8B16879B1B9F1000F08BFB8F1000F09D03069B6F93010B5684B46424680
:20594000A84701E021F0BAF827F4804727B104F1DC00394620F052FFBDE8FC8700000460BD
:20596000EA89020041370100752E0100ED4C0200CC2108402DE9F04F7748794A0178774816
:205980001170794C417077495C30E061ADF11C0D086002F0B5F8B249891C0391B049091D62
:2059A0000491AF49891D0591AD49002501264FF029084FF0020B0E310691E0684FF0FF3193
:2059C00021F074F80028F8D0207818F097FD071C00F0D68039782078923932D0333904D067
:2059E000491F26D0491E20D02EE03B79F81C5B1E05D05B1E28D1FB7833BBA06A03E0037893
:205A0000A16A3BB908461FF028F8A06A64211CF0C6FE19E008461CF0A3F8A06A4FF4FA7105
:205A20004FF6FF7219F03AFB0EE0CD212A46032304E08DF80850C12102AA082318F0D8F8AE
:205A400002E0381D12F09CF93878B146712822DC71284ED0652810DC652862D0801F73D069
:205A6000423800F0838018386BD0401E66D0401E01287BD9801E57D06CE066384DD0801E55
:205A800047D0801E032871D9001F3ED0401E38D0401E32D05EE091280FDC912866D072386E
:205AA000022863D9C01E20D0401E1AD0401E5DD0C01E5BD0801E59D04CE092380DD0C01E5E
:205AC000012853D93038062850D91B384ED0801E01284BD9093849D03CE0FB6A002B45D03B
:205AE00034E0BB68002B41D030E07B69002B3DD02CE0FB68002B39D028E0FB68002B35D0C9
:205B000024E0FB68002B31D020E0FB68002B2DD01CE0FB68002B29D018E0FB68002B25D069
:205B200014E0FB6813B311E0BA46DAF8140008B11BF002FCDAF81C30C3B107E07B69ABB1F6
:205B400004E07B6993B101E0BB687BB118461BF0F3FB0BE0A9460CE0C4290020B4360020D5
:205B6000946C0020005300201C43002038461FF07DF8B9F1010F03D017B138461FF076F8C1
:205B8000216988081AD3276AA068B8420BD182480078012818BF022805D10A208DF8080096
:205BA00002A820F0AFF96068B84201D120F0A0F921692846206221F002012161080924BF42
:205BC00021F008012161606A8A0921D364211CF0E6FD584617F03CF9032017F039F904200A
:205BE00017F036F9052017F033F9062017F030F960694EF6602120F078FD694820F000FEEF
:205C0000606A1BF0ADFF2169606A21F020012161CA0957D364211CF0C2FD5D485F4F5C4BB4
:205C2000806840F3100297F900101868A0F5407041430811574964274FF44853121A07FBFE
:205C4000023000128881082020F01EFE071C1FD03E70034887F80380A7F80150786001E0ED
:205C600074520020A4F8585084F86160607884F860B0401CC0B2607029460091494940F2F7
:205C800002423B46401EC0B20190304610F06EFE384620F03AFD206920F040002061A069D4
:205CA00047F2305120F021FD3F4820F0A9FDE06A20F0E6FCA57028461CF014F9606A1BF012
:205CC0004FFF2169080AFFF478AE162020F0DCFD071C2FD00320387040F20553A7F801305B
:205CE00087F80A8087F81180039A7A602D4987F803804FF4A1633B81049AC7F80B2040F2DF
:205D00000B53A7F80F30059AC7F812203B4684F860B040F60432A4F85850607884F86160E5
:205D2000401CC0B26070401E0095C0B20190304610F01CFE384620F0E8FC082020F0A4FDF4
:205D4000071C1CD03E702520F870A7F80150069B7B60A4F8585084F86160607884F860B088
:205D6000401CC0B26070294600910E4940F202723B46401EC0B20190304610F0F7FD3846BE
:205D800020F0C3FC206920F08000206115E6C0462850094068520020D95500200C13005041
:205DA000FC43002074430020204400202DE9F04FADF1840D1B91CB491C923CC9064610A82E
:205DC0003CC00EC980E80E0000248DF84240317F8DF84340B28D8DF84D40D6F828C0ADF8EB
:205DE00044400F46ADF85A20F2898DF854706046ADF84A20027802F00303022B8DF84020AE
:205E000000F3C38123461D93401C1F9353083CD202F00C0EBEF10C0F0CD053093CBF10F8AA
:205E2000013B8DF84230BEF1080F04BF01238DF84C3001D08DF84C40BEF10C0F0AD073790F
:205E400003F00303012B0CD142F00C0273898DF8402004E045780378801C03EB0523ADF8AC
:205E60004430530911D245780378801C03EB0523ADF8463003784578801C03EB0523ADF8DB
:205E8000483010F8013B8DF8433010F8013B32F07F058DF855301ED0037833F003058DF841
:205EA000413040F06E8103F0030EBEF1030F00F0688113F0030F00F101000ED010F8013B8B
:205EC00002F00305022D8DF8573004BF10F8013B8DF8583001E08DF841401490A0EB0C0057
:205EE0003F1AFFB2B942C0F24C81C91B8DF85470C8B28DF84D00074300F04781D00907D3F0
:205F000070891BF0B9F9002840F03F819DF8402002F00C002146001F08BF01211E91910908
:205F200033D301211F9180B3B28920F0B1FA904202D1F08D000A0ED220F0AAFA904222D0DC
:205F4000F08D01460B0A38BF101C07D39DF8402002F0030C2EE07089ADF85A20804620F079
:205F600097FABDF85A10884205D0404619F0ECF8002800F00A818648026810A9404690476E
:205F8000002840F002819DF84020F08D02F0030C01460B0A0ED2D3090CD39DF8413013F0B3
:205FA000030F07D102F00C030C2B03D0082B1CBF01231D93DFF8E081BCF1020F00F0C280E2
:205FC000BCF1010F00F0908012F0030F40F0DD80704A92F82F20012A03D1B779002F00F082
:205FE000D4809DF8542002231A92040A9DF84250BDF846B0BDF848A09DF855E09DF857C080
:20600000DDF850908DF86430B2899DF84370ADF85C2034D21E9F40461B30046897B91D9F02
:206020001FB1104610A913F0D1F91F9800901C9F0197B07C1B9A0290F37C17A910A810F0C0
:20604000EFFCA2E0307C002C8DF8560000F09D8020F01EFABDF85C20904240F096803079F9
:206060001F9F00901C9D01971B9A02951D9B039196F8300010A9049017A8A04785E0ADF82E
:2060800030008DF820308DF8227034798DF833407189ADF818108DF835E08DF82350ADF841
:2060A00026B0ADF828A0CDF82C90307C8DF836C0B27C8DF8320096F830308DF83420354CC8
:2060C0008DF83730B4F8481096F83270ADF824101A998DF8387006A8ADF82A1005F0D2F89B
:2060E00053E0C046848702001D9FB58937B1000A04D2284610A913F069F9B5899DF85400E5
:20610000B6791030C0B21EF0CAFC071C3DD07D81022038703E737C709DF854203A7207F188
:2061200010057D609DF84000800928BF01247C72149978681FF0AAFB40460078394619F04E
:2061400083FE22E09DF8417040462330B189036817F0030F10D110A807901048ADF818108A
:2061600006A91DF0C9F980B1062141730068407B21461AF04FFB08E03BB110A822469847E4
:2061800003E08DF84D408DF8544021B0BDE8F08FCC590020D0510020D15700207BFC0100B6
:2061A0002DE9F04FD24CDFF84C93DFF84C83080CADF1140D019180F0D4810846400838BF59
:2061C0000020C0F0D881676820F07CFC054620F041F94FF47A764FF6FF726843B0FBF6F085
:2061E00081B267B13B887888CB1A9BB2984210DDC01A8242C8BF82B2FF68002FF2D14FF6A1
:20620000FF70904200F095802078012120F0A0FA8FE0B87902287FD020F054FC054620F000
:2062200019F997F838204946684301F10A03B0FBF6F038801878904266DD97F83600FF2852
:2062400008D197F83800401C87F8380097F8370087F8360097F8356097F8393000200121B2
:2062600001E0401CC0B283420FDD97F8365001FA00F285F0FF052A42F3D03618814097F876
:206280003600F6B2014387F8361097F83400B98F10FB06F2891A89B28842C7BFFF2087F83D
:2062A0003600011C97F8360099F82420FF2818BF97F83A0006D140460078642510FB02F2CD
:2062C00012FB05F0788046B9388D3E7A40F020003885386C87F82E600BE03A8D4FF6DF7044
:2062E000104038853D6C87F82E6097F8342012FB06507862F879CEB287F82D0007F1100016
:206300007E8404F0BFFF10E0B87E97F82A10FA8BE9231BF0F9FF05E0387CFF2802D0B86993
:206320001EF0A4FC38461CF08FFE2078012118F013F9019880F001001DE12878012840F0C9
:206340000D8195F8338095F813A06F6995F83100698802221DF0ACFA05F11C0405F1020BB8
:2063600006460020002E02907BD1687F400876D3A87FCDF80CA01FF087FFBA4605F11009F1
:20638000071C60D01C2013F0EFFA061C59D000211C2215F01BF9A87F69461EF0A2FB9DF8A9
:2063A00001000221307530461DF018FE6888317DB08095F83100FF22F07102FA01F070749C
:2063C00078680078307495F83000B07495F8331011FB00F0303080B21EF061FB0746B761B3
:2063E00027B930461CF030FE00262AE01A20387000237B701A467A80E0885946B880B81D7F
:206400001EF014FDE0783C4BF87303F1200000883882608BB88560897882A0783875207B52
:20642000787599F80000B87599F80100F87599F902003876039A7A76C7F81CA007F130013F
:20644000B962304600E000200028064600F08680274886F808800078012118F07DF8002E87
:206460007CD0307AA8EB0000B0F1FF3F04BF01200290307CFF285CD06078400828BF4FF0F9
:206480000008317DF07C4018404503DCF074FF2088407074B069B17C227D806A08FB01001C
:2064A00021691FF0F3F9029F317D727C012398FBF1F04843A8EB000003FA00F11143C9B2A7
:2064C0007174DFB1401CFF2202FA00F001437174B769B17C207D08FB0100B884707CFF2878
:2064E0000CD1307CB16919F0AFFCFF20307420E0E85B0020D8550020F851002020F0E2FA7D
:2065000007461FF0A7FF1D4B1D4A4FF47A717843B0FBF1F0308093F8241010781F4610FBCE
:2065200001F1B87A6423401C10FB01F010FB03F07080F17C327DA8EB0100801AB0F1FF3F41
:2065400004D0707CFF2801D0029F3FB1E175707C2076BBF80000214612F038FF28461EF04B
:2065600085FB0848007817F0C9FF051C7FF4E5AE019880F4004005B0BDE8F08FD85500206A
:20658000F8510020E85B00202DE9F04FAF4CDFF8C082DFF8C0B2ADF1340D60780591090C1B
:2065A0006ED20598400824BF059880F0010080F081810598800805D30120059FE07087F0CA
:2065C000020077E10598000938BF0020C0F0728158463230E76A00780026B146000922D21E
:2065E00020F070FA05461FF035FF236B4FF47A7142466843B0FBF1FC92F82610928EACEB95
:206600000300824238D8B0FBF2F39BB29942ACBFDDB20D1CB0FBF2F15143401A80B2ACEB83
:206620000000206300E00125EFB1C846F878A8420ADD401BC0B2F87040B109F101061FFAA2
:2066400086F93E467F680CE087F803807868002E82460CBFC4F82CA0706038461AF06CFE77
:206660005746002FE2D16078B9F1000F04D100212163082118F002FB059880F0080019E153
:2066800017F03CFF071C00F01281B87FC0B9788CE56A132815D1B7F80290281C11D0002662
:2066A0000188894508D14568002E0CBFE56275601AF042FE284601E0064640680028EFD173
:2066C000E56AB87A97F831102E46022855D1788866B1DFF8E8C13288904204D1B2789CF8EF
:2066E0000030914247D07668002EF4D181468A464646002D08BF002004D0012015B16B68EA
:20670000002B34D1F18E814237DD082013F02CF996F82610002830D0A0F8009080F802A075
:20672000C17000234360E36A83B9E0629BF83200000911D220F0C6F905461FF08BFE4FF4F1
:206740007A716843B0FBF1F0206300E06860584690F83200000910D3607808211AF0CCFDD4
:2067600058B96078B28E08211FF0EFFF05E0401C1D4680B2C2E7F37096E0514805683878BC
:20678000012806D0022840F08F80384616F0A6FF8AE007F11004B81CBE8908943B7E0690EC
:2067A000FA7C07967969099397F819B00A923C7F0B9107F11C0604F00C000C280DD0B87F9B
:2067C0004FF0FE09FF2804D01FF05EFD041C10D16AE0002D68D06C680FE0B088FE211BF039
:2067E000AFFD8146B9F1FE0F5ED01FF04DFD041C5AD020781EF040FE05464FF6FF7A0BE0C6
:2068000020781EF039FE054606E0B078FF284BD12D68002D48D06C68002C45D0AB68AAF162
:20682000010823B9A3680BB1B3F8028007E021780220984718B1B0F800801AF07DFD3389CD
:20684000227898450AD03AB943B11CE0D0570020D8550020D05100209A4514D196F802805B
:20686000B27008980090099B01930A9902910B9A0392CDF810B0079B069A3046214611F079
:2068800037F986F80280307800F00C000C28BCD1B08849461BF054FD8146B9F1FE0F03D0EF
:2068A0001FF0F2FC041CABD138461EF0DFF9059880F400400DB0BDE8F08FC046FE55002030
:2068C0002C5C00202DE9F04FC64D20F03100ADF1340D0B9095F83F00002840F06481687804
:2068E00004211AF009FD002840F05D81AF780B9895F83F10012F00F03F0040EA010085F880
:206900003F0000F0D3800120A8701FF04FF8012805D156201DF0F2F908B11FF0C0FEB24C75
:2069200000202071E06808B11EF0C2FDAF4847680023A24680467FB10C24786800781EF09B
